:020000040800F2
:100000000004002071020008710300087103000859
:1000100071030008710300087103000871030008F0
:10002000710300087103000871030008A1030008B0
:1000300071030008710300087103000861040008DF
:1000400071030008710300087103000871030008C0
:1000500071030008710300087103000871030008B0
:10006000710300087103000871030008E11F000814
:10007000112000084120000871200008A12000087C
:10008000D1200008012100080128000871030008A0
:100090007103000871030008710300087103000870
:1000A0007103000871030008710300087103000860
:1000B0007103000871030008710300087103000850
:1000C0007103000871030008710300087103000840
:1000D0007103000871030008710300087103000830
:1000E0007103000871030008710300087103000820
:1000F000710300087103000871030008312800082B
:1001000071030008710300087103000871030008FF
:1001100071030008710300087103000871030008EF
:10012000312100086121000891210008C121000847
:10013000F121000871030008710300087103000831
:1001400071030008710300087103000871030008BF
:1001500071030008710300087103000871030008AF
:100160007103000871030008C12B0008E12B00088F
:10017000710300087103000871030008710300088F
:0801800071030008710300087F
:1001900000B583B001F084F800F0E2F9204801F0E6
:1001A0005FFA20491E4801F083FA40F2DC5000F06B
:1001B000F7FD1D481D4901F0FBFB002403F0B8F8D2
:1001C0001B480621032202F03BFC1A4B00944022FC
:1001D0004FF49871184800F0ABFD2146174801F024
:1001E000AFF81749174A1548082301F049F94FF4A9
:1001F0007A7000F0D5FD11481349144A102301F01C
:10020000F7F84FF0904403E04FF4FA7000F0C8FDA7
:100210002369DB07F8D5094801F002F9F4E700BFCC
:100220001C100020803E0008580E0020903E000860
:1002300000080048B1330008B0120020E80D00208B
:10024000203E0008FC0E0020503E00081C0F00203D
:10025000704700BFAFF30080AFF30080AFF30080C2
:10026000FEE700BFAFF30080AFF30080AFF3008084
:1002700072B6304880F30988022383F31488BFF3F1
:100280006F8F2D4B2D4A93420BD2D943114421F04D
:10029000030119444FF05532043B43F8042F8B42BD
:1002A000FBD1274B83420CD226491A1D891A21F013
:1002B000030119444FF05532043B43F8042F8B429D
:1002C000FBD103F025F82049204B99420BD2C843BB
:1002D000184420F003001E4C04300023E258CA509A
:1002E00004338342FAD11B4B1B4A93420AD2D943AF
:1002F000114421F0030119440022043B43F8042F68
:100300008B42FBD1154D164CFFF7A2FFAC4204D235
:1003100054F8043B9847AC42FAD3124D124CFFF705
:1003200037FFAC4204D254F8043B9847AC42FAD3AE
:10033000FFF796FF000800200000002000040020C6
:100340000004002003080020000800200808002006
:10035000083F000808080020E0130020880100087A
:10036000880100088801000888010008AFF30080B8
:10037000FEE700BFAFF30080AFF30080AFF3008073
:1003800072B6FEE7AFF30080AFF30080AFF30080FA
:1003900000F076F900F03CFC00F08AF900DF00BFC5
:1003A000EFF30983203383F30988002383F3118853
:1003B000704700BFAFF30080AFF30080AFF3008061
:1003C00008B5094B094A002199600720DA6010211D
:1003D00000F09EF80A20202100F09AF80B208021DE
:1003E000BDE8084000F094B800ED00E00003FA0515
:1003F000202383F31188164B5B6813F400631AD033
:10040000EFF30983A3F1200282F3098811494FF029
:1004100080708A6943F8040C92F823000968926896
:10042000896858B1914294BF0022012262B10A4A00
:1004300043F8082C704783F311887047914234BF0A
:1004400000220122002AF2D1044A43F8082C704706
:1004500000ED00E03C0D0020910300089C03000823
:1004600008B500F07DF9202383F3118800F040F9EE
:1004700000F0B6F800F054F9002383F3118800F07F
:100480008FF9BDE80840FFF7B3BF00BFAFF30080AE
:100490002DE9F04FC1F80CD0D0F80CD0BDE8F08FAA
:1004A00008B500F005F9002383F311882846A0471A
:1004B00000F0B6FC08BD00BFAFF30080AFF30080D2
:1004C00020F0030202F1604202F56142F0B44309F8
:1004D00000F00304D2F80053E400FF269B00A6407E
:1004E00003F1604325EA060503F561430127A140B6
:1004F00000F01F0007FA00F045EA0104C2F80043CB
:10050000C3F88001F0BC1860704700BFAFF30080F3
:1005100020F0030303F1604303F56D4300F0030093
:1005200010B4C0009A69FF24844022EA040281408A
:100530000A439A615DF8044B704700BFAFF3008037
:10054000024B034A9B699A61FEE700BF3C0D002005
:10055000E0340008AFF30080AFF30080AFF3008019
:1005600000B583B0FFF72CFF00F00AFA00F0A0F905
:1005700000F03EFE00F084FE00F062F940210F48DA
:1005800000F056FB01210E4A0E4B80F82010C2618C
:10059000986100F05DF8002383F3118862B6094B7F
:1005A000094A9B6909489A6100230093C0210122EE
:1005B000074B00F0BDFB03B05DF804FB080800200A
:1005C000000400203C0D0020603600085808002080
:1005D00041050008AFF30080AFF30080AFF3008067
:1005E000F8B500F0FDF8174B9A6992F8233013B173
:1005F000013B82F82330516A134B01315162DA68B2
:100600001C6801329C42DA601AD0A768013FA760DB
:10061000B7B91E462268E568E76053601A6000F0CB
:100620007FF8002383F311882069A847202383F3F0
:10063000118800F05DF83468034BA268002AE9D005
:10064000F8BD00BF3C0D00202C0D0020AFF3008052
:10065000054B1B6813B9054B1B6823B1044B054AB6
:100660001A60FFF78DBE704718090020240D002086
:10067000280D002000350008AFF30080AFF30080A4
:10068000074B1B6810B5074C0BB9236823B1064B09
:10069000064A1A60FFF774FE0123236010BD00BFF5
:1006A00018090020240D0020280D0020083500081E
:1006B000094B1B6810B5094C2BB92368002B02DDD0
:1006C0000023236010BD064B064A1A60FFF758FE50
:1006D0000023236010BD00BF18090020240D002056
:1006E000280D002010350008AFF30080AFF3008024
:1006F000074B1B68002B10B5064C01DD236823B1A6
:10070000054B064A1A60FFF73BFE0123236010BD2C
:1007100018090020240D0020280D0020183500089D
:10072000094B1B68002B10B5084C05DD2368002B16
:1007300002DD0023236010BD054B064A1A60FFF757
:100740001FFE0023236010BD18090020240D002087
:10075000280D002020350008AFF30080AFF30080A3
:1007600010B5202383F31188094C2368002B02DB8A
:10077000084A12682AB1084B084A1A60FFF700FEBF
:10078000236801332360002383F3118810BD00BF69
:1007900018090020240D0020280D0020283500080D
:1007A00010B5202383F31188094C2368002B02DD48
:1007B000084A12682AB1084B084A1A60FFF7E0FDA0
:1007C0002368013B2360002383F3118810BD00BF21
:1007D00018090020240D0020280D002030350008C5
:1007E000064B1B68002B04DB054B1B68002B00DD50
:1007F0007047044B044A1A60FFF7C2BD1809002075
:10080000240D0020280D002038350008AFF30080AB
:10081000064B1B6823B9064B1B68002B00DD704795
:10082000044B054A1A60FFF7ABBD00BF1809002052
:10083000240D0020280D002040350008AFF3008073
:10084000034A1346402143F8081B5360704700BF1A
:100850001C090020AFF30080AFF30080AFF30080ED
:100860000C4A0D495368896910B40C4CE4681C604B
:100870005960816A996090F820101973103302F55D
:1008800081618B4228BF02F1080353605DF8044B7D
:10089000704700BF1C0900203C0D00202C0D0020DB
:1008A000014B1860FFF76CBD280D0020AFF30080EE
:1008B000044B4FF0FF3100225B601B609960DA60EF
:1008C000704700BF2C0D0020AFF30080AFF3008015
:1008D000F8B505460C4616461F46FFF781FFCDB119
:1008E000C6B1BCB10D492F610B68EE609A689442A5
:1008F00004D91B68A41A9A68A242FAD35A686A609B
:100900008B422B605D601560AC6002D09A68141B4E
:100910009C60F8BD0248FFF7C3FFE3E72C0D002001
:1009200050350008AFF30080AFF30080AFF30080D4
:1009300010B50446FFF754FF84B1E36893B1236810
:100940000A4A934203D09968A2680A449A6062688E
:100950001360236800215A60E16010BD0448FFF76E
:100960009FFFEAE70348FFF79BFFE8E72C0D002015
:100970006035000870350008AFF30080AFF30080E9
:10098000034B00225B601B605B611B619A607047D8
:100990003C0D0020AFF30080AFF30080AFF3008088
:1009A00010B50446FFF71CFF94F820308BB10E2BD6
:1009B0000FD00022A168094B84F820201B689A6898
:1009C0008A42FBD25A686260236020465C601460F1
:1009D00010BD0348FFF764FFEBE700BF3C0D0020AC
:1009E00090350008AFF30080AFF30080AFF30080D4
:1009F00010B52023044683F31188FFF779FE94F89D
:100A000020300D2B11D8DFE803F016101007100B63
:100A1000101010101010100BA36A9A6801329A601F
:100A200094E80C001A60226853604FF0FF33A36211
:100A30002046FFF7B5FFFFF773FE002383F311880D
:100A400010BD00BFAFF30080AFF30080AFF30080B4
:100A500070B5114C0646FFF7DBFE2368A5691A68DE
:100A600085F820601420012185F823005460284671
:100A700083F820102260A361FFF7F2FEEB69ADF16D
:100A80002402934202D90548FFF70AFFA0692946CC
:100A9000BDE87040FFF7FCBC3C0D0020A435000809
:100AA00070B50C4686B00646FFF7B2FE631C12D046
:100AB0000D4D0E4AAB69214601A8FFF709FF3046EC
:100AC000FFF7C6FF049B13B101A8FFF731FFAB6925
:100AD000986A06B070BD044D3046FFF7B9FFAB69A8
:100AE000986A06B070BD00BF3C0D0020F1090008F7
:100AF00070B5164D04460E46FFF78AFEA869A36836
:100B00008268A662934213D9FFF74AFF0123064683
:100B100084F82030AC61FFF7A3FEF369ADF1240245
:100B200093420AD820463146BDE87040FFF7B0BC7A
:100B30002046BDE87040FFF733BF0548FFF7B0FE21
:100B400020463146BDE87040FFF7A2BC3C0D0020B6
:100B5000A4350008AFF30080AFF30080AFF300804E
:100B600070B5104C2368A5691A682260142101260B
:100B70005460284683F8206085F82310A361FFF7AE
:100B80000FFF2846FFF76CFEEB69ADF1240293429C
:100B900002D90548FFF784FEA0692946BDE87040E8
:100BA000FFF776BC3C0D0020A4350008AFF30080B1
:100BB00070B5154E3268B5691368AC6833600120B2
:100BC00000215E6082F820001346B26185F8201093
:100BD00000E01B689A68A242FBD85A686A602B60E2
:100BE00028465D601560FFF73BFEEB69ADF124021E
:100BF000934202D90548FFF753FEB0692946BDE884
:100C00007040FFF745BC00BF3C0D0020A435000834
:100C1000044B9B6993F823300BB1FFF7C9BFFFF773
:100C20009FBF00BF3C0D0020AFF30080AFF30080FA
:100C30002DE9F007144C416465694561002200F11B
:100C400030064FF0020A4FF014094FF0010800F18E
:100C50004C0700F12C0C0461816080F820A06061D9
:100C600080F8239080F8228080F821200264C263FB
:100C7000426282612861C76146630663C0F82CC086
:100C8000BDE8F007704700BF3C0D0020AFF30080C7
:100C90002DE9F84F04460D4617469846FFF7A0FD8C
:100CA0000CB1AF2D36D81E48FFF7FAFD1D4EA5F149
:100CB000240160187269E06044F801800A9941607B
:100CC00000254FF0020A4FF014094FF0010C1649AD
:100CD000016204F1300304F12C0B04F14C0884F898
:100CE00020A084F8215084F8239084F822C0A760C3
:100CF00026616261676474612564E5636562A5616C
:100D000020461461C4F82CB063632363C4F81C80CC
:100D1000BDE8F88F7F2FC6D8B8F1000FC6D1C2E763
:100D2000C03500083C0D0020A1040008AFF300808E
:100D30002DE9F04F83B080460C9F894693469A4632
:100D400000F14C050446FF2604F8016BA542FBD1D7
:100D500008EB0904A54204D2552605F8016BA5420B
:100D6000FBD1202383F31188FFF78AFC53465A46B0
:100D7000494600974046FFF78BFF00210446FFF7E6
:100D8000B7FEFFF795FC002383F31188204603B0DC
:100D9000BDE8F08FAFF30080AFF30080AFF30080C9
:100DA00010B5044610B90948FFF77AFD202383F3F4
:100DB0001188FFF765FC21460620FFF771FEFFF75B
:100DC00077FC002383F3118810BD00BF00360008B4
:100DD00038B5104B9C692546A06255F82C0FA842E7
:100DE00006D00368E362FFF7DBFDE06AA842F8D1B2
:100DF00094F821309B0704D1636922691A61226942
:100E000053610E20FFF724FE0348BDE83840FFF78A
:100E100047BD00BF3C0D002010360008AFF3008036
:100E200010B52023044683F31188FFF729FC2046E0
:100E3000BDE81040FFF7CCBFAFF30080AFF30080F8
:100E400010B5044620B1002364602460A36010BD87
:100E50000148FFF725FDF6E780360008AFF3008074
:100E600038B504460D46FFF7BBFCC4B1E26B94F8FD
:100E7000203045EA0201082BE1630CD0092B00D099
:100E800038BDA36A19408B42FAD12046FFF788FD8E
:100E90000023836238BDA36A1942F6D138BD0248E7
:100EA000FFF7FEFCE2E700BF5C370008AFF300800D
:100EB00070B505460E46FFF793FC65B12C68A54258
:100EC00008D0201D0BC83343E360FFF7C9FF246837
:100ED000A542F6D170BD0248FFF7E2FCEEE700BF85
:100EE00070370008AFF30080AFF30080AFF30080ED
:100EF00010B4024661B1094B9B69986244680D20A9
:100F000083E81400536023605DF8044BFFF7C8BD0D
:100F10004FF0FF305DF8044B704700BF3C0D0020E0
:100F200030B4029C046200250A448560026140607E
:100F3000006041618161C160C36130BC704700BF26
:100F400038B50446FFF74CFC2068E3686361002273
:100F5000A042A260A3610AD06FF00105036823607C
:100F60005C60FFF71DFD85622068A042F6D138BDA8
:100F7000F8B504460E46202383F31188FFF780FB63
:100F8000E36933B12046984703E0FFF7B1FF071E3E
:100F900018DBA56820463146002DF6D0A2692169EC
:100FA000531C8B4205F1FF35A361A56028BFE368A0
:100FB000177828BFA361FFF77BFB002383F3118819
:100FC0003846F8BDFFF774FB2B4683F3118838468B
:100FD000F8BD00BFAFF30080AFF30080AFF3008037
:100FE0002DE9F047044615460F461E46D0F81C80F2
:100FF000002A3DD0202383F31188FFF741FB07EB44
:10100000050A4FF000090137B8F1000F05D020465E
:10101000C04702E0FFF76CFF10BBA56820463146D1
:10102000002DF7D0A369013D5A1CA261A5601B7871
:1010300007F8013C2369A2699A4224BFE368A361CF
:10104000FFF736FB002383F31188574509F10109A7
:101050000BD0202383F31188FFF712FB0137D3E76E
:10106000FFF726FB2B4683F311884846BDE8F0873F
:101070000148FFF715FCBDE7C0370008AFF300805B
:1010800030B4029C04628D1805614060006082608B
:1010900041618161C160C36130BC7047AFF30080C2
:1010A00038B50446FFF79CFBE3682269206863615A
:1010B000D21AA042A361A2600AD06FF001050368B2
:1010C00023605C60FFF76CFC85622068A042F6D16B
:1010D00038BD00BFAFF30080AFF30080AFF30080F6
:1010E0002DE9F041202304468846164683F31188F3
:1010F000FFF7C6FA03E0FFF7FBFE071E1DDBA5683E
:1011000020463146002DF6D06369013D5A1C6261CC
:10111000A56083F80080236962699A4224BFE3686E
:101120006361E3690BB120469847FFF7C1FA0023DA
:1011300083F311880020BDE8F081FFF7B9FA2B4650
:1011400083F311883846BDE8F08100BFAFF300801B
:101150002DE9F84F044617460E469B46D0F81CA0D2
:10116000002A3AD0202383F31188FFF789FA4FF041
:101170000009A56806F1010820466A1EFDB16369F1
:10118000A2605A1C626132781A70236962699A42BD
:1011900024BFE3686361BAF1000F00D0D047FFF7C6
:1011A00087FA002383F31188013F09F1010911D067
:1011B000202383F31188FFF763FA4646D9E72046D8
:1011C0005946FFF795FE0028D3D0FFF771FA2B465A
:1011D00083F311884846BDE8F88F0248FFF760FBAB
:1011E000C0E700BFD4370008AFF30080AFF3008042
:1011F0000548064A0649074B20F0070022F007027F
:1012000008601A60704700BFE713002000A00020AC
:101210005C0D0020580D0020AFF30080AFF300807C
:1012200010B50446FFF7DCFA074A08491368096855
:10123000E01D20F00700C91A884203D81844106046
:10124000184610BD002010BD5C0D0020580D002078
:1012500010B52023044683F31188FFF711FA2046C6
:10126000FFF7DEFF0446FFF723FA002383F311881C
:10127000204610BDAFF30080AFF30080AFF30080D5
:10128000044B054A1A6003F1100000229A60DA60EC
:10129000FFF7D6BD600D002051120008AFF30080AB
:1012A00008B501F03DF800F033FB064801F048FBBB
:1012B00000F02EF800F064FB00F0CAF9BDE8084029
:1012C00002F02EB8303C0008AFF30080AFF300808E
:1012D0000C494A68104482424B680CD29A4203D9A6
:1012E0000023002BF7D17047984294BF00230123BD
:1012F000002BF0D1F7E79A42F6D80123002BEAD170
:10130000F1E700BF001000E0AFF30080AFF3008012
:1013100001F0AEB8AFF30080AFF30080AFF3008010
:1013200000230122027043608360C3600361436154
:101330001830FFF785BD00BFAFF30080AFF300802A
:1013400038B504460D46C0B1202383F31188FFF75A
:1013500097F92378013BDBB2012B02D90948FFF74B
:101360009FFA2046656001F0B3F802232370FFF76F
:101370009FF9002383F3118838BD0348FFF790FAE3
:10138000E2E700BF00380008F0370008AFF3008044
:10139000F8B504460E4617461D46FFF721FACCB1B4
:1013A000C6B1BFB1012D01D0EB0713D42378022BB6
:1013B00006D0043BDBB2012B02D90848FFF770FAD4
:1013C0000323A760E560266123702046BDE8F8404E
:1013D00001F0E6B80248FFF763FAE7E7443800088F
:1013E0002C380008AFF30080AFF30080AFF300802B
:1013F000F8B51C4607460E461546202383F3118890
:10140000FFF73EF92346384631462A46FFF7C0FF2C
:10141000FFF74EF9002383F31188F8BDAFF3008086
:1014200010B5044618B3202383F31188FFF728F979
:1014300023789A1ED2B2012A03D90F48FFF730FA57
:101440002378022B0DD0204601F002F960690023B9
:1014500002222361227020B163616FF00101FFF766
:1014600047FBFFF725F9002383F3118810BD0348DC
:10147000FFF716FAD7E700BF783800086038000891
:101480002DE9F0411E46044688461746202383F383
:101490001188FFF7F5F8636913B10C48FFF700FAFC
:1014A0000B4D41463A4633462046FFF771FFAB6984
:1014B00063610220FFF7CCFAAB699C6AFFF7F8F88A
:1014C000002383F311882046BDE8F081C43800086A
:1014D0003C0D0020AFF30080AFF30080AFF300803D
:1014E00070B5046AD4F854321A681178042900D00F
:1014F00070BD217A0229FBD112891B7942FA03F3CC
:1015000013F00105F4D1216CE36BA26BC91A8E1A9A
:10151000EED0FFF7CDF82B4683F31188D4F8542290
:1015200033461068117904F1300200F0B9FA202333
:1015300083F31188FFF7A4F8D4F85432BDE8704063
:101540001868197900F0DCBAAFF30080AFF30080BF
:10155000F8B5046AD4F8542213681978042900D025
:10156000F8BD217A0229FBD15279598903EB820314
:1015700041FA02F2DB6812F001075D8AF0D1E669F8
:10158000A2696369B61AF61AB542E9D8FFF790F86E
:101590003B4683F31188D4F85422B6FBF5F305FBE0
:1015A00003F31068517904F10C0200F069FA20236A
:1015B00083F31188FFF764F8D4F854321868597926
:1015C000BDE8F84000F07CBAAFF30080AFF30080D4
:1015D0000C30FFF705BD00BFAFF30080AFF3008014
:1015E0000C304FF0FF33FFF7FBBC00BFAFF30080C0
:1015F0003030FFF7ADBD00BFAFF30080AFF3008028
:1016000030304FF0FF33FFF7A3BD00BFAFF30080D2
:101610000C30FFF7ADBC00BFAFF30080AFF300802C
:101620000C304FF0FF31FFF7A3BC00BFAFF30080D9
:101630003030FFF755BD00BFAFF30080AFF300803F
:1016400030304FF0FF32FFF74BBD00BFAFF30080EB
:10165000704700BFAFF30080AFF30080AFF30080AE
:1016600010B503460E4A43F8042B82B0044601220B
:10167000009004F15401436002720A4B0C304FF4A5
:101680008072FFF74DFC009404F1300004F5AA715C
:101690004FF48072044BFFF7F3FC02B010BD00BFA3
:1016A0003039000851150008E1140008AFF300803C
:1016B00070B50D4604460E6810B3202383F31188DD
:1016C000FEF7DEFF237A013BDBB2012B02D90E4885
:1016D000FFF7E6F82A7906EB8202022394626A7920
:1016E000113246F82240AA7906EB8206B4622372D0
:1016F000C4F85452FEF7DCFF002383F3118870BD59
:101700000248FFF7CDF8D8E7103900080039000883
:1017100070B5D0F8543200F10C06044630461D680E
:10172000FFF70EFC04F13000FFF7BAFC201D012189
:10173000FFF7BEFBD4F85432597905EB81032846F4
:10174000DB6832465B8A00F09BF9D4F854322846B5
:101750005979BDE8704000F0B3B900BFAFF3008025
:1017600090F8743003F06003202B01D00020704704
:1017700090F87530212B03D0222B09D0202BF5D1E6
:10178000064B836607220023C26603670120704769
:1017900000238366C36603670120704700080020AA
:1017A000F8B500EB810306469C6A0D46CCB12023B8
:1017B00083F31188FEF79CFF0821201DFFF778FBBB
:1017C000216CE26BA36B8A1AD71A19D106EB850339
:1017D000DA6853695B682BB9FEF7A2FF002383F335
:1017E0001188F8BD128A013A12EA0307F4D1FEF714
:1017F00097FF3B4683F31188002304F1300207E092
:10180000FEF78EFF002383F3118804F130023B467C
:101810003046294600F044F9202383F31188FEF76F
:1018200067FF3046294600F06BF9D5E7AFF300803B
:1018300001F111032DE9F04150F823400D46064611
:10184000CCB1202383F31188FEF752FF201D042121
:10185000FFF72EFB06EB8503E169D868A26963698F
:10186000478A8A1AC3EB0208474506D9FEF758FF94
:10187000002383F31188BDE8F081FEF751FF0023B8
:1018800083F31188B8FBF7F307FB03F304F10C02B1
:101890003046294600F0F4F8202383F31188FEF740
:1018A00027FF3046294600F00BF9DFE7AFF3008051
:1018B000704700BFAFF30080AFF30080AFF300804C
:1018C000014B5B6883607047001000E0AFF300805D
:1018D0000B4B0C4A81685B6810B41468C2685B1AD1
:1018E0001B1B9342836006D802695DF8044B934248
:1018F00038BF03617047C3605DF8044B704700BF99
:10190000001000E0800D0020AFF30080AFF30080F6
:1019100010B586B00A4C0B4B0B4901934FF0FF30CA
:1019200000230590236004934B68084A039301A8A1
:101930000292FFF7CDFF039B236006B010BD00BFEE
:10194000800D0020C1180008001000E0D118000828
:1019500010B5044690F8763080F87E3001F030FB08
:1019600063681B6813B12046012198470323237045
:1019700010BD00BFAFF30080AFF30080AFF3008075
:1019800001F0EEBAAFF30080AFF30080AFF3008058
:10199000012300210370416003460722013AD96206
:1019A000996403F10403F9D102814281704700BFB9
:1019B00038B504460D4600B3F9B1202383F31188EE
:1019C000FEF75EFE2378013BDBB2012B02D90D4806
:1019D000FEF766FF002365601946E2180433202BEA
:1019E000D160FAD1204601F0C3FA02232370FEF73A
:1019F0005FFE002383F3118838BD0348FEF750FFD4
:101A0000DBE700BF8039000870390008AFF30080C1
:101A1000F8B504460E461546FEF7E2FE04B3FDB1E6
:101A20002378042B02D01048FEF73AFF04EB860718
:101A3000FB6813B10D48FEF733FF686918B1002148
:101A4000102201F0FDFCA86918B10021142201F058
:101A5000F7FCFD6020463146BDE8F84001F0C0BA11
:101A60000348FEF71DFFDBE7C4390008E039000832
:101A7000AC390008AFF30080AFF30080AFF3008013
:101A800070B400EB81040126E468A4690025E260DB
:101A900063602670A56070BC01F07ABBAFF3008074
:101AA00070B400EB81040126E46864690025E260FB
:101AB00063602670A56070BC01F07ABBAFF3008054
:101AC00070B504460D46FEF78BFE8CB1638943FA70
:101AD00005F010F0010601D0012070BD0122AA40DE
:101AE000134320466381294601F0A2FB304670BDB6
:101AF0000148FEF7D5FEE9E7343A0008AFF300806D
:101B000070B504460D46FEF76BFE8CB1238943FA8F
:101B100005F010F0010601D0012070BD0122AA409D
:101B2000134320462381294601F092FB304670BDC5
:101B30000148FEF7B5FEE9E74C3A0008AFF3008034
:101B40000022022101701346A0F87C2080F87E203C
:101B500080F87F20028142811146C2180433202B75
:101B6000D1604FF00002F8D180F8642001F0B0BAE3
:101B700070B50023044680F8643000F1740201F06F
:101B8000E7FA63689B68002B31D02046984770B312
:101B9000E06E94F8743094F87B1094F87A2042EA5E
:101BA000012282423CBFE266104613F0800FE368D8
:101BB00040F09480002874D15B69052284F8642089
:101BC00001461870D86058609860204601F0F0FA1D
:101BD000202383F31188FEF78BFD00212046FFF7B9
:101BE0008FFFFEF79DFD002383F3118870BD94F8ED
:101BF000743013F0600611D02046002101F048FB3C
:101C00002046002101F034FB63681B6813B12046B5
:101C100005219847062384F8643070BD94F8755008
:101C200003F07F0242EA0525B5F5407F00F0D98038
:101C300016DDB5F5C06F00F0BC8066DDB5F5106F40
:101C400071D040F60242954200F0AC80B5F5006FCD
:101C5000D2D104F17F0201202667A266E0669AE7EE
:101C6000022D00F0CE8040F39280B5F5807F6CD0DD
:101C7000B5F5817FC0D194F87620002ABCD194F8C4
:101C8000782012F00F0107D01206204600F1DE8006
:101C900001F00EFB94F874300020A066E066206727
:101CA00079E79B69A56E0022042184F8641011462F
:101CB000DD6058601A709A60204601F069FA2023AE
:101CC00083F31188FEF714FD00212046FFF7F8FE8C
:101CD000FEF726FD002383F3118870BD58B15B69C0
:101CE000A56E0022012184F864101146DD60586061
:101CF0001A709A6069E79B69032284F864200146A0
:101D00001870D86058609860D6E740F20232954269
:101D10002BD0B5F5A06F7FF46FAF514AA666E6668B
:101D20003046226737E794F8762084F87F20002A2F
:101D30007DD10322227062681268002AACD020464E
:101D40000221904794F87430A6E794F87620012A8F
:101D50007FF452AFB4F87C20A66622F00202E66659
:101D600026673046A4F87C2015E794F87620002AF0
:101D70007FF442AF94F8782012F00F018CD0130654
:101D8000204668D401F074FA94F8743084E735B9C9
:101D900004F17C0202202567A266E066FBE6012DC5
:101DA0007FF42AAF2F4AA26602200022E066226753
:101DB000F1E6626894F8790094F87830556894F800
:101DC000771094F8762043EA00232046A84700289D
:101DD0003FF412AF09C82667A366E06694F8743032
:101DE000D9E694F87620012A7FF406AFB4F87C2077
:101DF000A66642F00202E66626673046A4F87C201A
:101E0000C9E694F8781011F0800F204601F00F0118
:101E100010D101F07DF9012810D002287FF4ECAE3A
:101E2000114BA366E066266794F87430B3E604228B
:101E3000227080E701F07CF90128EED10B4BA366FC
:101E4000E5662667284694F87430A4E601F048FA5F
:101E500094F8743020E701F01BFA94F874301BE713
:101E6000511900085039000860390008A03A0008EC
:101E700038B590F86430022B044647D0052B3ED08D
:101E8000012B10D0002101F003FA2046002101F0BF
:101E9000EFF963681B6813B12046052198470623B4
:101EA00084F8643038BD90F87B1090F87A30C26EB8
:101EB00043EA01239342C36805D9198AB2FBF1F5BD
:101EC00001FB152222B39A690321002384F86410D0
:101ED000204619461370D3605360936001F058F99F
:101EE000202383F31188FEF703FC00212046FFF72F
:101EF000E7FDFEF715FC002383F3118838BD036F5F
:101F000003B19847002384F8643038BDC368DAE72A
:101F10005B6911461A70DA605A609A6001F048F9FC
:101F2000202383F31188FEF7E3FB00212046FFF70F
:101F3000E7FDFEF7F5FB002383F31188022384F805
:101F4000643038BDAFF30080AFF30080AFF30080A2
:101F500090F86430032B10B504462FD0042B11D019
:101F60002046002101F094F92046002101F080F97B
:101F700063681B6813B1204605219847062384F83F
:101F8000643010BDC3685A690521002380F86410CD
:101F900019461370D3605360936001F009F9202350
:101FA00083F31188FEF7A4FB00212046FFF7A8FD6C
:101FB000FEF7B6FB002383F3118810BDC3689B694D
:101FC0009B68002BCCD1036F03B19847002384F8A2
:101FD000643010BDAFF30080AFF30080AFF300803A
:101FE00008B5FEF7BDFB084B084A196801F00F0160
:101FF000596013680BB150689847FEF7D1FBBDE8F4
:102000000840FEF7F5B900BF00000240840D002033
:1020100010B5FEF7A5FB084B084819688268C1F3A4
:1020200003110C015C600AB1C0689047FEF7B8FB71
:10203000BDE81040FEF7DCB900000240840D00202E
:1020400010B5FEF78DFB084B084819680269C1F30B
:1020500003210C025C600AB140699047FEF7A0FBC7
:10206000BDE81040FEF7C4B900000240840D002016
:1020700010B5FEF775FB084B084819688269C1F373
:1020800003310C035C600AB1C0699047FEF788FB1E
:10209000BDE81040FEF7ACB900000240840D0020FE
:1020A00010B5FEF75DFB084B08481968026AC1F3DA
:1020B00003410C045C600AB1406A9047FEF770FB74
:1020C000BDE81040FEF794B900000240840D0020E6
:1020D00010B5FEF745FB084B08481968826AC1F342
:1020E00003510C055C600AB1C06A9047FEF758FBCB
:1020F000BDE81040FEF77CB900000240840D0020CE
:1021000010B5FEF72DFB084B08481968026BC1F3A8
:1021100003610C065C600AB1406B9047FEF740FB20
:10212000BDE81040FEF764B900000240840D0020B5
:1021300008B5FEF715FB084B08481968826B01F0DB
:102140000F0159600AB1C06B9047FEF729FBBDE84B
:102150000840FEF74DB900BF00040240840D002086
:1021600010B5FEF7FDFA084B08481968026CC1F378
:1021700003110C015C600AB1406C9047FEF710FB44
:10218000BDE81040FEF734B900040240840D002081
:1021900010B5FEF7E5FA084B08481968826CC1F3E0
:1021A00003210C025C600AB1C06C9047FEF7F8FA9C
:1021B000BDE81040FEF71CB900040240840D002069
:1021C00010B5FEF7CDFA084B08481968026DC1F347
:1021D00003310C035C600AB1406D9047FEF7E0FAF2
:1021E000BDE81040FEF704B900040240840D002051
:1021F00010B5FEF7B5FA084B08481968826DC1F3AF
:1022000003410C045C600AB1C06D9047FEF7C8FA48
:10221000BDE81040FEF7ECB800040240840D002039
:102220000B4B30B400220B4D0B4C1A601146134679
:10223000E8580C33902B0160A15002F10802F7D14D
:102240000649074A4FF0FF334B6030BC536070477C
:10225000E40D0020003B0008840D00200000024037
:1022600000040240AFF30080AFF30080AFF30080C2
:102270002DE9F041044684B000283AD0224E657A18
:102280003768012000FA05FC1CEA070F2AD11F4815
:1022900000EBC5084CEA070740F83520C8F80430C1
:1022A0007B06376004D01A4B586940F00100586132
:1022B00017F4786F04D0164B586940F0020058614B
:1022C000236860681D6825F00F051D60257A0F26BC
:1022D000AE40002506601D603AB1A07A0901FEF704
:1022E000EFF8284604B0BDE8F081104604B0BDE820
:1022F000F0810848039102920193FEF7D1FA019B05
:10230000029A0399BAE700BFE40D0020840D002073
:1023100000100240B03A0008AFF30080AFF3008035
:10232000F8B5244B24491A69244DDFF8A0E0244C69
:10233000244800224FF0FF361E6107271A61D3F8A8
:102340000CC0DE60DA60C1F804E08A600F60E96802
:1023500041F08071E960216841F001012160D96993
:1023600041F08051D961016841F480710160196ABE
:1023700001F44071B1F5007F03D04FF48031196250
:102380001A620C4B1A6A120407D41A6A42F40072D9
:102390001A621A6A42F400421A62FFF741FF054AC4
:1023A000094B916941F0010191611A6842F02002E4
:1023B0001A60F8BD0010024010E000E0F0ED00E00F
:1023C000001000E000700040000001403F190100D3
:1023D00021490B6843F001030B600B681E4A980704
:1023E000FBD51168002301F0F9011160114653601B
:1023F0004B68194A13F00C0FFAD1136843F4803379
:10240000136011460B68144A9B03FBD5536A43F0D3
:102410000103536211464B6A0F4A9807FBD50F4BD5
:1024200053604FF404513023D1621363136843F0B7
:1024300080731360136808499B01FBD5084B122277
:102440001A604B6843F002034B604B6803F00C03C7
:10245000082BFAD1704700BF0010024000241D0075
:1024600000200240AFF30080AFF30080AFF30080A4
:10247000F8B5114D114C124E2846FEF751FF114B85
:10248000AB6242F28A574FF0A04350211220EB6218
:102490002E636F63FEF714F82046FEF741FF843683
:1024A000094B0A4A67632663A262E3622F20502128
:1024B000BDE8F840FEF704B8E80D0020200E00202B
:1024C000003B0008000300500004005000070050CB
:1024D000F8B50378012B044600D0F8BD294B98428B
:1024E0003AD0294B98422AD0226BE36A1068A56A39
:1024F00003F140074FF0805200214FF4803687608F
:10250000AE604FF4347099609A60FEF7E1FEE26AC3
:102510009368B3F1805F03D01C48FEF7C1F9E26A0B
:10252000936843F0004393609368002BFCDB93684F
:1025300043F0010393601368DB07FCD5F8BD006B23
:10254000134A05212346FFF793FE90B9114B5A69B0
:1025500042F000525A61C7E7006B0D4A052123463D
:10256000FFF786FE48B90B4B5A6942F080525A6118
:10257000BAE70948FEF794F9E8E70848FEF790F94A
:10258000F1E700BFE80D0020200E0020B83B000856
:102590006128000800100240A43B0008903B00089E
:1025A0002DE9F00F856A0269AF6851691678D46821
:1025B000436B07F4703848EA0108002E40D0D0F889
:1025C0000CC044F40054BCF1010F44F0030494BF68
:1025D00043F0200343F02403016B568809688768A1
:1025E000CF6006FB0CF74F600B60D1F800A0C36A08
:1025F000D2F820B0D2F81090D769D2F818C0506A3B
:102600004AF0010AC1F800A0C5F808801D68916A67
:10261000D26A1D60013E902546EA0B065D60C3F854
:102620002090C3F814C09F611E6358639963DA63F6
:10263000DC609A6842F004029A60BDE8F00F7047CF
:1026400044F4005444F00104D0F80CC0C4E700BFC7
:10265000036B1A68596830B4156825F00F051560CA
:102660001B7A0F2404FA03F30B60C26A93685907BC
:1026700006D5936843F0100393609368DB06FCD49F
:1026800030BC7047AFF30080AFF30080AFF3008041
:1026900038B5036904460D463BB1CB0606D429067E
:1026A00030D4EA0556D4AB057CD438BD036B1B6827
:1026B0005B68002BF3D0FFF7CBFF23699B684BB11E
:1026C000052222702046012198472378052B04BF5C
:1026D0000223237000232361202383F31188FEF754
:1026E00007F863693BB100214FF0FF326161184682
:1026F0009A62FEF755F9FEF713F8002383F3118869
:102700002906CED52046FFF7A3FF23699B684BB16E
:10271000052222702046022198472378052B04BF0A
:102720000223237000232361202383F31188FDF704
:10273000DFFF63693BB100214FF0FF326161184652
:102740009A62FEF72DF9FDF7EBFF002383F3118862
:10275000EA05A8D52046FFF77BFF23699B684BB1AC
:10276000052222702046032198472378052B04BFB9
:102770000223237000232361202383F31188FDF7B4
:10278000B7FF63693BB100214FF0FF32616118462A
:102790009A62FEF705F9FDF7C3FF002383F3118862
:1027A000AB0582D52046FFF753FF23699B684BB1E9
:1027B000052222702046042198472378052B04BF68
:1027C0000223237000232361202383F31188FDF764
:1027D0008FFF63693BB100214FF0FF326161184602
:1027E0009A62FEF7DDF8FDF79BFF002383F3118863
:1027F00038BD00BFAFF30080AFF30080AFF30080BF
:1028000008B5FDF7ADFF4FF0A04305481968196002
:10281000FFF73EFFFDF7C4FFBDE80840FDF7E8BD48
:10282000E80D0020AFF30080AFF30080AFF300802D
:1028300008B5FDF795FF064B064819681960FFF7C4
:1028400027FFFDF7ADFFBDE80840FDF7D1BD00BF94
:1028500000040050200E0020AFF30080AFF3008092
:1028600038B50B0704461DD40369D3B18D0710D5C5
:102870001D78002D3FD05D689DB1C268012A37D90F
:1028800059888368520801FB02F103EB4101A84714
:1028900038BD4A0705D55B681BB1C268816852081C
:1028A000984738BDFFF7D4FE23699B684BB10522DA
:1028B00022702046002198472378052B04BF02236D
:1028C000237000232361202383F31188FDF710FF79
:1028D00063693BB100214FF0FF32616118469A6293
:1028E000FEF75EF8FDF71CFF002383F3118838BD67
:1028F0008168A84738BDFFF7ABFE23695B68DBB191
:10290000042222702046A168E26898472378042BAD
:102910000ED0202383F31188FDF7EAFE6369002BB4
:10292000E0D00022626118469A62FEF739F8D9E7D2
:10293000022325612370ECE7022223612270E8E77D
:10294000F0B4364E364D7769364C3749374A384BF6
:1029500047F4FC0777614FF09046476877608768D7
:10296000B760C768F7600769776147693762876949
:10297000776207683760066A6E60466AAE60866A8C
:10298000EE60C66A6E61066B2E62466B6E62C66949
:102990002E60C56B6560056CA560456CE560856C57
:1029A0006561C56C2562056D6562856B2560846D0A
:1029B0004C60C46D8C60046ECC60446E4C61846E5F
:1029C0000C62C46E4C62446D0C60416F5160816F4B
:1029D0009160C16FD160D0F880105161D0F884103F
:1029E0001162D0F888105162016F1160D0F8902008
:1029F0005A60D0F894209A60D0F89820DA60D0F825
:102A00009C205A61D0F8A0201A62D0F8A4205A6203
:102A1000D0F88C201A60F0BC704700BF0010024054
:102A20000004004800080048000C0048001000485E
:102A300000140048AFF30080AFF30080AFF30080D4
:102A40002DE9F00F002302F00307C2F38006C2F362
:102A5000C105C2F341144FF00F09C2F3C3124FF086
:102A6000010A38E0D0F820B02BEA0C0C4CEA080838
:102A7000C0F82080D0F804C00AFA03F82CEA080C49
:102A80004CEA060CC0F804C04FF0030B4FEA430CAD
:102A9000D0F808800BFA0CFC6FEA0C0C0CEA080862
:102AA00048EA0508C0F80880D0F80C800CEA08084D
:102AB00048EA0408C0F80C80D0F800800CEA080C42
:102AC0004CEA070CC0F800C049081AD07600AD00E7
:102AD000A400BF00013303F0070C4FEA8C0C11F087
:102AE000010F02FA0CF809FA0CFCEDD0072BB9D94A
:102AF000D0F824B02BEA0C0C4CEA0808C0F824806B
:102B0000B8E7BDE8F00F7047AFF30080AFF3008087
:102B1000036803F1005C2DE9F0410CF5405C93B2D1
:102B20005FEA52080C464FEA4C0C838018D00E69BD
:102B300065464146A069431C9E42A36198BFE36875
:102B40000778581CA0611B7886429CBFE068A06192
:102B500047EA0323013945F8043BEBD10CEB880C21
:102B6000D3070BD5A16920694B1CA3618342097867
:102B700028BFE368CCF8001028BFA361202383F3AB
:102B80001188A36820680C4E1A440121A042A2605B
:102B9000316018BF002508D0036823605C60FDF732
:102BA000FFFE85622068A042F6D10023336083F3E4
:102BB0001188BDE8F08100BF240D0020AFF3008034
:102BC00008B5FDF7CDFDFDF7EBFDBDE80840FDF7CD
:102BD0000FBC00BFAFF30080AFF30080AFF3008005
:102BE0002DE9F04F83B0FDF7BBFD924B5E6C710594
:102BF00000F19F81320511D5DFF83CB28D4BDBF837
:102C00000420196C126841F00801196412B1584689
:102C100003219047874B6FF400625A64F30408D590
:102C2000844B9A6C170440F17481824B6FF480528C
:102C30005A64B5050BD5DFF800B2DBF80430DB6869
:102C40000BB1584698477B4B6FF400725A643404BA
:102C500040F1BF80DFF8E0B106F00F064FEA8609C9
:102C600009F1804505F5B84506F102082C680BEB23
:102C7000880320065F685BD52B686E48796923F46A
:102C8000F14323F070032B60026D8B68486802F1FA
:102C9000005202F540524FEAC60E72445200B2F89A
:102CA00004C01FFA8CFC63448B60C31A00F0B3802D
:102CB0003A8A0878934238BF1A46002840F01C81AF
:102CC000C8686044C8605B490B6D03F1005303F5AD
:102CD000405373445B001FFA82FE1968A3F804E0B6
:102CE00001F10051531C01F540515B084FEA4101CD
:102CF00006D0821E32F8020F41F8040B013BF9D1D5
:102D0000202383F3118809F1804909F5B849FDF7BB
:102D1000EFFCD9F8003023F4F04323F0400383F0B4
:102D20003003C9F80030FDF7FBFC002383F3118862
:102D3000210447D52B6823F4784323F07003220540
:102D40002B605FD43B48BC69036D227803F10053CC
:102D500003F5405303EBC6035B00B3F80CE01FFA26
:102D60008EFECEF30909002A68D19968E26801F164
:102D7000005109F1010301F540515B084FEA41019F
:102D800006D051F8040B22F8020B013BF9D1E2689E
:102D90004A44E26023461A8A7C8A98685968013A54
:102DA00092B24844C9EB0101A1451A82986059606A
:102DB00016D3AAB12B6823F4904323F0700383F455
:102DC00040532B60DFF86CE0DEF8446033043FF5DD
:102DD00043AFFDF7E5FC03B0BDE8F04FFDF708BBDE
:102DE0000BEB8808BBF80A20D8F804301248DB68DF
:102DF000012404FA06F122EA0102ABF80A20314666
:102E00009847DFE70BEB88083146D8F804300A48CA
:102E10005B689847D6E7084B07481A89BB684FF0AC
:102E2000010E0EFA06F122EA0102028131469847AC
:102E30007EE700BF005C0040580E00209B68E468FD
:102E400003F1005303F540535B005FEA590100931F
:102E5000019121D000980B46626950F8041B02F1E1
:102E6000010AC4F814A0117022694FEA112C61699B
:102E7000914228BFE1684A1C626181F800C0226962
:102E80006169914224BFE2686261013BE4D19DE83F
:102E90000C0002EB830200921EF0010F0DD063695B
:102EA000DDF800E0591CDEF8002061611A7023692A
:102EB00062699A4224BFE3686361202383F3118827
:102EC000FDF716FCA36820684B44A042A36018BF1E
:102ED0004FF0000A09D0036823605C60FDF760FDD5
:102EE000C0F828A02068A042F5D1FDF719FC002306
:102EF00083F31188BB694EE71648C968036D03F177
:102F0000005303F5405303EB0E004000FFF700FEB3
:102F1000F6E6DFF844B0196CDBF80420126821F003
:102F200008011964002A3FF480AE584604219047F6
:102F30007BE6DFF824B05846FEF702FEDBF80430EB
:102F40001B6813B1584600219847024B6FF480620A
:102F50005A644FE6005C0040580E0020AFF300803A
:102F60000148FEF715BD00BF580E0020AFF30080EA
:102F700038B50378012B044600D038BD0C4A904286
:102F800004D02046BDE83840FEF7DABD094A0A4DB4
:102F9000D16941F40001D1614A202B64D021FDF7B1
:102FA0008FFA4B20E021FDF78BFA00232B64E8E732
:102FB000580E002000100240005C0040AFF300807B
:102FC00090F87E20024B42F08002DA64704700BF26
:102FD000005C0040AFF30080AFF30080AFF30080EF
:102FE00000EB81032DE9F041DC68236803F0030363
:102FF000013B022B9CBF314A32F81330A2680546D0
:1030000088BF4FF400730AB143F02003E2680AB1AD
:1030100043F400538A0002F1804243EA010002F5C2
:10302000B84220F4F04020F0700010601668678A03
:1030300047F67000184070403E2F106007F1FF32D5
:103040002DD942F01F02013252116FEAC2626FEABB
:10305000524292B21A4BD5F880801E6D238A06F137
:10306000005606F5405606EBC106760043440021A3
:10307000B3F5007FB180B281C5F8803018D8C6F8AA
:103080000080D5F880402744B7F5007FC5F88070F0
:1030900002D90C48FDF704FCB460BDE8F08142F0B1
:1030A0000102013202EBD272520202F47C42D1E7F9
:1030B0000448FDF7F5FB678AE1E700BFF03B000835
:1030C000005C0040D03B0008AFF30080AFF300800D
:1030D00041680D4BC968F0B400294FF000040B4D56
:1030E0001C6514BF4FF41E474FF41C4740264FF099
:1030F000800C5C642146C3F84CC01F64C0F880603B
:10310000C560F0BCFFF76CBF005C0040003C0008ED
:10311000054B53F8210010F4405004D0B0F5805F07
:103120000CBF012002207047005C0040AFF300801C
:10313000054B53F8210010F0300003D010280CBFCD
:1031400001200220704700BF005C0040AFF3008008
:103150000B4B1B6D03F1005303F5405303EBC1010F
:103160004B0002F108009B6803F1005303F5405344
:103170005B0053F8041B22F8021B8242F9D170470E
:10318000005C0040AFF30080AFF30080AFF300803D
:1031900000EB8101C9688B695A6832B1498A013AEA
:1031A0000A44B2FBF1F11982704701221A8270477A
:1031B00000EB810010B4C36858691A8A43680C4652
:1031C00001789A4228BF1A46164BF1B9C168186DAA
:1031D00000F1005000F5405000EBC404640093B2CD
:1031E0002068A38000F10050531C00F540505B089C
:1031F0004FEA400206D0023931F8020F42F8040BC0
:10320000013BF9D15DF8044B70471B6DC16803F1B8
:10321000005303F5405303EBC40040005DF8044B3A
:10322000FFF776BC005C0040AFF30080AFF3008096
:10323000890001F1804101F5B8410B6823F4904306
:1032400023F0700383F440530B607047AFF30080AA
:10325000890001F1804101F5B8410B6823F4F04386
:1032600023F0400383F030030B607047AFF300801E
:10327000890001F1804101F5B8410B6823F49043C6
:1032800023F0700383F480530B607047AFF300802A
:10329000890001F1804101F5B8410B6823F4F04346
:1032A00023F0400383F010030B607047AFF30080FE
:1032B000890001F1804101F5B8410B6803F44053E6
:1032C000B3F5405F07D00B6823F4F04323F04003CD
:1032D00083F400530B607047AFF30080AFF30080BE
:1032E000890001F1804101F5B8410B6803F030031A
:1032F000302B07D00B6823F4F04323F0400383F016
:1033000020030B60704700BFAFF30080AFF3008075
:10331000FFF75EB8AFF30080AFF30080AFF300803B
:10332000704700BFAFF30080AFF30080AFF30080C1
:10333000014B1B60704700BFF80E0020AFF3008008
:10334000044B8B420CBF044B044B19680A441A60AF
:10335000704700BF1C0F002084120020881200203C
:10336000704700BFAFF30080AFF30080AFF3008081
:10337000022906D0032906D00748012918BF0020DA
:10338000704706487047032A03D8054800EBC2007F
:1033900070470020704700BF103E0008C03E000884
:1033A000F03D0008AFF30080AFF30080AFF3008082
:1033B00008B5094B094A9B69094C9A614FF40055BD
:1033C0002E4626834FF4FA70FDF7EAFC65834FF42E
:1033D000FA70FDF7E5FCF4E73C0D0020D03E000854
:1033E00000100048AFF30080AFF30080AFF300801F
:1033F000022910B5044616D1202383F31188FDF766
:1034000077F920460121084AFEF702FB0221074A0C
:103410002046FEF7FDFA0648FEF77AF9FDF780F937
:10342000002383F3118810BDE03E0008403D0008F2
:103430001C100020AFF30080AFF30080AFF30080DA
:10344000F0B4840743D0541E002A3ED0CDB20346C8
:1034500003E0621E002C38D0144603F8015B9A0783
:10346000F7D1032C2AD9CDB245EA05250F2C45EA20
:10347000054515D9A4F110073F0903F1100606EB25
:1034800007161A46156055609560D5601032B24235
:10349000F8D104F00F040137032C03EB07130DD907
:1034A0001E462246043A032A46F8045BFAD8221F35
:1034B00022F003020432134404F003042CB1C9B215
:1034C0001C4403F8011BA342FBD1F0BC7047144617
:1034D0000346C6E7000000000000000000000000F6
:1034E00069646C650000000000000000000000003E
:1034F00053562331000000005356233200000000D1
:1035000053562333000000005356233400000000BC
:1035100053562335000000005356233600000000A8
:103520005356233700000000535623380000000094
:103530005356233900000000535623313000000059
:10354000535623313100000000000000000000004D
:1035500022636856545365744922282900000000EC
:103560002263685654526573657449222829000005
:103570006368565452657365744928292C20233199
:10358000000000000000000000000000000000003B
:10359000636853636852656164794928292C202344
:1035A00031000000737461636B206F766572666C26
:1035B0006F77000000000000000000000000000025
:1035C00022636854686443726561746549222829DE
:1035D0000000000022636854686453657450726987
:1035E0006F726974792228290000000063685468AA
:1035F00064526573756D6528292C20233100000005
:10360000226368546864536C656570222829000041
:103610006368546864457869745328292C202331E1
:1036200000000000226368546864576169742228AE
:103630002900000063685468645761697428292C64
:103640002023310063685468645761697428292C09
:1036500020233200000000000000000000000000F5
:103660006D61696E0016C01104044C080C1014182A
:103670001C20212223240000000000000000000084
:103680002263684D7478496E69742228290000000D
:103690002263684D74784C6F636B532228290000B5
:1036A00063684D74784C6F636B5328292C20233149
:1036B0000000000063684D74784C6F636B532829D9
:1036C0002C202332000000002263684D747854726D
:1036D000794C6F636B5322282900000063684D7496
:1036E00078556E6C6F636B28292C20233100000005
:1036F00063684D7478556E6C6F636B28292C20239A
:103700003200000063684D7478556E6C6F636B53C4
:1037100028292C202331000063684D7478556E6C85
:103720006F636B5328292C20233200000000000017
:1037300022636845767452656769737465724D617A
:10374000736B222829000000226368457674556E49
:10375000726567697374657222282900226368455F
:1037600076745369676E616C492228290000000055
:1037700022636845767442726F6164636173744D4D
:1037800061736B4922282900226368457674536966
:10379000676E616C2228290022636845767444694B
:1037A000737061746368222829000000636845769D
:1037B00074446973706174636828292C2023310074
:1037C00022636849515265616454696D656F75740F
:1037D000222829002263684F515772697465546921
:1037E0006D656F757422282900000000000000003C
:1037F00022616463537461727422282900000000FE
:10380000616463537461727428292C202331000091
:103810002261646353746F702228290061646353CA
:10382000746F7028292C202331000000226164630A
:103830005374617274436F6E76657273696F6E490B
:10384000222829006164635374617274436F6E7639
:10385000657273696F6E4928292C2023310000009E
:103860002261646353746F70436F6E76657273691F
:103870006F6E22282900000061646353746F7043E7
:103880006F6E76657273696F6E28292C2023310064
:103890002261646353746F70436F6E7665727369EF
:1038A0006F6E49222829000061646353746F70436E
:1038B0006F6E76657273696F6E4928292C202331EB
:1038C00000000000616463436F6E7665727428299E
:1038D0002C20233100000000226164634163717574
:1038E00069726542757322282900000022616463B1
:1038F00052656C656173654275732228290000006A
:1039000022736475537461727422282900000000C8
:10391000736475537461727428292C20233100005C
:1039200073647553746F7028292C202331000000B4
:1039300001160008E11500084116000821160008CC
:103940003116000811160008F1150008D1150008FD
:103950000000000000000000000000000000000067
:103960000000000000000000000000000000000057
:10397000227573625374617274222829000000005A
:10398000757362537461727428292C2023310000EE
:103990002275736253746F70222829007573625305
:1039A000746F7028292C2023310000002275736267
:1039B000496E6974456E64706F696E744922282976
:1039C00000000000757362456E61626C65456E644F
:1039D000706F696E744928292C2023310000000083
:1039E000757362456E61626C65456E64706F696E79
:1039F000744928292C2023320000000022757362AC
:103A000044697361626C65456E64706F696E74734E
:103A100049222829000000007573624469736162BD
:103A20006C65456E64706F696E74734928292C202B
:103A3000233100002275736253746172745265639E
:103A400065697665492228290000000022757362A5
:103A500053746172745472616E736D697449222873
:103A600029000000227573625374616C6C526563A7
:103A70006569766549222829000000002275736275
:103A80005374616C6C5472616E736D697449222851
:103A900029000000000000000000000000000000FD
:103AA0000100000000000000000000000000000015
:103AB00022646D6153747265616D416C6C6F6361FA
:103AC000746522282900000022646D6153747265B8
:103AD000616D52656C6561736522282900000000E4
:103AE000646D6153747265616D52656C6561736577
:103AF00028292C20233100000000000000000000D5
:103B0000080002400400024000000B001C000240BC
:103B10000400024004010C00300002400400024096
:103B200008020D0044000240040002400C030E0095
:103B3000580002400400024010040F006C000240D4
:103B400004000240140510008000024004000240FE
:103B5000180611000804024004040240000738005F
:103B60001C040240040402400408390030040240EE
:103B70000404024008093A004404024004040240DC
:103B80000C0A3B005804024004040240100B3C00A5
:103B90006164635F6C6C645F737461727428292C58
:103BA000202331006164635F6C6C645F73746172C5
:103BB0007428292C202332006164635F6C6C645F7D
:103BC00063616C69627261746528292C202331005D
:103BD0007573625F706D5F616C6C6F6328292C2058
:103BE0002331000000000000000000000000000081
:103BF00000040000000600000000000000000000BB
:103C000000000000711B0008711E0008511F000811
:103C100040004000DC0E0020DC0E0020010000000F
:103C2000F00E002000000000000000000000000076
:103C300000A8802A0000000000FCC03C541115645C
:103C4000FFFF00000000505500E00E0080A00000C3
:103C5000C0000000C0F0000015055555FFFF000032
:103C60000000004400000000000000000000000010
:103C7000000000F055555505FFFF00000000000052
:103C80000000000000000000000000000000000034
:103C900055555555FFFF00000000000000000000D2
:103CA0004000555500000000C000FFFF15551501EC
:103CB000FF00000000000000000000000000000005
:103CC000000000000F00000050555555FFFF000098
:103CD00000000000000000000000000000000000E4
:103CE00009024300020100C032090400000102027F
:103CF0000100052400100105240100010424020232
:103D00000524060001070582030800FF09040100DD
:103D1000020A0000000705010240000007058102B9
:103D20004000000000000000000000000000000053
:103D3000040309040000000000000000000000006F
:103D40000300000000000000B1180008000000009F
:103D500010000000741200200000000001000000AC
:103D60000000000000000000000000000000000053
:103D70003803430068006900620069004F00530087
:103D80002F00520054002000560069007200740099
:103D9000750061006C00200043004F004D002000C2
:103DA00050006F007200740000000000000000006E
:103DB000080332003700300000000000000000005F
:103DC0002603530054004D006900630072006F0029
:103DD00065006C0065006300740072006F006E0087
:103DE0006900630073000000000000000000000094
:103DF00004000000303D000826000000C03D00081F
:103E000038000000703D000808000000B03D0008C8
:103E100012000000A03E00080000000000000000AA
:103E200000000200000000006133000800000000F4
:103E30000000FF0F00000000000000000000000074
:103E4000C081000000000000000000000000000031
:103E50000100080041330008613300080000000041
:103E60000000FF0F00008001000080040000B4008B
:103E7000C0811C080702450000000000000000008F
:103E8000580E0020010102000000000000000000A8
:103E9000F1330008713300086117000800000000CA
:103EA0001201100102000040830440570002010289
:103EB00003010000000000000000000000000000FE
:103EC00043000000E03C000800000000000000008B
:103ED000626C696E6B6572000000000000000000FB
:103EE0000200000000000000A117000831180008BF
:103EF00040004000A01200208C12002001000000B1
:043F000000000000BD
:083F0800009600000000080013
:04000005080002717C
:00000001FF
