:020000040800F2
:1000000000040020410200084103000841030008E9
:1000100041030008410300084103000841030008B0
:100020004103000841030008410300087103000870
:10003000410300084103000841030008310400089F
:100040004103000841030008410300084103000880
:100050004103000841030008410300084103000870
:10006000410300084103000841030008A1110008F2
:10007000D1110008011200083112000861120008B5
:1000800091120008C1120008C119000841030008BC
:100090004103000841030008410300084103000830
:1000A0004103000841030008410300084103000820
:1000B0004103000841030008410300084103000810
:1000C0004103000841030008410300084103000800
:1000D00041030008410300084103000841030008F0
:1000E00041030008410300084103000841030008E0
:1000F000410300084103000841030008F11900080A
:1001000041030008410300084103000841030008BF
:1001100041030008410300084103000841030008AF
:10012000F112000821130008511300088113000880
:10013000B11300084103000841030008410300080F
:10014000410300084103000841030008410300087F
:10015000410300084103000841030008410300086F
:10016000410300084103000841030008410300085F
:10017000410300084103000841030008410300084F
:080180004103000841030008DF
:1001900000B583B000F0A4FE002400F0C9F91748B0
:1001A0000621032201F02CFD154B009440224FF450
:1001B0009871144800F0A4FD2146134800F0D8FEC1
:1001C0001249134A1048082300F072FF4FF47A7066
:1001D00000F0CEFD0C480F490F4A102300F020FF1D
:1001E0004FF0904403E04FF4FA7000F0C1FD236932
:1001F000DB07F8D5044800F02BFFF4E700080048BF
:10020000211D0008500E0020E00D00209022000863
:10021000880F0020C0220008A80F0020AFF3008044
:10022000704700BFAFF30080AFF30080AFF30080F2
:10023000FEE700BFAFF30080AFF30080AFF30080B4
:1002400072B6304880F30988022383F31488BFF321
:100250006F8F2D4B2D4A93420BD2D943114421F07D
:10026000030119444FF05532043B43F8042F8B42ED
:10027000FBD1274B83420CD226491A1D891A21F043
:10028000030119444FF05532043B43F8042F8B42CD
:10029000FBD101F01DFD2049204B99420BD2C843F0
:1002A000184420F003001E4C04300023E258CA50CA
:1002B00004338342FAD11B4B1B4A93420AD2D943DF
:1002C000114421F0030119440022043B43F8042F98
:1002D0008B42FBD1154D164CFFF7A2FFAC4204D266
:1002E00054F8043B9847AC42FAD3124D124CFFF736
:1002F0004FFFAC4204D254F8043B9847AC42FAD3C7
:10030000FFF796FF000800200000002000040020F6
:10031000000400200308002000080020000800203E
:10032000F822000800080020A8100020880100081A
:10033000880100088801000888010008AFF30080E8
:10034000FEE700BFAFF30080AFF30080AFF30080A3
:1003500072B6FEE7AFF30080AFF30080AFF300802A
:1003600000F076F900F03CFC00F08AF900DF00BFF5
:10037000EFF30983203383F30988002383F3118883
:10038000704700BFAFF30080AFF30080AFF3008091
:1003900008B5094B094A002199600720DA6010214D
:1003A00000F09EF80A20202100F09AF80B2080210E
:1003B000BDE8084000F094B800ED00E00003FA0545
:1003C000202383F31188164B5B6813F400631AD063
:1003D000EFF30983A3F1200282F3098811494FF05A
:1003E00080708A6943F8040C92F8230009689268C7
:1003F000896858B1914294BF0022012262B10A4A31
:1004000043F8082C704783F311887047914234BF3A
:1004100000220122002AF2D1044A43F8082C704736
:1004200000ED00E0340D0020610300086C030008BB
:1004300008B500F07DF9202383F3118800F040F91E
:1004400000F0B6F800F054F9002383F3118800F0AF
:100450008FF9BDE80840FFF7B3BF00BFAFF30080DE
:100460002DE9F04FC1F80CD0D0F80CD0BDE8F08FDA
:1004700008B500F005F9002383F311882846A0474A
:1004800000F0B6FC08BD00BFAFF30080AFF3008002
:1004900020F0030202F1604202F56142F0B4430928
:1004A00000F00304D2F80053E400FF269B00A640AE
:1004B00003F1604325EA060503F561430127A140E6
:1004C00000F01F0007FA00F045EA0104C2F80043FB
:1004D000C3F88001F0BC1860704700BFAFF3008024
:1004E00020F0030303F1604303F56D4300F00300C4
:1004F00010B4C0009A69FF24844022EA04028140BB
:100500000A439A615DF8044B704700BFAFF3008067
:10051000024B034A9B699A61FEE700BF340D00203D
:10052000601D0008AFF30080AFF30080AFF30080E0
:1005300000B583B0FFF72CFF00F00AFA00F0A0F935
:1005400000F076FC00F0BCFC00F062F940210F489E
:1005500000F056FB01210E4A0E4B80F82010C261BC
:10056000986100F05DF8002383F3118862B6094BAF
:10057000094A9B6909489A6100230093C02101221E
:10058000074B00F0BDFB03B05DF804FB0008002042
:1005900000040020340D0020E01E00085008002058
:1005A00011050008AFF30080AFF30080AFF30080C7
:1005B000F8B500F0FDF8174B9A6992F8233013B1A3
:1005C000013B82F82330516A134B01315162DA68E2
:1005D0001C6801329C42DA601AD0A768013FA7600C
:1005E000B7B91E462268E568E76053601A6000F0FC
:1005F0007FF8002383F311882069A847202383F321
:10060000118800F05DF83468034BA268002AE9D035
:10061000F8BD00BF340D0020240D0020AFF3008092
:10062000054B1B6813B9054B1B6823B1044B054AE6
:100630001A60FFF78DBE7047100900201C0D0020C6
:10064000200D0020801D0008AFF30080AFF3008074
:10065000074B1B6810B5074C0BB9236823B1064B39
:10066000064A1A60FFF774FE0123236010BD00BF25
:10067000100900201C0D0020200D0020881D0008FE
:10068000094B1B6810B5094C2BB92368002B02DD00
:100690000023236010BD064B064A1A60FFF758FE80
:1006A0000023236010BD00BF100900201C0D002096
:1006B000200D0020901D0008AFF30080AFF30080F4
:1006C000074B1B68002B10B5064C01DD236823B1D6
:1006D000054B064A1A60FFF73BFE0123236010BD5D
:1006E000100900201C0D0020200D0020981D00087E
:1006F000094B1B68002B10B5084C05DD2368002B47
:1007000002DD0023236010BD054B064A1A60FFF787
:100710001FFE0023236010BD100900201C0D0020C7
:10072000200D0020A01D0008AFF30080AFF3008073
:1007300010B5202383F31188094C2368002B02DBBA
:10074000084A12682AB1084B084A1A60FFF700FEEF
:10075000236801332360002383F3118810BD00BF99
:10076000100900201C0D0020200D0020A81D0008ED
:1007700010B5202383F31188094C2368002B02DD78
:10078000084A12682AB1084B084A1A60FFF7E0FDD0
:100790002368013B2360002383F3118810BD00BF51
:1007A000100900201C0D0020200D0020B01D0008A5
:1007B000064B1B68002B04DB054B1B68002B00DD80
:1007C0007047044B044A1A60FFF7C2BD10090020AD
:1007D0001C0D0020200D0020B81D0008AFF3008084
:1007E000064B1B6823B9064B1B68002B00DD7047C6
:1007F000044B054A1A60FFF7ABBD00BF100900208B
:100800001C0D0020200D0020C01D0008AFF300804B
:10081000034A1346402143F8081B5360704700BF4A
:1008200014090020AFF30080AFF30080AFF3008025
:100830000C4A0D495368896910B40C4CE4681C607B
:100840005960816A996090F820101973103302F58D
:1008500081618B4228BF02F1080353605DF8044BAD
:10086000704700BF14090020340D0020240D002023
:10087000014B1860FFF76CBD200D0020AFF3008026
:10088000044B4FF0FF3100225B601B609960DA601F
:10089000704700BF240D0020AFF30080AFF300804D
:1008A000F8B505460C4616461F46FFF781FFCDB149
:1008B000C6B1BCB10D492F610B68EE609A689442D5
:1008C00004D91B68A41A9A68A242FAD35A686A60CB
:1008D0008B422B605D601560AC6002D09A68141B7F
:1008E0009C60F8BD0248FFF7C3FFE3E7240D00203A
:1008F000D01D0008AFF30080AFF30080AFF300809D
:1009000010B50446FFF754FF84B1E36893B1236840
:100910000A4A934203D09968A2680A449A606268BE
:100920001360236800215A60E16010BD0448FFF79E
:100930009FFFEAE70348FFF79BFFE8E7240D00204D
:10094000E01D0008F01D0008AFF30080AFF3008049
:10095000034B00225B601B605B611B619A60704708
:10096000340D0020AFF30080AFF30080AFF30080C0
:1009700010B50446FFF71CFF94F820308BB10E2B06
:100980000FD00022A168094B84F820201B689A68C8
:100990008A42FBD25A686260236020465C60146021
:1009A00010BD0348FFF764FFEBE700BF340D0020E4
:1009B000101E0008AFF30080AFF30080AFF300809B
:1009C00010B52023044683F31188FFF779FE94F8CD
:1009D00020300D2B11D8DFE803F016101007100B94
:1009E000101010101010100BA36A9A6801329A6050
:1009F00094E80C001A60226853604FF0FF33A36242
:100A00002046FFF7B5FFFFF773FE002383F311883D
:100A100010BD00BFAFF30080AFF30080AFF30080E4
:100A200070B5114C0646FFF7DBFE2368A5691A680E
:100A300085F820601420012185F8230054602846A1
:100A400083F820102260A361FFF7F2FEEB69ADF19D
:100A50002402934202D90548FFF70AFFA0692946FC
:100A6000BDE87040FFF7FCBC340D0020241E0008D8
:100A700070B50C4686B00646FFF7B2FE631C12D076
:100A80000D4D0E4AAB69214601A8FFF709FF30461C
:100A9000FFF7C6FF049B13B101A8FFF731FFAB6955
:100AA000986A06B070BD044D3046FFF7B9FFAB69D8
:100AB000986A06B070BD00BF340D0020C10900085F
:100AC00070B5164D04460E46FFF78AFEA869A36866
:100AD0008268A662934213D9FFF74AFF01230646B4
:100AE00084F82030AC61FFF7A3FEF369ADF1240276
:100AF00093420AD820463146BDE87040FFF7B0BCAB
:100B00002046BDE87040FFF733BF0548FFF7B0FE51
:100B100020463146BDE87040FFF7A2BC340D0020EE
:100B2000241E0008AFF30080AFF30080AFF3008015
:100B300070B5104C2368A5691A682260142101263B
:100B40005460284683F8206085F82310A361FFF7DE
:100B50000FFF2846FFF76CFEEB69ADF124029342CC
:100B600002D90548FFF784FEA0692946BDE8704018
:100B7000FFF776BC340D0020241E0008AFF3008080
:100B800070B5154E3268B5691368AC6833600120E2
:100B900000215E6082F820001346B26185F82010C3
:100BA00000E01B689A68A242FBD85A686A602B6012
:100BB00028465D601560FFF73BFEEB69ADF124024E
:100BC000934202D90548FFF753FEB0692946BDE8B4
:100BD0007040FFF745BC00BF340D0020241E000804
:100BE000044B9B6993F823300BB1FFF7C9BFFFF7A4
:100BF0009FBF00BF340D0020AFF30080AFF3008033
:100C00002DE9F007144C416465694561002200F14B
:100C100030064FF0020A4FF014094FF0010800F1BE
:100C20004C0700F12C0C0461816080F820A0606109
:100C300080F8239080F8228080F821200264C2632B
:100C4000426282612861C76146630663C0F82CC0B6
:100C5000BDE8F007704700BF340D0020AFF30080FF
:100C60002DE9F84F04460D4617469846FFF7A0FDBC
:100C70000CB1AF2D36D81E48FFF7FAFD1D4EA5F179
:100C8000240160187269E06044F801800A994160AB
:100C900000254FF0020A4FF014094FF0010C1649DD
:100CA000016204F1300304F12C0B04F14C0884F8C8
:100CB00020A084F8215084F8239084F822C0A760F3
:100CC00026616261676474612564E5636562A5619C
:100CD00020461461C4F82CB063632363C4F81C80FD
:100CE000BDE8F88F7F2FC6D8B8F1000FC6D1C2E794
:100CF000401E0008340D002071040008AFF300808E
:100D00002DE9F04F83B080460C9F894693469A4662
:100D100000F14C050446FF2604F8016BA542FBD107
:100D200008EB0904A54204D2552605F8016BA5423B
:100D3000FBD1202383F31188FFF78AFC53465A46E0
:100D4000494600974046FFF78BFF00210446FFF716
:100D5000B7FEFFF795FC002383F31188204603B00C
:100D6000BDE8F08FAFF30080AFF30080AFF30080F9
:100D700010B5044610B90948FFF77AFD202383F324
:100D80001188FFF765FC21460620FFF771FEFFF78B
:100D900077FC002383F3118810BD00BF801E00087C
:100DA00038B5104B9C692546A06255F82C0FA84217
:100DB00006D00368E362FFF7DBFDE06AA842F8D1E2
:100DC00094F821309B0704D1636922691A61226972
:100DD00053610E20FFF724FE0348BDE83840FFF7BB
:100DE00047BD00BF340D0020901E0008AFF3008007
:100DF00010B52023044683F31188FFF729FC204611
:100E0000BDE81040FFF7CCBFAFF30080AFF3008028
:100E100010B5044620B1002364602460A36010BDB7
:100E20000148FFF725FDF6E7001F0008AFF300803B
:100E30000548064A0649074B20F0070022F0070242
:100E400008601A60704700BFAF10002000A00020AB
:100E5000540D0020500D0020AFF30080AFF3008050
:100E600010B50446FFF7A4FC074A0849136809684F
:100E7000E01D20F00700C91A884203D8184410600A
:100E8000184610BD002010BD540D0020500D00204C
:100E900010B52023044683F31188FFF7D9FB2046C1
:100EA000FFF7DEFF0446FFF7EBFB002383F3118817
:100EB000204610BDAFF30080AFF30080AFF3008099
:100EC000044B054A1A6003F1100000229A60DA60B0
:100ED000FFF79EBF580D0020910E0008AFF3008071
:100EE00008B500F0FDFA00F03BF9044800F008FEF8
:100EF00000F026F8BDE8084000F0F2BEE02100084E
:100F00000C494A68104482424B680CD29A4203D979
:100F10000023002BF7D17047984294BF0023012390
:100F2000002BF0D1F7E79A42F6D80123002BEAD143
:100F3000F1E700BF001000E0AFF30080AFF30080E6
:100F400000F076BBAFF30080AFF30080AFF300801A
:100F500000230122027043608360C3600361436128
:100F60001830FFF755BF00BFAFF30080AFF300802C
:100F700038B504460D46C0B1202383F31188FFF72E
:100F800067FB2378013BDBB2012B02D90948FFF74D
:100F90006FFC2046656000F07BFB02232370FFF7A7
:100FA0006FFB002383F3118838BD0348FFF760FC13
:100FB000E2E700BFC01F0008B01F0008AFF30080C9
:100FC000F8B504460E4617461D46FFF7F1FBCCB1B7
:100FD000C6B1BFB1012D01D0EB0713D42378022B8A
:100FE00006D0043BDBB2012B02D90848FFF740FCD6
:100FF0000323A760E560266123702046BDE8F84022
:1010000000F0AEBB0248FFF733FCE7E7042000081E
:10101000EC1F0008AFF30080AFF30080AFF3008057
:10102000F8B51C4607460E461546202383F3118863
:10103000FFF70EFB2346384631462A46FFF7C0FF2E
:10104000FFF71EFB002383F31188F8BDAFF3008088
:1010500010B5044618B3202383F31188FFF7F8FA7C
:1010600023789A1ED2B2012A03D90F48FFF700FC59
:101070002378022B0DD0204600F0CAFB60690023C4
:1010800002222361227020B163616FF00101FFF73A
:1010900017FDFFF7F5FA002383F3118810BD03480D
:1010A000FFF7E6FBD7E700BF382000082020000844
:1010B0002DE9F0411E46044688461746202383F357
:1010C0001188FFF7C5FA636913B10C48FFF7D0FB2D
:1010D0000B4D41463A4633462046FFF771FFAB6958
:1010E00063610220FFF79CFCAB699C6AFFF7C8FABA
:1010F000002383F311882046BDE8F0818420000896
:10110000340D0020AFF30080AFF30080AFF3008018
:10111000014B5B6883607047001000E0AFF3008014
:101120000B4B0C4A81685B6810B41468C2685B1A88
:101130001B1B9342836006D802695DF8044B9342FF
:1011400038BF03617047C3605DF8044B704700BF50
:10115000001000E0780D0020AFF30080AFF30080B6
:1011600010B586B00A4C0B4B0B4901934FF0FF3082
:1011700000230590236004934B68084A039301A859
:101180000292FFF7CDFF039B236006B010BD00BFA6
:10119000780D002011110008001000E02111000856
:1011A00008B5FFF7C5FA084B084A196801F00F01A6
:1011B000596013680BB150689847FFF7D9FABDE83A
:1011C0000840FFF7FDB800BF000002407C0D002082
:1011D00010B5FFF7ADFA084B084819688268C1F3EB
:1011E00003110C015C600AB1C0689047FFF7C0FAB8
:1011F000BDE81040FFF7E4B8000002407C0D00207D
:1012000010B5FFF795FA084B084819680269C1F351
:1012100003210C025C600AB140699047FFF7A8FA0D
:10122000BDE81040FFF7CCB8000002407C0D002064
:1012300010B5FFF77DFA084B084819688269C1F3B9
:1012400003310C035C600AB1C0699047FFF790FA64
:10125000BDE81040FFF7B4B8000002407C0D00204C
:1012600010B5FFF765FA084B08481968026AC1F320
:1012700003410C045C600AB1406A9047FFF778FABA
:10128000BDE81040FFF79CB8000002407C0D002034
:1012900010B5FFF74DFA084B08481968826AC1F388
:1012A00003510C055C600AB1C06A9047FFF760FA11
:1012B000BDE81040FFF784B8000002407C0D00201C
:1012C00010B5FFF735FA084B08481968026BC1F3EF
:1012D00003610C065C600AB1406B9047FFF748FA67
:1012E000BDE81040FFF76CB8000002407C0D002004
:1012F00008B5FFF71DFA084B08481968826B01F022
:101300000F0159600AB1C06B9047FFF731FABDE891
:101310000840FFF755B800BF000402407C0D0020D4
:1013200010B5FFF705FA084B08481968026CC1F3BD
:1013300003110C015C600AB1406C9047FFF718FA8A
:10134000BDE81040FFF73CB8000402407C0D0020CF
:1013500010B5FFF7EDF9084B08481968826CC1F326
:1013600003210C025C600AB1C06C9047FFF700FAE1
:10137000BDE81040FFF724B8000402407C0D0020B7
:1013800010B5FFF7D5F9084B08481968026DC1F38D
:1013900003310C035C600AB1406D9047FFF7E8F938
:1013A000BDE81040FFF70CB8000402407C0D00209F
:1013B00010B5FFF7BDF9084B08481968826DC1F3F5
:1013C00003410C045C600AB1C06D9047FFF7D0F98F
:1013D000BDE81040FEF7F4BF000402407C0D002081
:1013E0000B4B30B400220B4D0B4C1A6011461346C8
:1013F000E8580C33902B0160A15002F10802F7D19C
:101400000649074A4FF0FF334B6030BC53607047CA
:10141000DC0D0020102100087C0D0020000002409F
:1014200000040240AFF30080AFF30080AFF3008010
:101430002DE9F041044684B000283AD0224E657A66
:101440003768012000FA05FC1CEA070F2AD11F4863
:1014500000EBC5084CEA070740F83520C8F804300F
:101460007B06376004D01A4B586940F00100586180
:1014700017F4786F04D0164B586940F00200586199
:10148000236860681D6825F00F051D60257A0F260A
:10149000AE40002506601D603AB1A07A0901FEF752
:1014A000F7FF284604B0BDE8F081104604B0BDE85F
:1014B000F0810848039102920193FFF7D9F9019B4B
:1014C000029A0399BAE700BFDC0D00207C0D0020D2
:1014D00000100240C0200008AFF30080AFF300808E
:1014E000F8B5244B24491A69244DDFF8A0E0244CB8
:1014F000244800224FF0FF361E6107271A61D3F8F7
:101500000CC0DE60DA60C1F804E08A600F60E96850
:1015100041F08071E960216841F001012160D969E1
:1015200041F08051D961016841F480710160196A0C
:1015300001F44071B1F5007F03D04FF4803119629E
:101540001A620C4B1A6A120407D41A6A42F4007227
:101550001A621A6A42F400421A62FFF741FF054A12
:10156000094B916941F0010191611A6842F0200232
:101570001A60F8BD0010024010E000E0F0ED00E05D
:10158000001000E000700040000001403F19010021
:1015900021490B6843F001030B600B681E4A980752
:1015A000FBD51168002301F0F90111601146536069
:1015B0004B68194A13F00C0FFAD1136843F48033C7
:1015C000136011460B68144A9B03FBD5536A43F022
:1015D0000103536211464B6A0F4A9807FBD50F4B24
:1015E00053604FF404513023D1621363136843F006
:1015F00080731360136808499B01FBD5084B1222C6
:101600001A604B6843F002034B604B6803F00C0315
:10161000082BFAD1704700BF0010024000241D00C3
:1016200000200240AFF30080AFF30080AFF30080F2
:10163000F8B5114D114C124E2846FFF789FC114B9D
:10164000AB6242F28A574FF0A04350211220EB6266
:101650002E636F63FEF71CFF2046FFF779FC84368C
:10166000094B0A4A67632663A262E3622F20502176
:10167000BDE8F840FEF70CBFE00D0020180E00207A
:101680001021000800030050000400500007005023
:10169000F8B50378012B044600D0F8BD294B9842D9
:1016A0003AD0294B98422AD0226BE36A1068A56A87
:1016B00003F140074FF0805200214FF480368760DD
:1016C000AE604FF4347099609A60FFF719FCE26ADB
:1016D0009368B3F1805F03D01C48FFF7C9F8E26A52
:1016E000936843F0004393609368002BFCDB93689E
:1016F00043F0010393601368DB07FCD5F8BD006B72
:10170000134A05212346FFF793FE90B9114B5A69FE
:1017100042F000525A61C7E7006B0D4A052123468B
:10172000FFF786FE48B90B4B5A6942F080525A6166
:10173000BAE70948FFF79CF8E8E70848FFF798F888
:10174000F1E700BFE00D0020180E0020C8210008BE
:10175000211A000800100240B4210008A02100084E
:101760002DE9F00F856A0269AF6851691678D4686F
:10177000436B07F4703848EA0108002E40D0D0F8D7
:101780000CC044F40054BCF1010F44F0030494BFB6
:1017900043F0200343F02403016B568809688768EF
:1017A000CF6006FB0CF74F600B60D1F800A0C36A56
:1017B000D2F820B0D2F81090D769D2F818C0506A89
:1017C0004AF0010AC1F800A0C5F808801D68916AB6
:1017D000D26A1D60013E902546EA0B065D60C3F8A3
:1017E0002090C3F814C09F611E6358639963DA6345
:1017F000DC609A6842F004029A60BDE8F00F70471E
:1018000044F4005444F00104D0F80CC0C4E700BF15
:10181000036B1A68596830B4156825F00F05156018
:101820001B7A0F2404FA03F30B60C26A936859070A
:1018300006D5936843F0100393609368DB06FCD4ED
:1018400030BC7047AFF30080AFF30080AFF300808F
:1018500038B5036904460D463BB1CB0606D42906CC
:1018600030D4EA0556D4AB057CD438BD036B1B6875
:101870005B68002BF3D0FFF7CBFF23699B684BB16C
:10188000052222702046012198472378052B04BFAA
:101890000223237000232361202383F31188FEF7A2
:1018A0000FFF63693BB100214FF0FF3261611846C1
:1018B0009A62FFF75DF8FEF71BFF002383F31188A0
:1018C0002906CED52046FFF7A3FF23699B684BB1BD
:1018D000052222702046022198472378052B04BF59
:1018E0000223237000232361202383F31188FEF752
:1018F000E7FE63693BB100214FF0FF32616118469A
:101900009A62FFF735F8FEF7F3FE002383F31188A0
:10191000EA05A8D52046FFF77BFF23699B684BB1FA
:10192000052222702046032198472378052B04BF07
:101930000223237000232361202383F31188FEF701
:10194000BFFE63693BB100214FF0FF326161184671
:101950009A62FFF70DF8FEF7CBFE002383F31188A0
:10196000AB0582D52046FFF753FF23699B684BB137
:10197000052222702046042198472378052B04BFB6
:101980000223237000232361202383F31188FEF7B1
:1019900097FE63693BB100214FF0FF326161184649
:1019A0009A62FEF7E5FFFEF7A3FE002383F311889A
:1019B00038BD00BFAFF30080AFF30080AFF300800D
:1019C00008B5FEF7B5FE4FF0A04305481968196049
:1019D000FFF73EFFFEF7CCFEBDE80840FEF7F0BC87
:1019E000E00D0020AFF30080AFF30080AFF3008084
:1019F00008B5FEF79DFE064B064819681960FFF70B
:101A000027FFFEF7B5FEBDE80840FEF7D9BC00BFD2
:101A100000040050180E0020AFF30080AFF30080E8
:101A200038B50B0704461DD40369D3B18D0710D513
:101A30001D78002D3FD05D689DB1C268012A37D95D
:101A400059888368520801FB02F103EB4101A84762
:101A500038BD4A0705D55B681BB1C268816852086A
:101A6000984738BDFFF7D4FE23699B684BB1052228
:101A700022702046002198472378052B04BF0223BB
:101A8000237000232361202383F31188FEF718FEBF
:101A900063693BB100214FF0FF32616118469A62E1
:101AA000FEF766FFFEF724FE002383F3118838BD9E
:101AB0008168A84738BDFFF7ABFE23695B68DBB1DF
:101AC000042222702046A168E26898472378042BFC
:101AD0000ED0202383F31188FEF7F2FD6369002BFB
:101AE000E0D00022626118469A62FEF741FFD9E712
:101AF000022325612370ECE7022223612270E8E7CC
:101B0000F0B4364E364D7769364C3749374A384B44
:101B100047F4FC0777614FF0904647687760876825
:101B2000B760C768F7600769776147693762876997
:101B3000776207683760066A6E60466AAE60866ADA
:101B4000EE60C66A6E61066B2E62466B6E62C66997
:101B50002E60C56B6560056CA560456CE560856CA5
:101B60006561C56C2562056D6562856B2560846D58
:101B70004C60C46D8C60046ECC60446E4C61846EAD
:101B80000C62C46E4C62446D0C60416F5160816F99
:101B90009160C16FD160D0F880105161D0F884108D
:101BA0001162D0F888105162016F1160D0F8902056
:101BB0005A60D0F894209A60D0F89820DA60D0F873
:101BC0009C205A61D0F8A0201A62D0F8A4205A6252
:101BD000D0F88C201A60F0BC704700BF00100240A3
:101BE0000004004800080048000C004800100048AD
:101BF00000140048AFF30080AFF30080AFF3008023
:101C00002DE9F00F002302F00307C2F38006C2F3B0
:101C1000C105C2F341144FF00F09C2F3C3124FF0D4
:101C2000010A38E0D0F820B02BEA0C0C4CEA080886
:101C3000C0F82080D0F804C00AFA03F82CEA080C97
:101C40004CEA060CC0F804C04FF0030B4FEA430CFB
:101C5000D0F808800BFA0CFC6FEA0C0C0CEA0808B0
:101C600048EA0508C0F80880D0F80C800CEA08089B
:101C700048EA0408C0F80C80D0F800800CEA080C90
:101C80004CEA070CC0F800C049081AD07600AD0035
:101C9000A400BF00013303F0070C4FEA8C0C11F0D5
:101CA000010F02FA0CF809FA0CFCEDD0072BB9D998
:101CB000D0F824B02BEA0C0C4CEA0808C0F82480B9
:101CC000B8E7BDE8F00F7047AFF30080AFF30080D6
:101CD000FFF75EBCAFF30080AFF30080AFF300808E
:101CE000704700BFAFF30080AFF30080AFF3008018
:101CF000044B8B420CBF044B044B19680A441A6016
:101D0000704700BFA80F0020800F0020840F002024
:101D1000704700BFAFF30080AFF30080AFF30080E7
:101D200008B5094B094A9B69094C9A614FF4005563
:101D30002E4626834FF4FA70FFF71AF865834FF4A6
:101D4000FA70FFF715F8F4E7340D0020F0220008D0
:101D500000100048AFF30080AFF30080AFF30080C5
:101D600069646C65000000000000000000000000D5
:101D70005356233100000000535623320000000068
:101D80005356233300000000535623340000000054
:101D90005356233500000000535623360000000040
:101DA000535623370000000053562338000000002C
:101DB00053562339000000005356233130000000F1
:101DC00053562331310000000000000000000000E5
:101DD0002263685654536574492228290000000084
:101DE000226368565452657365744922282900009D
:101DF0006368565452657365744928292C20233131
:101E000000000000000000000000000000000000D2
:101E1000636853636852656164794928292C2023DB
:101E200031000000737461636B206F766572666CBD
:101E30006F770000000000000000000000000000BC
:101E40002263685468644372656174654922282975
:101E5000000000002263685468645365745072691E
:101E60006F72697479222829000000006368546841
:101E700064526573756D6528292C2023310000009C
:101E8000226368546864536C6565702228290000D9
:101E90006368546864457869745328292C20233179
:101EA0000000000022636854686457616974222846
:101EB0002900000063685468645761697428292CFC
:101EC0002023310063685468645761697428292CA1
:101ED000202332000000000000000000000000008D
:101EE0006D61696E0016C01104044C080C101418C2
:101EF0001C2021222324000000000000000000001C
:101F00002263684D7478496E6974222829000000A4
:101F10002263684D74784C6F636B5322282900004C
:101F200063684D74784C6F636B5328292C202331E0
:101F30000000000063684D74784C6F636B53282970
:101F40002C202332000000002263684D7478547204
:101F5000794C6F636B5322282900000063684D742D
:101F600078556E6C6F636B28292C2023310000009C
:101F700063684D7478556E6C6F636B28292C202331
:101F80003200000063684D7478556E6C6F636B535C
:101F900028292C202331000063684D7478556E6C1D
:101FA0006F636B5328292C202332000000000000AF
:101FB0002261646353746172742228290000000056
:101FC000616463537461727428292C2023310000EA
:101FD0002261646353746F70222829006164635323
:101FE000746F7028292C2023310000002261646363
:101FF0005374617274436F6E76657273696F6E4964
:10200000222829006164635374617274436F6E7691
:10201000657273696F6E4928292C202331000000F6
:102020002261646353746F70436F6E766572736977
:102030006F6E22282900000061646353746F70433F
:102040006F6E76657273696F6E28292C20233100BC
:102050002261646353746F70436F6E766572736947
:102060006F6E49222829000061646353746F7043C6
:102070006F6E76657273696F6E4928292C20233143
:1020800000000000616463436F6E766572742829F6
:102090002C202331000000002261646341637175CC
:1020A0006972654275732228290000002261646309
:1020B00052656C65617365427573222829000000C2
:1020C00022646D6153747265616D416C6C6F636104
:1020D000746522282900000022646D6153747265C2
:1020E000616D52656C6561736522282900000000EE
:1020F000646D6153747265616D52656C6561736581
:1021000028292C20233100000000000000000000DE
:10211000080002400400024000000B001C000240C6
:102120000400024004010C003000024004000240A0
:1021300008020D0044000240040002400C030E009F
:10214000580002400400024010040F006C000240DE
:102150000400024014051000800002400400024008
:102160001806110008040240040402400007380069
:102170001C040240040402400408390030040240F8
:102180000404024008093A004404024004040240E6
:102190000C0A3B005804024004040240100B3C00AF
:1021A0006164635F6C6C645F737461727428292C62
:1021B000202331006164635F6C6C645F73746172CF
:1021C0007428292C202332006164635F6C6C645F87
:1021D00063616C69627261746528292C2023310067
:1021E00000A8802A0000000000FCC03C54111564C7
:1021F000FFFF00000000505500E00E0080A000002E
:10220000C0000000C0F0000015055555FFFF00009C
:10221000000000440000000000000000000000007A
:10222000000000F055555505FFFF000000000000BC
:10223000000000000000000000000000000000009E
:1022400055555555FFFF000000000000000000003C
:102250004000555500000000C000FFFF1555150156
:10226000FF0000000000000000000000000000006F
:10227000000000000F00000050555555FFFF000002
:10228000000000000000000000000000000000004E
:102290000000020000000000111D00080000000006
:1022A0000000FF0F00000000000000000000000020
:1022B000C0810000000000000000000000000000DD
:1022C00001000800F11C0008111D000800000000BA
:1022D0000000FF0F00008001000080040000B40037
:1022E000C0811C080702450000000000000000003B
:0822F000626C696E6B657200FF
:0400000508000241AC
:00000001FF
