:020000040800F2
:100000000004002011020008110300081103000879
:100010001103000811030008110300081103000870
:100020001103000811030008110300084103000830
:10003000110300081103000811030008010400085F
:100040001103000811030008110300081103000840
:100050001103000811030008110300081103000830
:100060001103000811030008110300081110000813
:100070004110000871100008A1100008D1100008FC
:1000800001110008311100081103000811030008D4
:1000900011030008110300081103000811030008F0
:1000A00011030008110300081103000811030008E0
:1000B00011030008110300081103000811030008D0
:1000C00011030008110300081103000811030008C0
:1000D00011030008D1170008F117000811180008D3
:1000E00011030008110300081103000811030008A0
:1000F0001103000811030008110300081103000890
:10010000110300081103000811030008110300087F
:10011000110300081103000811030008110300086F
:100120006111000891110008C1110008F1110008C7
:100130002112000811030008110300081103000830
:10014000110300081103000811030008110300083F
:10015000110300081103000811030008110300082F
:10016000110300081103000811030008110300081F
:10017000110300081103000811030008110300080F
:0801800011030008110300083F
:1001900008B500F08DFE00F0B3F90F480F4900F0EC
:1001A000A7FE4FF090404FF4007140F2823201F010
:1001B000F7F94FF090404FF4806140F2823201F045
:1001C000EFF90548064A0D2100F0BAFE4FF4FA7027
:1001D00000F0B6FDFAE700BF040E00200008002082
:1001E00050220008AFF30080AFF30080AFF300802F
:1001F000704700BFAFF30080AFF30080AFF3008023
:10020000FEE700BFAFF30080AFF30080AFF30080E4
:1002100072B6304880F30988022383F31488BFF351
:100220006F8F2D4B2D4A93420BD2D943114421F0AD
:10023000030119444FF05532043B43F8042F8B421D
:10024000FBD1274B83420CD226491A1D891A21F073
:10025000030119444FF05532043B43F8042F8B42FD
:10026000FBD101F01DFC2049204B99420BD2C84321
:10027000184420F003001E4C04300023E258CA50FA
:1002800004338342FAD11B4B1B4A93420AD2D9430F
:10029000114421F0030119440022043B43F8042FC8
:1002A0008B42FBD1154D164CFFF7A2FFAC4204D296
:1002B00054F8043B9847AC42FAD3124D124CFFF766
:1002C00067FFAC4204D254F8043B9847AC42FAD3DF
:1002D000FFF796FF00080020000000200004002027
:1002E000000400200308002000080020240800204B
:1002F0006022000828080020800E002088010008E5
:10030000880100088801000888010008AFF3008018
:10031000FEE700BFAFF30080AFF30080AFF30080D3
:1003200072B6FEE7AFF30080AFF30080AFF300805A
:1003300000F076F900F03CFC00F08AF900DF00BF25
:10034000EFF30983203383F30988002383F31188B3
:10035000704700BFAFF30080AFF30080AFF30080C1
:1003600008B5094B094A002199600720DA6010217D
:1003700000F09EF80A20202100F09AF80B2080213E
:10038000BDE8084000F094B800ED00E00003FA0575
:10039000202383F31188164B5B6813F400631AD093
:1003A000EFF30983A3F1200282F3098811494FF08A
:1003B00080708A6943F8040C92F8230009689268F7
:1003C000896858B1914294BF0022012262B10A4A61
:1003D00043F8082C704783F311887047914234BF6B
:1003E00000220122002AF2D1044A43F8082C704767
:1003F00000ED00E05C0D0020310300083C03000824
:1004000008B500F07DF9202383F3118800F040F94E
:1004100000F0B6F800F054F9002383F3118800F0DF
:100420008FF9BDE80840FFF7B3BF00BFAFF300800E
:100430002DE9F04FC1F80CD0D0F80CD0BDE8F08F0A
:1004400008B500F005F9002383F311882846A0477A
:1004500000F0B6FC08BD00BFAFF30080AFF3008032
:1004600020F0030202F1604202F56142F0B4430958
:1004700000F00304D2F80053E400FF269B00A640DE
:1004800003F1604325EA060503F561430127A14016
:1004900000F01F0007FA00F045EA0104C2F800432B
:1004A000C3F88001F0BC1860704700BFAFF3008054
:1004B00020F0030303F1604303F56D4300F00300F4
:1004C00010B4C0009A69FF24844022EA04028140EB
:1004D0000A439A615DF8044B704700BFAFF3008098
:1004E000024B034A9B699A61FEE700BF5C0D002046
:1004F000D01B0008AFF30080AFF30080AFF30080A3
:1005000000B583B0FFF72CFF00F00AFA00F0A0F965
:1005100000F076FC00F0BCFC00F062F940210F48CE
:1005200000F056FB01210E4A0E4B80F82010C261EC
:10053000986100F05DF8002383F3118862B6094BDF
:10054000094A9B6909489A6100230093C02101224E
:10055000074B00F0BDFB03B05DF804FB280800204A
:10056000000400205C0D0020501D000878080020C9
:10057000E1040008AFF30080AFF30080AFF3008028
:10058000F8B500F0FDF8174B9A6992F8233013B1D3
:10059000013B82F82330516A134B01315162DA6812
:1005A0001C6801329C42DA601AD0A768013FA7603C
:1005B000B7B91E462268E568E76053601A6000F02C
:1005C0007FF8002383F311882069A847202383F351
:1005D000118800F05DF83468034BA268002AE9D066
:1005E000F8BD00BF5C0D00204C0D0020AFF3008073
:1005F000054B1B6813B9054B1B6823B1044B054A17
:100600001A60FFF78DBE704738090020440D0020A6
:10061000480D0020F01B0008AFF30080AFF300800E
:10062000074B1B6810B5074C0BB9236823B1064B69
:10063000064A1A60FFF774FE0123236010BD00BF55
:1006400038090020440D0020480D0020F81B000848
:10065000094B1B6810B5094C2BB92368002B02DD30
:100660000023236010BD064B064A1A60FFF758FEB0
:100670000023236010BD00BF38090020440D002076
:10068000480D0020001C0008AFF30080AFF300808D
:10069000074B1B68002B10B5064C01DD236823B106
:1006A000054B064A1A60FFF73BFE0123236010BD8D
:1006B00038090020440D0020480D0020081C0008C7
:1006C000094B1B68002B10B5084C05DD2368002B77
:1006D00002DD0023236010BD054B064A1A60FFF7B8
:1006E0001FFE0023236010BD38090020440D0020A8
:1006F000480D0020101C0008AFF30080AFF300800D
:1007000010B5202383F31188094C2368002B02DBEA
:10071000084A12682AB1084B084A1A60FFF700FE1F
:10072000236801332360002383F3118810BD00BFC9
:1007300038090020440D0020480D0020181C000836
:1007400010B5202383F31188094C2368002B02DDA8
:10075000084A12682AB1084B084A1A60FFF7E0FD00
:100760002368013B2360002383F3118810BD00BF81
:1007700038090020440D0020480D0020201C0008EE
:10078000064B1B68002B04DB054B1B68002B00DDB0
:100790007047044B044A1A60FFF7C2BD38090020B5
:1007A000440D0020480D0020281C0008AFF30080F5
:1007B000064B1B6823B9064B1B68002B00DD7047F6
:1007C000044B054A1A60FFF7ABBD00BF3809002093
:1007D000440D0020480D0020301C0008AFF30080BD
:1007E000034A1346402143F8081B5360704700BF7B
:1007F0003C090020AFF30080AFF30080AFF300802E
:100800000C4A0D495368896910B40C4CE4681C60AB
:100810005960816A996090F820101973103302F5BD
:1008200081618B4228BF02F1080353605DF8044BDD
:10083000704700BF3C0900205C0D00204C0D0020DB
:10084000014B1860FFF76CBD480D0020AFF300802E
:10085000044B4FF0FF3100225B601B609960DA604F
:10086000704700BF4C0D0020AFF30080AFF3008055
:10087000F8B505460C4616461F46FFF781FFCDB179
:10088000C6B1BCB10D492F610B68EE609A68944205
:1008900004D91B68A41A9A68A242FAD35A686A60FB
:1008A0008B422B605D601560AC6002D09A68141BAF
:1008B0009C60F8BD0248FFF7C3FFE3E74C0D002042
:1008C000401C0008AFF30080AFF30080AFF300805E
:1008D00010B50446FFF754FF84B1E36893B1236871
:1008E0000A4A934203D09968A2680A449A606268EF
:1008F0001360236800215A60E16010BD0448FFF7CF
:100900009FFFEAE70348FFF79BFFE8E74C0D002055
:10091000501C0008601C0008AFF30080AFF300809B
:10092000034B00225B601B605B611B619A60704738
:100930005C0D0020AFF30080AFF30080AFF30080C8
:1009400010B50446FFF71CFF94F820308BB10E2B36
:100950000FD00022A168094B84F820201B689A68F8
:100960008A42FBD25A686260236020465C60146051
:1009700010BD0348FFF764FFEBE700BF5C0D0020EC
:10098000801C0008AFF30080AFF30080AFF300805D
:1009900010B52023044683F31188FFF779FE94F8FD
:1009A00020300D2B11D8DFE803F016101007100BC4
:1009B000101010101010100BA36A9A6801329A6080
:1009C00094E80C001A60226853604FF0FF33A36272
:1009D0002046FFF7B5FFFFF773FE002383F311886E
:1009E00010BD00BFAFF30080AFF30080AFF3008015
:1009F00070B5114C0646FFF7DBFE2368A5691A683F
:100A000085F820601420012185F8230054602846D1
:100A100083F820102260A361FFF7F2FEEB69ADF1CD
:100A20002402934202D90548FFF70AFFA06929462C
:100A3000BDE87040FFF7FCBC5C0D0020941C000872
:100A400070B50C4686B00646FFF7B2FE631C12D0A6
:100A50000D4D0E4AAB69214601A8FFF709FF30464C
:100A6000FFF7C6FF049B13B101A8FFF731FFAB6985
:100A7000986A06B070BD044D3046FFF7B9FFAB6908
:100A8000986A06B070BD00BF5C0D00209109000897
:100A900070B5164D04460E46FFF78AFEA869A36896
:100AA0008268A662934213D9FFF74AFF01230646E4
:100AB00084F82030AC61FFF7A3FEF369ADF12402A6
:100AC00093420AD820463146BDE87040FFF7B0BCDB
:100AD0002046BDE87040FFF733BF0548FFF7B0FE82
:100AE00020463146BDE87040FFF7A2BC5C0D0020F7
:100AF000941C0008AFF30080AFF30080AFF30080D8
:100B000070B5104C2368A5691A682260142101266B
:100B10005460284683F8206085F82310A361FFF70E
:100B20000FFF2846FFF76CFEEB69ADF124029342FC
:100B300002D90548FFF784FEA0692946BDE8704048
:100B4000FFF776BC5C0D0020941C0008AFF300801A
:100B500070B5154E3268B5691368AC683360012012
:100B600000215E6082F820001346B26185F82010F3
:100B700000E01B689A68A242FBD85A686A602B6042
:100B800028465D601560FFF73BFEEB69ADF124027E
:100B9000934202D90548FFF753FEB0692946BDE8E4
:100BA0007040FFF745BC00BF5C0D0020941C00089E
:100BB000044B9B6993F823300BB1FFF7C9BFFFF7D4
:100BC0009FBF00BF5C0D0020AFF30080AFF300803B
:100BD0002DE9F007144C416465694561002200F17C
:100BE00030064FF0020A4FF014094FF0010800F1EF
:100BF0004C0700F12C0C0461816080F820A060613A
:100C000080F8239080F8228080F821200264C2635B
:100C1000426282612861C76146630663C0F82CC0E6
:100C2000BDE8F007704700BF5C0D0020AFF3008007
:100C30002DE9F84F04460D4617469846FFF7A0FDEC
:100C40000CB1AF2D36D81E48FFF7FAFD1D4EA5F1A9
:100C5000240160187269E06044F801800A994160DB
:100C600000254FF0020A4FF014094FF0010C16490D
:100C7000016204F1300304F12C0B04F14C0884F8F8
:100C800020A084F8215084F8239084F822C0A76023
:100C900026616261676474612564E5636562A561CC
:100CA00020461461C4F82CB063632363C4F81C802D
:100CB000BDE8F88F7F2FC6D8B8F1000FC6D1C2E7C4
:100CC000B01C00085C0D002041040008AFF3008058
:100CD0002DE9F04F83B080460C9F894693469A4693
:100CE00000F14C050446FF2604F8016BA542FBD138
:100CF00008EB0904A54204D2552605F8016BA5426C
:100D0000FBD1202383F31188FFF78AFC53465A4610
:100D1000494600974046FFF78BFF00210446FFF746
:100D2000B7FEFFF795FC002383F31188204603B03C
:100D3000BDE8F08FAFF30080AFF30080AFF3008029
:100D400010B5044610B90948FFF77AFD202383F354
:100D50001188FFF765FC21460620FFF771FEFFF7BB
:100D600077FC002383F3118810BD00BFF01C00083E
:100D700038B5104B9C692546A06255F82C0FA84247
:100D800006D00368E362FFF7DBFDE06AA842F8D112
:100D900094F821309B0704D1636922691A612269A2
:100DA00053610E20FFF724FE0348BDE83840FFF7EB
:100DB00047BD00BF5C0D0020001D0008AFF30080A0
:100DC00010B52023044683F31188FFF729FC204641
:100DD000BDE81040FFF7CCBFAFF30080AFF3008059
:100DE00010B5044620B1002364602460A36010BDE8
:100DF0000148FFF725FDF6E7701D0008AFF30080FE
:100E00000548064A0649074B20F0070022F0070272
:100E100008601A60704700BF870E00200080002025
:100E20007C0D0020780D0020AFF30080AFF3008030
:100E300010B50446FFF7A4FC074A0849136809687F
:100E4000E01D20F00700C91A884203D8184410603A
:100E5000184610BD002010BD7C0D0020780D00202C
:100E600010B52023044683F31188FFF7D9FB2046F1
:100E7000FFF7DEFF0446FFF7EBFB002383F3118847
:100E8000204610BDAFF30080AFF30080AFF30080C9
:100E9000044B054A1A6003F1100000229A60DA60E0
:100EA000FFF79EBF800D0020610E0008AFF30080A9
:100EB00008B500F04DFA044800F0F2FA00F008F826
:100EC000BDE8084000F0F4BD90210008AFF30080B9
:100ED00000F0AEBCAFF30080AFF30080AFF3008052
:100EE000002301220270437083704360704700BF8B
:100EF00038B504460D46C8B1C1B1202383F311882B
:100F0000FFF78EFB2378013BDBB2012B02D90948A6
:100F1000FFF796FC2046656000F0CAFC02232370B0
:100F2000FFF796FB002383F3118838BD0248FFF7D3
:100F300087FCE2E7301E0008201E0008AFF30080A7
:100F400070B504460D46164600B1E9B91248FFF7E0
:100F500077FC202383F31188FFF762FB2378022BB1
:100F600002D00E48FFF76CFC6378012B0FD02946A6
:100F70003246204600F084FD01236370FFF768FBD2
:100F8000002383F3118870BD002AE2D1DEE7044814
:100F9000FFF756FCEBE700BF601E0008741E000858
:100FA000881E0008AFF30080AFF30080AFF300802D
:100FB00070B504460D461646FFF7E2FB04B19DB935
:100FC0000D48FFF73DFC2378022B02D00B48FFF7BA
:100FD00037FC6378012B0AD029463246204600F0C0
:100FE0004FFD0123637070BD002EECD1E8E704488B
:100FF000FFF726FCF0E700BF9C1E0008B01E0008AB
:10100000C81E0008AFF30080AFF30080AFF300808C
:1010100008B5FFF775FB084B084A196801F00F0186
:10102000596013680BB150689847FFF789FBBDE81A
:101030000840FFF7ADB900BF00000240A00D00203E
:1010400010B5FFF75DFB084B084819688268C1F3CB
:1010500003110C015C600AB1C0689047FFF770FB98
:10106000BDE81040FFF794B900000240A00D002039
:1010700010B5FFF745FB084B084819680269C1F332
:1010800003210C025C600AB140699047FFF758FBEE
:10109000BDE81040FFF77CB900000240A00D002021
:1010A00010B5FFF72DFB084B084819688269C1F39A
:1010B00003310C035C600AB1C0699047FFF740FB45
:1010C000BDE81040FFF764B900000240A00D002009
:1010D00010B5FFF715FB084B08481968026AC1F301
:1010E00003410C045C600AB1406A9047FFF728FB9B
:1010F000BDE81040FFF74CB900000240A00D0020F1
:1011000010B5FFF7FDFA084B08481968826AC1F369
:1011100003510C055C600AB1C06A9047FFF710FBF1
:10112000BDE81040FFF734B900000240A00D0020D8
:1011300010B5FFF7E5FA084B08481968026BC1F3D0
:1011400003610C065C600AB1406B9047FFF7F8FA48
:10115000BDE81040FFF71CB900000240A00D0020C0
:1011600008B5FFF7CDFA084B08481968826B01F003
:101170000F0159600AB1C06B9047FFF7E1FABDE873
:101180000840FFF705B900BF00040240A00D002091
:1011900010B5FFF7B5FA084B08481968026CC1F39F
:1011A00003110C015C600AB1406C9047FFF7C8FA6C
:1011B000BDE81040FFF7ECB800040240A00D00208D
:1011C00010B5FFF79DFA084B08481968826CC1F307
:1011D00003210C025C600AB1C06C9047FFF7B0FAC3
:1011E000BDE81040FFF7D4B800040240A00D002075
:1011F00010B5FFF785FA084B08481968026DC1F36E
:1012000003310C035C600AB1406D9047FFF798FA18
:10121000BDE81040FFF7BCB800040240A00D00205C
:1012200010B5FFF76DFA084B08481968826DC1F3D5
:1012300003410C045C600AB1C06D9047FFF780FA6F
:10124000BDE81040FFF7A4B800040240A00D002044
:101250000B4B30B400220B4D0B4C1A601146134659
:10126000E8580C33902B0160A15002F10802F7D12D
:101270000649074A4FF0FF334B6030BC536070475C
:10128000000E002070200008A00D00200000024089
:1012900000040240AFF30080AFF30080AFF30080A2
:1012A0002DE9F041044684B000283AD0224E657AF8
:1012B0003768012000FA05FC1CEA070F2AD11F48F5
:1012C00000EBC5084CEA070740F83520C8F80430A1
:1012D0007B06376004D01A4B586940F00100586112
:1012E00017F4786F04D0164B586940F0020058612B
:1012F000236860681D6825F00F051D60257A0F269C
:10130000AE40002506601D603AB1A07A0901FFF7E2
:10131000A7F8284604B0BDE8F081104604B0BDE847
:10132000F0810848039102920193FFF789FA019B2B
:10133000029A0399BAE700BF000E0020A00D00201A
:101340000010024020200008AFF30080AFF30080BF
:10135000F8B5244B24491A69244DDFF8A0E0244C49
:10136000244800224FF0FF361E6107271A61D3F888
:101370000CC0DE60DA60C1F804E08A600F60E968E2
:1013800041F08071E960216841F001012160D96973
:1013900041F08051D961016841F480710160196A9E
:1013A00001F44071B1F5007F03D04FF48031196230
:1013B0001A620C4B1A6A120407D41A6A42F40072B9
:1013C0001A621A6A42F400421A62FFF741FF054AA4
:1013D000094B916941F0010191611A6842F02002C4
:1013E0001A60F8BD0010024010E000E0F0ED00E0EF
:1013F000001000E000700040000001403F190100B3
:1014000021490B6843F001030B600B681E4A9807E3
:10141000FBD51168002301F0F901116011465360FA
:101420004B68194A13F00C0FFAD1136843F4A02348
:10143000136011460B68144A9B03FBD5536A43F0B3
:101440000103536211464B6A0F4A9807FBD50F4BB5
:1014500053604FF404513023D1621363136843F097
:1014600080731360136808499B01FBD5084B122257
:101470001A604B6843F002034B604B6803F00C03A7
:10148000082BFAD1704700BF0010024000241D0055
:1014900000200240AFF30080AFF30080AFF3008084
:1014A000F0B4364E364D7769364C3749374A384BAB
:1014B00047F4FC0777614FF090464768776087688C
:1014C000B760C768F76007697761476937628769FE
:1014D000776207683760066A6E60466AAE60866A41
:1014E000EE60C66A6E61066B2E62466B6E62C669FE
:1014F0002E60C56B6560056CA560456CE560856C0C
:101500006561C56C2562056D6562856B2560846DBE
:101510004C60C46D8C60046ECC60446E4C61846E13
:101520000C62C46E4C62446D0C60416F5160816FFF
:101530009160C16FD160D0F880105161D0F88410F3
:101540001162D0F888105162016F1160D0F89020BC
:101550005A60D0F894209A60D0F89820DA60D0F8D9
:101560009C205A61D0F8A0201A62D0F8A4205A62B8
:10157000D0F88C201A60F0BC704700BF0010024009
:101580000004004800080048000C00480010004813
:1015900000140048AFF30080AFF30080AFF3008089
:1015A0002DE9F00F002302F00307C2F38006C2F317
:1015B000C105C2F341144FF00F09C2F3C3124FF03B
:1015C000010A38E0D0F820B02BEA0C0C4CEA0808ED
:1015D000C0F82080D0F804C00AFA03F82CEA080CFE
:1015E0004CEA060CC0F804C04FF0030B4FEA430C62
:1015F000D0F808800BFA0CFC6FEA0C0C0CEA080817
:1016000048EA0508C0F80880D0F80C800CEA080801
:1016100048EA0408C0F80C80D0F800800CEA080CF6
:101620004CEA070CC0F800C049081AD07600AD009B
:10163000A400BF00013303F0070C4FEA8C0C11F03B
:10164000010F02FA0CF809FA0CFCEDD0072BB9D9FE
:10165000D0F824B02BEA0C0C4CEA0808C0F824801F
:10166000B8E7BDE8F00F7047AFF30080AFF300803C
:101670000169426983685068F0B491E8C000D6F807
:1016800000C015682CF00F0CC6F800C0097A0F24B2
:1016900004FA01F13960296821F00F012960117AFB
:1016A00000228C4004601A60F0BC5A609A60704757
:1016B00038B50B07044618D4636961681A6858681E
:1016C0001568096825F00F0515601B7A0F229A40EE
:1016D00002230260637029B1204688476378022B99
:1016E00000D038BD0023637038BDFEF719FEE3E774
:1016F000826838B5D469146240F20F13234005465E
:10170000CBB143681B69B3B114F0080F14BF1021AB
:101710000021E00748BF41F00401A20748BF41F0A3
:101720000801600748BF41F02001E20548BF41F0D1
:10173000400128469847630604D56B685B680BB187
:101740002846984738BD00BFAFF30080AFF3008054
:101750000B0770B5044635D4A37843B96368DB68DA
:10176000002B2ED0218B204689B2984770BD23696B
:10177000606893E824001668816826F00F061660FA
:101780001B7A0F269E4002232E60A37039B120469B
:101790008847A378022B14D1236960681A68C1684E
:1017A000E368002914BF222120210B4300250121D9
:1017B00004F11800A570D0605160136013680B43EA
:1017C000136070BDFEF7ACFDC6E700BFAFF300804D
:1017D00008B5FEF795FF0448FFF78AFFFEF7B0FF54
:1017E000BDE80840FEF7D4BD040E0020AFF3008032
:1017F00008B5FEF785FF0448FFF77AFFFEF7A0FF64
:10180000BDE80840FEF7C4BD200E0020AFF3008005
:1018100008B5FEF775FF0448FFF76AFFFEF790FF73
:10182000BDE80840FEF7B4BD3C0E0020AFF30080D9
:101830002DE9F041154F164C164E174D3846FFF75F
:101840004FFB164BBB604FF00808A4F10C03304669
:101850003C617B61C7F80C80FFF742FB04F10C028E
:1018600004F118030E49326128467361C6F80C80F2
:10187000B160FFF735FBA4F118030A4AC5F80C80E4
:10188000243CAA602B616C61BDE8F081040E00204D
:10189000A0200008200E00203C0E0020003801404F
:1018A0000044004000480040AFF30080AFF30080E8
:1018B0002DE9F8430378012B04463CD085680023CA
:1018C000A37063702046FFF7D3FE63685C495A69D2
:1018D000D3F80490DF6998691E6AB1FBF2F292B204
:1018E0002169AA81DA680B6840F24D1840F20D11A7
:1018F000B9F1000F08BF8846002AE26814BF222110
:10190000202148EA000047F0400741EA02084FF072
:10191000FF3C012146F0C1061834C5F820C06F60B5
:10192000AE602860DC605960C3F800801A680A4322
:101930001A60BDE8F883434DA84239D0424DA84211
:101940004ED0424DA84219D063689B6903F4A0535E
:10195000B3F5805F0DD022696369A56810681A68C5
:1019600005F1240605F12801002386609160238398
:10197000A5E7E36843F4A063E360ECE70069344A59
:101980000C212346FFF78CFC00284DD16869314AB1
:101990002E4B0C21FFF784FC002841D12E4BDA6935
:1019A00042F48022DA612720C021FEF759FDCBE7FF
:1019B0000069274A0C212346FFF772FC60BB686967
:1019C000244A204B0C21FFF76BFC08BB224B9A6981
:1019D00042F480429A612520C021FEF741FDB3E721
:1019E00000691B4A0C212346FFF75AFC20BB68699B
:1019F000184A154B0C21FFF753FCC8B9164BDA698E
:101A000042F40032DA612620C021FEF729FD9BE76F
:101A10001248FEF715FFD9E71148FEF711FFCEE790
:101A20001048FEF70DFFB9E70F48FEF709FFADE7D5
:101A30000E48FEF705FFE1E70D48FEF701FFD6E788
:101A400000512502040E0020200E00203C0E002034
:101A500051170008B11600080010024018210008B4
:101A600000210008782100086021000848210008B2
:101A700030210008AFF30080AFF30080AFF30080A7
:101A80004369C0681B6840F09200DA6059601860D2
:101A90001A6842F001021A60704700BFAFF300807D
:101AA000FFF7AEBCAFF30080AFF30080AFF3008070
:101AB000704700BFAFF30080AFF30080AFF300804A
:101AC000024B4FF400725A83704700BF0010004869
:101AD000024B4FF400721A83704700BF0010004899
:101AE000704700BFAFF30080AFF30080AFF300801A
:101AF000704700BFAFF30080AFF30080AFF300800A
:101B000008B50D4B4FF400721A83202383F311881C
:101B1000FEF7BEFD0948C3680BB1FEF7D9FE0748C2
:101B2000074AC8210023FEF7A3FEFEF7C9FD0023E4
:101B300083F3118808BD00BF001000486C0E002020
:101B4000C11A0008AFF30080AFF30080AFF300804C
:101B500008B50D4B4FF400725A83202383F311888C
:101B6000FEF796FD0948C3680BB1FEF7B1FE0748C2
:101B7000074A41F288310023FEF77AFEFEF7A0FD06
:101B8000002383F3118808BD00100048580E002080
:101B9000A11B0008AFF30080AFF30080AFF300801B
:101BA00008B5202383F31188FEF772FD0548064A25
:101BB0000E21FFF7FDF9FEF783FD002383F3118863
:101BC00008BD00BF040E002040220008AFF30080D3
:101BD00069646C6500000000000000000000000067
:101BE00053562331000000005356233200000000FA
:101BF00053562333000000005356233400000000E6
:101C000053562335000000005356233600000000D1
:101C100053562337000000005356233800000000BD
:101C20005356233900000000535623313000000082
:101C30005356233131000000000000000000000076
:101C40002263685654536574492228290000000015
:101C5000226368565452657365744922282900002E
:101C60006368565452657365744928292C202331C2
:101C70000000000000000000000000000000000064
:101C8000636853636852656164794928292C20236D
:101C900031000000737461636B206F766572666C4F
:101CA0006F7700000000000000000000000000004E
:101CB0002263685468644372656174654922282907
:101CC00000000000226368546864536574507269B0
:101CD0006F726974792228290000000063685468D3
:101CE00064526573756D6528292C2023310000002E
:101CF000226368546864536C65657022282900006B
:101D00006368546864457869745328292C2023310A
:101D100000000000226368546864576169742228D7
:101D20002900000063685468645761697428292C8D
:101D30002023310063685468645761697428292C32
:101D4000202332000000000000000000000000001E
:101D50006D61696E0016C01104044C080C10141853
:101D60001C202122232400000000000000000000AD
:101D70002263684D7478496E697422282900000036
:101D80002263684D74784C6F636B532228290000DE
:101D900063684D74784C6F636B5328292C20233172
:101DA0000000000063684D74784C6F636B53282902
:101DB0002C202332000000002263684D7478547296
:101DC000794C6F636B5322282900000063684D74BF
:101DD00078556E6C6F636B28292C2023310000002E
:101DE00063684D7478556E6C6F636B28292C2023C3
:101DF0003200000063684D7478556E6C6F636B53EE
:101E000028292C202331000063684D7478556E6CAE
:101E10006F636B5328292C20233200000000000040
:101E20002275617274537461727422282900000053
:101E300075617274537461727428292C20233100E7
:101E4000227561727453746F70222829000000009B
:101E50007561727453746F7028292C20233100002F
:101E60002275617274537461727453656E642228B2
:101E70002900000075617274537461727453656E49
:101E80006428292C202331007561727453746172A7
:101E90007453656E6428292C2023320022756172E8
:101EA00074537461727453656E644922282900006A
:101EB00075617274537461727453656E6449282934
:101EC0002C2023310000000075617274537461721C
:101ED0007453656E644928292C20233200000000C9
:101EE000227561727453746F7053656E6422282971
:101EF000000000007561727453746F7053656E64F6
:101F000028292C2023310000227561727453746FCC
:101F10007053656E6449222829000000756172744F
:101F200053746F7053656E644928292C2023310047
:101F30002275617274537461727452656365697657
:101F40006522282900000000756172745374617263
:101F5000745265636569766528292C202331000059
:101F600075617274537461727452656365697665E4
:101F700028292C2023320000227561727453746169
:101F800072745265636569766549222829000000EC
:101F900075617274537461727452656365697665B4
:101FA0004928292C202331007561727453746172A1
:101FB00074526563656976654928292C20233200AF
:101FC000227561727453746F7052656365697665CA
:101FD000222829007561727453746F7052656365AD
:101FE00069766528292C2023310000002275617252
:101FF0007453746F70526563656976654922282948
:10200000000000007561727453746F7052656365EF
:102010006976654928292C20233100000000000042
:1020200022646D6153747265616D416C6C6F6361A4
:10203000746522282900000022646D615374726562
:10204000616D52656C65617365222829000000008E
:10205000646D6153747265616D52656C6561736521
:1020600028292C202331000000000000000000007F
:10207000080002400400024000000B001C00024067
:102080000400024004010C00300002400400024041
:1020900008020D0044000240040002400C030E0040
:1020A000580002400400024010040F006C0002407F
:1020B00004000240140510008000024004000240A9
:1020C000180611000804024004040240000738000A
:1020D0001C04024004040240040839003004024099
:1020E0000404024008093A00440402400404024087
:1020F0000C0A3B005804024004040240100B3C0050
:10210000756172745F6C6C645F737461727428299A
:102110002C20233100000000756172745F6C6C64C8
:102120005F737461727428292C2023320000000030
:10213000756172745F6C6C645F737461727428296A
:102140002C20233300000000756172745F6C6C6496
:102150005F737461727428292C20233400000000FE
:10216000756172745F6C6C645F737461727428293A
:102170002C20233500000000756172745F6C6C6464
:102180005F737461727428292C20233600000000CC
:1021900000A8802A0000000000FCC03C5411156417
:1021A000FFFF00000000505500E00E0080A000007E
:1021B000C0000000C0F0000015055555FFFF0000ED
:1021C00000000044000000000000000000000000CB
:1021D000000000F055555505FFFF0000000000000D
:1021E00000000000000000000000000000000000EF
:1021F00055555555FFFF000000000000000000008D
:102200004000555500000000C000FFFF15551501A6
:10221000FF000000000000000000000000000000BF
:10222000000000000F00000050555555FFFF000052
:10223000000000000000000000000000000000009E
:1022400048656C6C6F20576F726C64210D0A00003A
:102250005374617274696E672E2E2E0D0A00000091
:10226000D11A0008511B0008F11A0008011B0008D0
:10227000E11A000800960000000000000040000085
:04228000000000005A
:0400000508000211DC
:00000001FF
