:020000040800F2
:1000000000040020010200080103000801030008A9
:1000100001030008010300080103000801030008B0
:100020000103000801030008010300082103000880
:10003000010300080103000801030008E1030008B0
:100040000103000801030008010300080103000880
:100050000103000801030008010300080103000870
:100060000103000801030008010300080103000860
:100070000103000801030008010300080103000850
:100080000103000801030008010300080103000840
:100090000103000801030008010300080103000830
:1000A0000103000801030008010300080103000820
:1000B0000103000801030008010300080103000810
:1000C0000103000801030008010300080103000800
:1000D00001030008D15C00080103000801030008C7
:1000E00001030008010300080103000801030008E0
:1000F00001030008010300080103000801030008D0
:1001000001030008010300080103000801030008BF
:1001100001030008010300080103000801030008AF
:10012000010300080103000801030008010300089F
:10013000010300080103000801030008010300088F
:10014000010300080103000801030008010300087F
:10015000010300080103000801030008010300086F
:10016000010300080103000801030008010300085F
:10017000010300080103000801030008010300084F
:0801800001030008010300085F
:1001900000B583B005F0CCFB00F06AF900230093B2
:1001A0000A480B4B4FF49871402200F0A1FB4FF02E
:1001B000904403E04FF4FA7000F01AFC23699B07A7
:1001C000F8D5044801F0ACFFF4E700BFA01100200F
:1001D000115E000820110020AFF30080AFF3008013
:1001E000704700BFAFF30080AFF30080AFF3008033
:1001F000FEE700BFAFF30080AFF30080AFF30080F5
:1002000072B6304880F30988022383F31488BFF361
:100210006F8F2D4B2D4A93420BD2D943114421F0BD
:10022000030119444FF05532043B43F8042F8B422D
:10023000FBD1274B83420CD226491A1D891A21F083
:10024000030119444FF05532043B43F8042F8B420D
:10025000FBD105F0CDFD2049204B99420BD2C8437C
:10026000184420F003001E4C04300023E258CA500A
:1002700004338342FAD11B4B1B4A93420AD2D9431F
:10028000114421F0030119440022043B43F8042FD8
:100290008B42FBD1154D164CFFF7A2FFAC4204D2A6
:1002A00054F8043B9847AC42FAD3124D124CFFF776
:1002B0006FFFAC4204D254F8043B9847AC42FAD3E7
:1002C000FFF796FF00080020000000200004002037
:1002D000000400200308002000080020B8080020C7
:1002E000C86B0008B8080020D01200208801000860
:1002F000880100088801000888010008AFF3008029
:10030000FEE700BFAFF30080AFF30080AFF30080E3
:1003100000F07EFA00DF00BFAFF30080AFF3008093
:10032000EFF30983203383F30988002383F31188D3
:10033000704700BFAFF30080AFF30080AFF30080E1
:1003400008B5094B094A002199600720DA6010219D
:1003500000F066F80A20202100F062F80B208021CE
:10036000BDE8084000F05CB800ED00E00003FA05CD
:10037000202383F31188164B5B6813F4006319D0B4
:10038000EFF30983A3F1200282F3098811494FF0AA
:1003900080708A6943F8040CD07F09689268896884
:1003A00058B1914294BF0022012262B10A4A43F837
:1003B000082C704783F311887047914234BF0022A4
:1003C0000122002AF2D1054A43F8082C704700BFE9
:1003D00000ED00E0D009002011030008140300081C
:1003E00008B5202383F3118800F07AF8002383F303
:1003F0001188BDE80840FFF7BBBF00BFAFF3008026
:100400002DE9F04FC1F80CD0D0F80CD0BDE8F08F3A
:10041000002383F311882846A04700F049FB70476A
:1004200020F0030303F1604303F56D4300F0030084
:1004300010B4C0009A69FF24844022EA040281407B
:100440000A439A615DF8044B704700BFAFF3008028
:10045000024B034A9B699A61FEE700BFD009002066
:10046000605E0008AFF30080AFF30080AFF3008060
:1004700000B583B0FFF764FF00F0E2F800F060F829
:1004800001F076FB01F0BCFB40210D4800F0D0F9F3
:100490000C4A012303779061002383F3118862B62D
:1004A0001346094A9B6909489A6100230093C021B9
:1004B0000122074B00F01CFA03B05DF804FB00BFFB
:1004C000B8080020D0090020705E00080009002054
:1004D00051040008AFF30080AFF30080AFF3008059
:1004E00070B5144B9B69DA7F0AB1013ADA771A6A60
:1004F000114901321A62CB680A6801338A42CB6023
:1005000016D09668013E966096B90D461068D4687C
:100510000860D6600023416083F311881069A0470A
:10052000202383F311882A6803499368002BEDD0B8
:1005300070BD00BFD0090020C0090020AFF30080CB
:10054000044B4FF0FF3100225B601B609960DA6062
:10055000704700BFC0090020AFF30080AFF30080F8
:1005600070B40C4E3468A5680361A942C26004D916
:100570002468491BA5688D42FAD363684360B4427E
:10058000046060601860816002D0A368591AA1609D
:1005900070BC7047C0090020AFF30080AFF300804B
:1005A000074A0368934203D0996882680A449A60B4
:1005B00042681360036800215A60C160704700BF41
:1005C000C0090020AFF30080AFF30080AFF30080DC
:1005D00010B4202383F31188037F0D2B11D8DFE89B
:1005E00003F026101007100B101010101010100B35
:1005F000436A9A6801329A6090E80C001A600268B7
:1006000053604FF0FF34002381680C4A4462037743
:10061000126893688B42FBD25168416002600023EC
:100620005060086083F311885DF8044B7047002325
:1006300083F311885DF8044B704700BFD009002098
:10064000034B00225B601B605B611B619A6070471B
:10065000D0090020AFF30080AFF30080AFF300803B
:1006600000228168084B10B4044602771B689A6820
:100670008A42FBD25A686260236020465C60146044
:100680005DF8044B704700BFD0090020AFF3008035
:10069000084B30B41A68996914680877012514204A
:1006A000C877636015771C60104630BC9A61FFF70D
:1006B000A7BE00BFD0090020AFF30080AFF30080D9
:1006C00030B54B1C87B0054611D00C4C0C4AA369C1
:1006D00001A8FFF745FF2846FFF7DAFF049B13B197
:1006E00001A8FFF75DFFA369586A07B030BD034C4E
:1006F000FFF7CEFFA369586A07B030BDD0090020CC
:10070000D1050008AFF30080AFF30080AFF30080A5
:10071000DFF858C0F0B4DCF818708568BC68416236
:10072000A54206460DD80022634602771B689A68E8
:100730009542FBD95A68726033605E601660F0BC07
:10074000704700233B7763461B689A689442FBD945
:100750005A687A6001243B605F60176034773946DD
:100760003046CCF81860F0BCFFF74ABED009002034
:100770000E4A1068F0B403689569136001271426C7
:100780000021AC685A60077703469061EE772977BD
:1007900000E01B689A68A242FBD25A686A602B602C
:1007A00029465D601560F0BCFFF72ABED009002025
:1007B0000D4A106870B40368956913600126002122
:1007C000AC685A60067703469061297700E01B68A1
:1007D0009A68A242FBD85A686A602B6029465D601D
:1007E000156070BCFFF70CBED0090020AFF300808D
:1007F000044B1A689B6992689B689A4200D87047BC
:10080000FFF7D6BFD0090020AFF30080AFF3008020
:10081000034B9B69DB7F0BB1FFF7CABFFFF7A8BF94
:10082000D0090020AFF30080AFF30080AFF3008069
:100830002DE9F003114C016465694561002200F166
:100840002C064FF002094FF0140800F128074FF072
:10085000010C0461816080F81C90606180F81F8049
:1008600080F81EC04277C26382630262826128619F
:1008700087620663C662BDE8F0037047D0090020B6
:100880002DE9F00F184D089FD5F814C0DFF85C80F3
:1008900024394618C6604FF0020B43504FF0140A3B
:1008A0007760002300F12C074FF0010900F12801C7
:1008B000C6F820800561826080F81CB080F81FA017
:1008C00080F81E90C0F814C0026468614377C36367
:1008D000836303628361CCF810000763C76281629F
:1008E000BDE8F00F704700BFD009002011040008D8
:1008F0002DE9F84F9E460446202383F311881B4EB2
:10090000DFF86CB07769243908440025E06004F111
:100910002C0344F801E004F1280C0A9941604FF0DF
:10092000020A4FF014094FF00108C0F820B0294620
:10093000A26026616761226484F81CA084F81F907D
:1009400084F81E8065777461E563A5632562A561FF
:1009500020463C612363E362C4F828C0FFF7D8FE59
:100960002B4683F311882046BDE8F88FD00900207C
:1009700011040008AFF30080AFF30080AFF30080F4
:1009800010B5202383F31188084B9B691C6C996870
:100990008C4201D0814200D298601864FFF728FF92
:1009A000002383F31188204610BD00BFD00900202A
:1009B00010B52023044683F311880021FFF7A8FE19
:1009C000002383F31188204610BD00BFAFF30080E1
:1009D000202383F31188437F43F0040343770023EC
:1009E00083F31188704700BFAFF30080AFF300803E
:1009F00008B50146202383F311880620FFF760FE27
:100A0000002383F3118808BDAFF30080AFF30080AB
:100A100008B5202383F31188054BD968411A02D009
:100A20000620FFF74DFE002383F3118808BD00BFA9
:100A3000C0090020AFF30080AFF30080AFF3008067
:100A400008B5202383F31188064B1A689B699268C6
:100A50009B689A4201D3FFF78BFE002383F3118832
:100A600008BD00BFD0090020AFF30080AFF30080C5
:100A700038B50E4B9C692546606255F8280FA84290
:100A800006D00368A362FFF7EBFDA06AA842F8D185
:100A9000637F9B0704D1636922691A6122695361EC
:100AA0000E20BDE83840FFF7F3BD00BFD00900209D
:100AB000202383F31188FFF7DBBF00BFAFF3008073
:100AC00038B50446202383F31188037F0E2B07D00B
:100AD000084B826A9B6907201A60A362FFF7D8FD62
:100AE000656A002383F31188204600F019F8284630
:100AF00038BD00BFD0090020AFF30080AFF3008005
:100B0000202383F31188837F01338377002383F3CA
:100B100011887047AFF30080AFF30080AFF300801F
:100B20000146202383F31188827F013AD2B2827773
:100B3000002383F3118812B9037F0E2B00D0704776
:100B4000437F03F00303012B02D0022B07D0704731
:100B5000436902691A610269536101F0B1B84369DE
:100B600002691A610269406C536101F049B900BF22
:100B700070B582B016461C460D4601F061F898B17A
:100B8000202383F31188069B00932946324623468F
:100B9000FFF776FE0123437700210446FFF7B8FDF7
:100BA000002383F31188204602B070BDAFF30080AC
:100BB000F0B583B00F4614461E46054601F008F90D
:100BC00098B1202383F31188696800963A4623463A
:100BD000FFF756FE02234377456400210446FFF7E2
:100BE00097FD002383F31188204603B0F0BD00BFBA
:100BF000202383F31188044B1869837F01338377A3
:100C0000002383F311887047D0090020AFF30080E0
:100C100010B5202383F31188074B04699C421DBF44
:100C2000A37F0133A3770024002383F31188FFF708
:100C300077FF204610BD00BFD0090020AFF3008031
:100C40004060006081607047AFF30080AFF30080C8
:100C500070B5856881600135002D04460BDC6FF0AE
:100C600001066068436863601C60FFF7F9FC0135AA
:100C7000012D4662F5D170BDAFF30080AFF3008067
:100C800008B5202383F31188FFF7E2FFFFF7B0FDDB
:100C9000002383F3118808BDAFF30080AFF3008019
:100CA0008268013A002A10B50346826001DB002009
:100CB00010BD074CA26950624168516010605A60D3
:100CC00003200A60FFF7E4FCA369586A10BD00BF67
:100CD000D0090020AFF30080AFF30080AFF30080B5
:100CE00008B5202383F31188FFF7DAFF002383F38D
:100CF000118808BDAFF30080AFF30080AFF3008030
:100D000003468068421E002A10B49A6003DB00206C
:100D10005DF8044B704761B1084A926953625C68A0
:100D2000032082E818005A6022605DF8044BFFF748
:100D3000C7BC98604FF0FF30EAE700BFD009002041
:100D400008B5202383F31188FFF7DAFF002383F32C
:100D5000118808BDAFF30080AFF30080AFF30080CF
:100D600008B50246202383F3118883680133002BE2
:100D7000836003DD002383F3118808BD00680368E6
:100D8000136000215A60FFF7C3FC002383F311882E
:100D900008BD00BFAFF30080AFF30080AFF3008069
:100DA00083680133002B836000DD704703681A6895
:100DB00002600021506018465962FFF751BC00BF25
:100DC00070B50C1E054611DD002601E0013C0DD07A
:100DD000AB680133002BAB60F8DC286803682B603C
:100DE0005D60FFF73DFC013C4662F1D170BD00BF84
:100DF00010B5024682B0202383F311888368013343
:100E0000002B83601DDD8B68013B002B8B6007DBB3
:100E1000FFF7EEFC0020002383F3118802B010BD21
:100E20000D4A4B689469032084E80A004C601C60FA
:100E30006162FFF72DFC606A002383F3118802B022
:100E400010BD0068036813605A600191FFF708FC49
:100E5000002343620199D6E7D0090020AFF3008058
:100E60000023406000608360704700BFAFF30080E4
:100E700070B52F4B054680689C69002853D0A26846
:100E800083689A4206D9037F8260042B32D0052BF7
:100E90001CD09BB12B4603E09968A268914202D313
:100EA0001B689D42F8D15A68626023605C601460E0
:100EB00065620420BDE87040FFF7EABB90E80C00D3
:100EC0001A6002685360FFF7CBFBE3E790E80A0083
:100ED0001960466A01684B60334602E099689142A6
:100EE00002D31B689E42F9D15A6842600360586081
:100EF0001060CFE790E80A001960466A01684B600D
:100F0000334602E09968914202D31B689E42F9D1B0
:100F10005A684260036058601060B068A2688368D5
:100F20009342B0D3B6E7E36BEB60AC60E56370BDB2
:100F3000D0090020AFF30080AFF30080AFF3008052
:100F400008B5202383F31188FFF792FF002383F372
:100F5000118808BDAFF30080AFF30080AFF30080CD
:100F60000246202383F31188836823B100200023E5
:100F700083F311887047054B9B698360D96BC1600F
:100F8000DA630120002383F311887047D009002021
:100F9000174A38B59069202383F31188C46B2568FC
:100FA000E368C363A5421CD0016C4BB11A689A4236
:100FB00003D09268914238BF1146DB68002BF5D10F
:100FC0002B68EA6B8160236028465C600021A56085
:100FD000E260EC63FFF79CFB002383F3118820465B
:100FE00038BD0023A360002383F31188204638BD59
:100FF000D0090020AFF30080AFF30080AFF3008092
:1010000038B5124B9869C46B2568E368C363A54281
:1010100018D0016C4BB11A689A4203D09268914281
:1010200038BF1146DB68002BF5D12B68EA6B816075
:10103000236028465C60A560E260EC63FFF710FB6C
:10104000204638BD0023A360204638BDD0090020CB
:10105000134A70B52023946983F31188E36BD3B1ED
:1010600000260BE01168D56B196010464B609A6042
:10107000DD60D363FFF7F4FAE36B43B11A68D96814
:10108000E1639A42EED19E60E36B002BF6D1236CB4
:10109000A360FFF7ADFB002383F3118870BD00BF91
:1010A000D0090020AFF30080AFF30080AFF30080E1
:1010B00040600060704700BFAFF30080AFF3008076
:1010C00008B50246202383F311880068904205D0BA
:1010D0000368136000215A60FFF71AFB002383F3B3
:1010E000118808BDAFF30080AFF30080AFF300803C
:1010F00008B503460068984206D002681A6053603B
:10110000FFF7AEFA0023436208BD00BFAFF30080D3
:1011100038B504460068A0420AD06FF001050368A4
:1011200023605C60FFF79CFA45622068A042F6D11C
:1011300038BD00BFAFF30080AFF30080AFF3008095
:1011400008B5202383F31188FFF7E2FFFFF750FB78
:10115000002383F3118808BDAFF30080AFF3008054
:101160000F4B70B59C690546FFF74AFF656206465E
:101170002B4603E09968A268914202D31B689D4206
:10118000F8D15A686260236005205C601460FFF744
:101190007FFA646A3046FFF76BFE204670BD00BFE1
:1011A000D0090020AFF30080AFF30080AFF30080E0
:1011B00008B5202383F31188FFF7D2FF002383F3C0
:1011C000118808BDAFF30080AFF30080AFF300805B
:1011D0002DE9F04106468846FFF712FF0F4B9D6947
:1011E000074633466E6203E09C68AA68944202D3C5
:1011F0001B689E42F8D15A686A602B6041465D6068
:1012000005201560FFF75CFA431C044602D03846FF
:10121000FFF72EFE2046BDE8F08100BFD009002078
:1012200008B5202383F31188FFF7D2FF002383F34F
:10123000118808BDAFF30080AFF30080AFF30080EA
:1012400030B4202383F31188064C0368A5690B6032
:101250000024016023464D608A60CC6083F31188CE
:1012600030BC7047D0090020AFF30080AFF300809E
:10127000202383F31188024602E0994207D01A46E0
:1012800013688342F9D1002383F3118870470B68F8
:101290001360002383F31188704700BFAFF3008011
:1012A000202383F31188054B9B699A6B22EA000186
:1012B0009963002383F3118810407047D009002000
:1012C000202383F31188044B9B699A6B1043986326
:1012D000002383F311887047D0090020AFF300800A
:1012E00008B5826B037F1143082B81630BD0092B58
:1012F00000D008BD436A19408B42FAD1FFF7B0F91C
:101300000023436208BD436A1942F7D108BD00BFFC
:1013100070B50468A04205460E4608D0201D0BC8D3
:101320003343E360FFF7DCFF2468A542F6D170BDCC
:1013300008B5202383F31188FFF7D2FFFFF758FA8F
:10134000002383F3118808BDAFF30080AFF3008062
:1013500008B5202383F31188FFF7DAFFFFF748FA77
:10136000002383F3118808BDAFF30080AFF3008042
:10137000F8B50D46074689B10024012601E0013485
:1013800065B106FA04F32B42F9D057F82420204621
:1013900025EA030501349047002DF2D1F8BD00BFC6
:1013A00038B50D4B05469C69202383F31188A36B48
:1013B00010EA030206D160620820FFF769F9A36B07
:1013C00005EA03025042104023EA0003A36300230E
:1013D00083F3118838BD00BFD0090020AFF300802F
:1013E00038B50B4B05469C69202383F31188A36B0A
:1013F000184006D108206562FFF74AF9A36B05EA99
:10140000030023EA0003A363002383F3118838BD9C
:10141000D0090020AFF30080AFF30080AFF300806D
:1014200038B50C4B04469D69202383F31188AB6BC0
:1014300000EA0302824204D068620920FFF728F91B
:10144000AB6B23EA0403AB63002383F311882046CC
:1014500038BD00BFD0090020AFF30080AFF300809B
:10146000134A70B520230446956983F31188AA6B4B
:1014700010EA02060ED121B90B4683F31188002031
:1014800070BD68620820FFF71BF900280BDBAA6B10
:1014900004EA02067042304022EA0002AA630023F6
:1014A00083F3118870BD334683F31188002070BD2B
:1014B000D0090020AFF30080AFF30080AFF30080CD
:1014C000134A70B520230446956983F31188AA6BEB
:1014D00010EA02060ED121B90B4683F311880020D1
:1014E00070BD68620820FFF7EBF800280ADBAA6BE2
:1014F00004EA020622EA0602AA63002383F31188A3
:10150000304670BD334683F31188002070BD00BFA4
:10151000D0090020AFF30080AFF30080AFF300806C
:1015200038B5124B04469D69202383F31188AA6BBA
:1015300000EA020383420CD021B90B4683F31188E1
:10154000002038BD68620920FFF7BAF8002808DBE0
:10155000AA6B22EA0402AA63002383F311882046BF
:1015600038BD002383F31188002038BDD009002046
:1015700038B50E4B9C69202383F3118800F12C02AF
:10158000057F6262036B61630C2D84E80C000463C9
:101590001C6007D00A20FFF77BF8606A002383F302
:1015A000118838BDFFF75CF8F4E700BFD0090020D0
:1015B00010B5202383F311880B4CA269134653F80E
:1015C0002C0F984208D00168D1620B224B60002397
:1015D000027783F3118810BD0C20FFF759F8A26938
:1015E000D06A02F12C03EEE7D0090020AFF30080AF
:1015F00008B5202383F31188FFF78AF8002383F3CB
:10160000118808BDAFF30080AFF30080AFF3008016
:1016100010B50B4601EB820141600446C360836054
:10162000036011461C30FFF70BFB04F11000002192
:10163000BDE81040FFF704BBAFF30080AFF30080BC
:1016400010B52023044683F3118803684168C36002
:10165000C91A836089101C30FFF7FAFA04F11000F0
:101660000021FFF7F5FAFFF7C3F8002383F3118891
:1016700010BD00BFAFF30080AFF30080AFF3008078
:1016800070B504460E461C301146FFF739FB05467F
:1016900078B9A2686168131D8B42A36028BF2368D4
:1016A000166004F1100028BFA360FFF779FBFFF775
:1016B0009FF8284670BD00BFAFF30080AFF30080F5
:1016C00008B5202383F31188FFF7DAFF002383F3A3
:1016D000118808BDAFF30080AFF30080AFF3008046
:1016E00038B5436A002B12DD84684568221D013B32
:1016F000AA42436228BF03688260216000F11000A3
:1017000028BF40F8083CFFF74BFB002038BD4FF0E6
:10171000FF3038BDAFF30080AFF30080AFF300803F
:1017200070B504460E461C301146FFF7E9FA05462F
:1017300060B9E3682268043B9342E36008D31E600B
:1017400004F11000FFF72CFBFFF752F8284670BD9C
:101750006368043BE360F2E7AFF30080AFF300801F
:1017600008B5202383F31188FFF7DAFF002383F302
:10177000118808BDAFF30080AFF30080AFF30080A5
:10178000426A002A10B510DDC3680468043B013AC0
:10179000A3424262C36002D24368043BC360196043
:1017A0001030FFF7FDFA002010BD4FF0FF3010BDE4
:1017B00070B504460E4610301146FFF7A1FA0546F3
:1017C00080B9E3686268196804339342E36028BF14
:1017D0002368316004F11C0028BFE360FFF7E0FAE2
:1017E000FFF706F8284670BDAFF30080AFF3008026
:1017F00008B5202383F31188FFF7DAFF002383F372
:10180000118808BDAFF30080AFF30080AFF3008014
:101810008369002B10B513DD5A1EC36882614268CC
:101820001C6804339342C36028BF03680C6000F156
:101830001C0028BF40F8103CFFF7B2FA002010BD92
:101840004FF0FF3010BD00BFAFF30080AFF300805A
:1018500010B4024661B1094B9B69586244680D207F
:1018600083E81400536023605DF8044BFEF728BF43
:101870004FF0FF305DF8044B704700BFD0090020E7
:1018800030B4029C046200250A4485600261406015
:10189000006041618161C160C36130BC704700BFBD
:1018A00038B504460068E36863610022A042A26084
:1018B000A3610AD06FF00105036823605C60FEF746
:1018C000CFFE45622068A042F6D138BDAFF300805C
:1018D000034642698069824210B598681BD0541C47
:1018E00001305C619860117059691A6991420BD29C
:1018F000186898420DD002681A605360FEF7B0FE77
:1019000000234362184610BD1868DA685A6198428D
:10191000F1D1002010BD0028E1D06FF0030010BD10
:1019200070B5202304460E4683F31188C3692BB19A
:10193000984703E0FFF78CFF002815DBA5682046D9
:101940003146002DF6D0A2692169531C8B4205F166
:10195000FF35A361A56028BFE368107828BFA361A5
:10196000002383F3118870BD2B4683F3118870BD6B
:101970002DE9F0471E460446D0F81C80202383F34F
:1019800011884FF0000901EB020A4F1CB8F1000F5B
:1019900005D02046C04702E0FFF75AFFF0B9A5681E
:1019A00020463146002DF7D0A369013D5A1CA261A3
:1019B000A5601B7807F8013C2369A2699A4224BFFD
:1019C000E368A361002383F31188574509F10109F6
:1019D00007D0202383F311880137D7E72B4683F301
:1019E00011884846BDE8F087AFF30080AFF3008070
:1019F00030B4029C04628D18056140600060826012
:101A000041618161C160C36130BC7047AFF3008048
:101A100038B50269C368044600686361D21AA042FF
:101A2000A361A2600AD06FF00105036823605C60C7
:101A3000FEF716FE45622068A042F6D138BD00BF11
:101A4000F8B504460F461646202383F3118803E0B9
:101A5000FFF7FEFE002819DBA56820463146002D61
:101A6000F6D06369013D5A1C6261A5601F7023694D
:101A700062699A4224BFE3686361E3690BB120465F
:101A80009847002383F311880020F8BD2B4683F389
:101A90001188F8BDAFF30080AFF30080AFF3008092
:101AA00041698269914210B50346816816D0186970
:101AB0004C1C511C9C609961814214780BD21868AF
:101AC000984206D002681A605360FEF7C9FD0023F1
:101AD0004362204610BDDA689A61F0E70029E6D03B
:101AE0006FF0020010BD00BFAFF30080AFF30080C5
:101AF0002DE9F84F9A4604460E461746D0F81C903A
:101B0000202383F311884FF00008A56806F1010B2C
:101B100020466B1EDDB16269A360531C636133789C
:101B20001370236962699A4224BFE3686361B9F163
:101B3000000F00D0C847002383F31188013F08F14C
:101B400001080DD0202383F311885E46DDE720468F
:101B50005146FFF77DFE0028D7D02B4683F311882E
:101B60004046BDE8F88F00BFAFF30080AFF30080C0
:101B70000548064A0649074B20F0070022F00702F5
:101B800008601A60704700BFD71200200080002054
:101B9000F0090020EC090020AFF30080AFF30080D3
:101BA000202383F31188094A09491368096807301B
:101BB00020F00700C91A88429BBFC018106000209F
:101BC0001846002383F31188704700BFF0090020F6
:101BD000EC090020AFF30080AFF30080AFF300808A
:101BE000024A034B10681B68C01A7047EC090020BA
:101BF000F0090020AFF30080AFF30080AFF3008066
:101C0000044B054A1A6003F1100000229A60DA6062
:101C1000FFF726B9F8090020A11B0008AFF30080E8
:101C20000023083A81600360C36010304A600B6093
:101C3000FFF716B9AFF30080AFF30080AFF3008079
:101C4000F8B51E4E002818BF0646073106F11000F1
:101C500021F0070506F10804FFF772F903E05A685E
:101C6000954211D91C462368002BF8D1FFF790F953
:101C700033680BB305F108009847E8B1066045608A
:101C800000F108042046F8BD05F10801914208D989
:101C90001A6822601C4644F8086BFFF779F9204661
:101CA000F8BD6FF00700401B5F18024418685850D9
:101CB0007A6027605D60EDE70024E3E7F809002023
:101CC00070B50646A0F1080450F8080C00F10805AC
:101CD0001030FFF735F92B46AB4204D0A34202D3B4
:101CE0001B68AB42FAD11A681AB1944201D3134669
:101CF000F2E756F8041C46F8082C1C6001F10802B3
:101D000056F8085CA018A84209D05A6802F10801E8
:101D100019448C4211D0BDE87040FFF739B94068D2
:101D2000A25846F8082C0A18083246F8042C5A68BB
:101D300002F1080119448C42EDD156F8040C56F812
:101D4000081C1960024408325A60BDE87040FFF771
:101D50001FB900BFAFF30080AFF30080AFF3008086
:101D600038B50E4C002818BF044604F110000D468B
:101D7000FFF7E6F8A3686BB10022144658681B68A9
:101D800001340244002BF9D105B12A60FFF700F9B4
:101D9000204638BD1A461C46F6E700BFF809002069
:101DA0000023416082600360704700BFAFF3008092
:101DB00062B1202383F3118803680B600023016064
:101DC00083F311884368013A1944F2D1704700BF88
:101DD00008B50246202383F31188006828B1036800
:101DE0001360002383F3118808BD9368002BF8D09B
:101DF00050689847002383F3118808BDAFF3008033
:101E0000202383F3118803680B600023016083F3B0
:101E100011887047AFF30080AFF30080AFF300800C
:101E2000014B01221A7070470D100020AFF30080A3
:101E300070B5084E4C243068064D03682D219B6810
:101E40009847013CF7D128680349036802221B68C0
:101E5000984770BD40100020B05E0008AFF30080CE
:101E600070B584B018B30DF10105154E2B46A6FBD5
:101E70000012D20802EB8201A0EB41013031C9B25D
:101E800003F8011C1C4610460133002AEFD16B46B3
:101E90009C420AD90B4E02E014F8021C013C306847
:101EA00003689B689847AC42F6D104B070BD054BFF
:101EB0001868036830219B68984704B070BD00BF64
:101EC000CDCCCCCC40100020AFF30080AFF300802D
:101ED00038B5017849B1054D0446286803689B6808
:101EE000984714F8011F0029F7D138BD4010002091
:101EF00038B50178084D044639B1286803689B68F5
:101F0000984714F8011F0029F7D12868034903688E
:101F100002221B68984738BD40100020B05E0008C0
:101F2000202383F31188044B1A68511C1960107028
:101F3000002383F31188704710100020AFF3008056
:101F400010B451B9074C0849084A012323701060A6
:101F50000B7018465DF8044B7047002318465DF877
:101F6000044B70470C1000201410002008100020B3
:101F7000F0B40E4E0E4F35683B4605E013F8014BAA
:101F800011F8012B944207D1AB42F7D30B781BB960
:101F900037601846F0BC7047064C0749074A0123D2
:101FA000237010600B701846F0BC704710100020B2
:101FB000441000200C1000201410002008100020F5
:101FC0000B4BDB68521A591A914210B40AD3094CD0
:101FD00009490A4A0123237010600B7018465DF806
:101FE000044B7047002318465DF8044B704700BF50
:101FF000C00900200C100020141000200810002040
:1020000038B5064C04F1140554F8043F18460BB1DA
:10201000FEF7DEFCAC42F7D138BD00BF281000202F
:1020200070B5074C002604F1140554F8043B18461B
:102030001BB1FEF745FD44F8046CAC42F5D170BD10
:102040002C100020AFF30080AFF30080AFF30080CE
:10205000124A134B30B494694FF47A7101FB00F0CB
:10206000226A411EA3FB0151501C00EB91118A42D0
:10207000236A0DD29A4204D90023002BF7D130BC39
:102080007047994294BF00230123002BEFD1F6E75C
:102090009A42F6D80123002BE9D1F0E7D0090020BD
:1020A000D34D6210AFF30080AFF30080AFF3008038
:1020B00008B50120FEF79CFC014BD86808BD00BFA5
:1020C000C0090020AFF30080AFF30080AFF30080C1
:1020D0000C4B002210B51A70202383F311884FF4A3
:1020E0007A7101FB00F1084B0848094A0139A3FB4A
:1020F0000141890901310023FEF732FA002383F3FD
:10210000118810BD0D100020D34D62101810002052
:10211000211E0008AFF30080AFF30080AFF3008012
:102120002DE9F04F9E4C9F4D206085B09E48FFF7F3
:10213000DFFE9E48FFF7DCFE9D48FFF7D9FE2A210F
:10214000206803689B68984715F8011F0029F7D19C
:102150009848994DFFF7CCFE2A21206803689B68B8
:10216000984715F8011F0029F7D19448944DFFF7BF
:10217000BFFE2A21206803689B68984715F8011F55
:102180000029F7D18F48904DFFF7B2FE2A21206831
:1021900003689B68984715F8011F0029F7D18B4801
:1021A0008B4DFFF7A5FE2A21206803689B6898479E
:1021B00015F8011F0029F7D18648874DFFF798FED3
:1021C0002A21206803689B68984715F8011F002999
:1021D000F7D18248824DFFF78BFE2A2120680368E1
:1021E0009B68984715F8011F0029F7D17D487E4D5F
:1021F000FFF77EFE2A21206803689B68984715F840
:10220000011F0029F7D1794A794801910392FFF71C
:102210006FFE6548DFF888B1764FFFF769FE764BB1
:10222000019902911970029B013302934FF000084B
:1022300057F8043B002B00F08680704DFFF7F8FD47
:102240002D21206803689B68984715F8011F002915
:10225000F7D102986A4DFFF703FEDBF80000036830
:102260002E219B6808F1010898474046FFF7F8FDCA
:102270002021206803689B68984715F8011F0029F2
:10228000F7D157F8043C1D68297839B120680368F4
:102290009B68984715F8011F0029F7D159485A4DF6
:1022A0005A4EDFF89491FFF723FEC820FEF7A0FBFB
:1022B000574A57F804ACC6F80090002313605360E7
:1022C0009360D3601361DAF804202B7002B1904759
:1022D000DAF80C309847DAF8083003B19847FFF77E
:1022E0009FFE2B78002B4FD04A4D2D21206803688C
:1022F0009B68984715F8011F0029F7D1464B474DB9
:102300001868FFF7ADFD2021206803689B68984797
:1023100015F8011F0029F7D133684B450BD9404D03
:10232000206815F8011C03689B68984733689D4234
:1023300005F10105F4D33B48FFF7DAFD57F8043BFC
:10234000002B7FF47AAF039A52F8047F0392002F98
:102350007FF469AFFFF76CFD334D1348FFF7C8FDFD
:102360004621206803689B68984715F8011F0029DB
:10237000F7D1214A13785BB92C48FFF7B9FD1E4B02
:10238000187805B0BDE8F08F2948FFF7B1FD4FE799
:102390002848FFF7ADFD184B187805B0BDE8F08F61
:1023A00040100020D45E00089C680008B45E00085D
:1023B000D05E0008345F0008445F0008585F0008E2
:1023C000705F0008845F0008CC5F0008E05F0008D1
:1023D000EC5F0008006000080C6000082060000846
:1023E000386000084C60000864600008B0600008B5
:1023F000786000082061000814100020E85E0008E2
:1024000098600008F85E00080C10002010100020F2
:102410002C100020FC5E0008081000209C600008C2
:1024200045100020145F0008A0600008245F000829
:10243000185F00082C5F000844100020AFF30080F4
:10244000F0B5274F274EBB69274D9A68274B306858
:10245000274C83B0053A00934FF498712B46FEF752
:1024600047FABB6923499A68736820600091043A6F
:1024700018464FF498712B46FEF73AFABA69B368DA
:1024800092681D4960600091033A18464FF49871B4
:102490002B46FEF72DFABA69F36892681749A060D7
:1024A0000091023A18464FF498712B46FEF720FA35
:1024B000BA69336992681249E060013A009118469E
:1024C0004FF498712B46FEF713FA2061FFF7A8FD31
:1024D0000C49012003B0BDE8F040FFF749BD00BF43
:1024E000D0090020905E0008112500085061000806
:1024F0002C1000204061000894600008446100082E
:10250000486100084C610008AFF30080AFF3008021
:1025100008B50078FFF704FD002008BDAFF3008088
:10252000F0B52B4F2B4EBB692B4D9A682B4B706827
:102530002B4C83B0043A00934FF498712B46FEF76E
:10254000D7F9BB6927499A68336860600091053AFA
:1025500018464FF498712B46FEF7CAF9BA693369E9
:102560009268214920600091013A18464FF4987111
:102570002B46FEF7BDF9BA69F36892681B492061E2
:102580000091023A18464FF498712B46FEF7B0F9C5
:102590002023E06083F31188BB69B0689A68144B0C
:1025A0000093033A2B464FF49871FEF769F9002324
:1025B000A06083F31188A068FEF7FAF9FFF730FDF9
:1025C0000C49012003B0BDE8F040FFF7D1BC00BFCB
:1025D000D0090020905E0008112500084061000825
:1025E0002C10002050610008486100084461000878
:1025F000946000084C610008AFF30080AFF30080E6
:10260000F8B54C4EB3699C68651C2846FEF7B8F9CE
:10261000B0EB040CDCF10001074651EB0C0101208A
:10262000FFF78EFC00B1F8BDB3699968B5EB010EF8
:10263000DEF1000151EB0E010220FFF781FC0028C2
:10264000F1D13846FEF79CF9281A41424141032056
:10265000FFF776FC0028E6D1B36999680A1B51425E
:1026600051410420FFF76CFC0028DCD1202383F3C8
:102670001188B3699A6802329A60002383F3118843
:10268000B3699968A71CCB1B594259410520FFF734
:1026900057FC0028C7D12846FEF772F9B0EB040CAE
:1026A000DCF1000151EB0C010620FFF749FC00288A
:1026B000B9D1B3699968B7EB010EDEF1000151EBB6
:1026C0000E010720FFF73CFC0028ACD1B369196C60
:1026D0006F1A794279410820FFF732FC0028A2D115
:1026E000E71C3846FEF74CF9281A414241410920BF
:1026F000FFF726FC002896D1B36999687A1A5142EF
:1027000051410A20FFF71CFC00288CD1B369196CD9
:102710007B1A594259410B20FFF712FC002882D145
:10272000202383F31188B26900239460146483F337
:10273000118878E7D0090020AFF30080AFF3008064
:1027400038B51C4DFFF7B4FCEC686420FEF750F977
:1027500004F1640104F165020120FFF731FC00B1CE
:1027600038BDEC686420FEF743F904F1640104F11C
:1027700065020220FFF724FC0028F1D1EC684FF439
:102780007A70FEF735F904F57A7104F2E932032024
:10279000FFF716FC0028E3D1EC6804F16405284635
:1027A000FEF736F9294604F165020420BDE83840F9
:1027B000FFF706BCC0090020AFF30080AFF3008034
:1027C0002DE9F041414D424EAB69D6F800809A6840
:1027D000404F414B414C82B005324FF49871009705
:1027E0004046FEF785F8AA69736892683C49206004
:1027F000013218460091384B4FF49871FEF778F883
:10280000AA69B3689268374960600332184600913C
:10281000314B4FF49871FEF76BF8AA69F368926830
:102820003149A0600432184600912B4B4FF4987147
:10283000FEF75EF8AA69336992682C49E0600232BB
:1028400018460091244B4FF49871FEF751F820611F
:102850002748FEF785FA2648FEF782FA2448FEF755
:102860007FFA2348FEF77CFA2148FEF779FAFFF752
:10287000D7FB01201F49FFF77BFB10B102B0BDE879
:10288000F081AA69144B92680097053240464FF4D4
:102890009871FEF72DF82023206083F311881448E7
:1028A0000221FEF78DFAFDF7A3FF002383F31188C1
:1028B000FFF7B6FB0E4B99684B1E59424FF00200D2
:1028C000594102B0BDE8F041FFF73ABBD009002002
:1028D000905E000848610008212900082C100020A3
:1028E00044610008946000084061000850610008DD
:1028F000000800204C610008AFF30080AFF30080B7
:1029000010B5044C2046FEF7EBF92046FEF728FAF6
:10291000002010BD00080020AFF30080AFF300805E
:1029200010B504460348FEF7DBF92078FFF7F8FA04
:10293000002010BD00080020AFF30080AFF300803E
:1029400001480021FEF77CB900080020AFF30080A9
:1029500001480021FEF774B900080020AFF30080A1
:1029600001480021FEF76CB900080020AFF3008099
:1029700008B53220FEF73CF8202383F31188054880
:10298000FEF70EFAFDF734FF002383F311880020D1
:1029900008BD00BF00080020AFF30080AFF3008047
:1029A00008B5202383F311888368002B06DDFDF72B
:1029B0001FFF002383F31188002008BDFEF7F0F904
:1029C000F5E700BFAFF30080AFF30080AFF3008006
:1029D00000B587B003A80021FEF732F903A8002153
:1029E000FEF74EF905990029CCBF002101210120F5
:1029F000FFF7A6FA10B107B05DF804FB2F4B304A81
:102A00009B6910689A682F4B03A90091013A4FF413
:102A10009871FDF76DFF2C4B186003A8FEF760F965
:102A200005990029CCBF002101210220FFF788FA77
:102A30000028E0D1202383F31188059B002B34DD8F
:102A4000FDF7D6FE002383F3118805990029D4BF32
:102A5000002101210320FFF773FA0028CBD105994B
:102A60004A1E514251410420FFF76AFA0028C2D1A0
:102A7000202383F31188059B002B1ADDFDF7B8FE98
:102A8000002383F3118805990029D4BF0021012177
:102A90000320FFF755FA0028ADD105994B1E594286
:102AA00059410520FFF74CFAA5E703A8FEF778F98E
:102AB000C6E703A8FEF774F9E0E700BFD0090020DD
:102AC000905E0008A12900082C100020AFF30080C0
:102AD00070B54B4C82B000212046FEF731F9B0F1C1
:102AE000FF3EDEF1000151EB0E010120FFF728FA55
:102AF00008B102B070BD21680E1B71427141022005
:102B0000FFF71EFA0028F4D1A168D1F1010138BF06
:102B100000210320FFF714FA0028EAD1394B3A4A82
:102B20009B6911689A68394B0090013A08464FF446
:102B30009871FDF7DDFE364B4FF4FA7118602046B0
:102B4000FEF7FEF80546FFF76BFAD5F1010138BF35
:102B500000210420FFF7F4F90028CAD121680D1BD9
:102B6000694269410520FFF7EBF90028C1D1A1684E
:102B7000D1F1010138BF00210620FFF7E1F900285B
:102B8000B7D1FFF795FA234BDE6841252846FFF7BA
:102B9000C7F94FF4FA711A48FEF7D2F8B0F1FF32D4
:102BA000514251410720FFF7CBF90028A1D12168FC
:102BB0000B1B594259410820FFF7C2F9002898D150
:102BC000A168D1F101014FF0090038BF0021FFF7E2
:102BD000B7F90135EDB200288BD1462DD6D10A20A8
:102BE0000D49FFF7C5F9002883D10B2006F6C41163
:102BF00006F6C91202B0BDE87040FFF7E1B900BFA8
:102C000000080020D0090020905E0008712900080B
:102C10002C100020C00900204C610008AFF3008098
:102C200010B5214B214A9B6910689A68204B214CB2
:102C300082B00021013200914FF49871FDF758FEE7
:102C40001D4B214618602046FEF7D2F821680A1B6A
:102C5000514251410120FFF773F908B102B010BD94
:102C6000A168D1F1010138BF00210220FFF768F906
:102C70000028F3D121462046FEF7BAF821680B1B45
:102C8000594259410320FFF75BF90028E6D1A168BA
:102C9000D1F101014FF0040038BF002102B0BDE8BE
:102CA0001040FFF74DB900BFD0090020905E00082A
:102CB00001290008000800202C100020AFF300803C
:102CC000F0B52A4F2A4EBB692A489C682A4D83B02A
:102CD000FEF736F9294B0093621C4FF49871284B8C
:102CE0003068FDF705FE736826492860A21C184667
:102CF0000091234B4FF49871FDF7FAFDB368224918
:102D00006860E21C184600911D4B4FF49871FDF766
:102D1000EFFDF3681D49A860221D18460091184B6D
:102D20004FF49871FDF7E4FD33691949E860621DBD
:102D300018460091124B4FF49871FDF7D9FD2861A8
:102D4000FEF726F9FFF76CF9BB6999680B1B59422E
:102D500059410120FFF7F4F808B103B0F0BD0D4967
:102D6000022003B0BDE8F040FFF702B9D00900200F
:102D7000905E00080C0800202C1000205061000814
:102D8000A12D00084061000894600008446100081B
:102D9000486100084C610008AFF30080AFF3008089
:102DA00010B504460448FEF7CBF82078FFF7B8F8D2
:102DB000FEF7EEF8002010BD0C080020AFF30080F5
:102DC00010B504460448FEF7BBF82078FFF7A8F8D2
:102DD000FEF7DEF8002010BD1C080020AFF30080D5
:102DE0000148FEF73DB800BF0C080020AFF300809B
:102DF0000148FEF735B800BF0C080020AFF3008093
:102E000008B50448FEF72CF80348BDE80840FEF773
:102E100027B800BF0C0800201C080020AFF300807A
:102E200008B50448FEF71CF80348BDE80840FEF763
:102E300017B800BF0C0800201C080020AFF300806A
:102E40000148FEF70DB800BF0C080020AFF300806A
:102E50002DE9F041204E214F214C82B0FFF728F997
:102E6000B36920499A68D1F80C801F4B3868002557
:102E7000013A4FF498710095FDF73AFDB2697B680D
:102E800092682060023A18464FF49871174B0095EB
:102E9000FDF72EFDB269BB68926860604FF49871CF
:102EA000033A18460095124BFDF722FDA060FFF78C
:102EB000B7F801200F49FFF75BF810B102B0BDE889
:102EC000F081022008F1640108F1690202B0BDE856
:102ED000F041FFF775B800BFD0090020905E0008F0
:102EE0002C100020C00900205130000831300008AB
:102EF000E12F0008D0620008AFF30080AFF300803C
:102F00002DE9F0412C4E2D4F2D4C82B0FFF7D0F81B
:102F1000B3692C499A68D1F80C802B4B386800258E
:102F2000053A4FF498710095FDF7E2FCB2697B68B1
:102F300092682060043A18464FF49871234B00952C
:102F4000FDF7D6FCB269BB6892686060033A184628
:102F50004FF498711E4B0095FDF7CAFCB269FB68EF
:102F60009268A060023A18464FF49871194B009588
:102F7000FDF7BEFCB2693B699268E0604FF498715E
:102F8000013A18460095144BFDF7B2FC2061FFF79B
:102F900047F801201149FEF7EBFF10B102B0BDE880
:102FA000F081022008F16E0108F1730202B0BDE861
:102FB000F041FFF705B800BFD0090020905E00087F
:102FC0002C100020C0090020113000080131000839
:102FD000D1300008B1300008813000084C61000891
:102FE00008B50848FDF7ACFF2820FFF731F8FDF7DA
:102FF000CFFF0A20FFF72CF84320FEF791FF0020B7
:1030000008BD00BF0C080020AFF30080AFF30080C4
:1030100008B50648FDF794FF1E20FFF719F8FDF7E5
:10302000B7FF4520FEF77CFF002008BD0C080020FC
:1030300008B51420FDF7DCFC2820FFF709F8422032
:10304000FEF76EFF002008BDAFF30080AFF30080F5
:1030500008B52820FDF7CCFC0648FDF771FF0A20D3
:10306000FEF7F6FFFDF794FF4120FEF759FF002021
:1030700008BD00BF0C080020AFF30080AFF3008054
:1030800008B53220FDF7B4FC0648FDF759FF0A20C9
:10309000FEF7DEFFFDF77CFF4120FEF741FF002039
:1030A00008BD00BF1C080020AFF30080AFF3008014
:1030B00008B52820FDF79CFC1420FEF7C9FF42202C
:1030C000FEF72EFF002008BDAFF30080AFF30080B5
:1030D00008B51420FDF78CFC0648FDF731FF0A20E7
:1030E000FEF7B6FFFDF754FF4320FEF719FF00205F
:1030F00008BD00BF1C080020AFF30080AFF30080C4
:1031000008B50A20FDF774FC0B48FDF719FF1420E1
:10311000FEF79EFF0948FDF713FF0A20FEF798FF10
:10312000FDF736FF0A20FEF793FFFDF731FF44203D
:10313000FEF7F6FE002008BD1C0800200C08002049
:1031400008B59620FDF754FC0348FDF7F9FEFDF79E
:103150001FFF002008BD00BF0C080020AFF3008057
:1031600008B53220FDF744FC0348FDF7E9FEFDF702
:103170000FFF002008BD00BF1C080020AFF3008037
:103180002DE9F0468A4D8B4EAB6932689C688A4BBC
:103190008A4F85B004F10109039200934A464FF427
:1031A0009871874B0398FDF7A3FB7668854B3860D1
:1031B00004F1020A4FF49871524600933046824B54
:1031C000FDF796FB78608148FDF7BAFEAB69996818
:1031D000B1EB040CDCF1000151EB0C010120FEF716
:1031E000AFFE10B105B0BDE8F0866420FDF700FC2D
:1031F000AB699968B1EB090EDEF1000151EB0E01EC
:103200000220FEF79DFE0028ECD17148FDF798FEE4
:10321000AB699968B1EB0902514251410320FEF7B5
:103220008FFE0028DED16420FDF7E2FBAB699968D0
:10323000B1EB0A03594259410420FEF781FE0028F0
:10324000D0D1FDF7A5FEAB699968B1EB090CDCF1B3
:10325000000151EB0C010520FEF772FE0028C1D1E0
:103260006420FDF7C5FBAB699968B1EB090EDEF18F
:10327000000151EB0E010620FEF762FE0028B1D1DD
:10328000FDF7E6FEAB6999680A1B514251410720E0
:10329000FEF756FE0028A5D1FEF7C2FE4D4B009367
:1032A0004FF498714A46464B0398FDF721FB4A4B71
:1032B00038604FF4987100935246434B3046FDF707
:1032C00017FB78604148FDF73BFEAB6999680B1B23
:1032D000594259410820FEF733FE002882D164206C
:1032E000FDF786FBAB699968B1EB090CDCF10001D5
:1032F00051EB0C010920FEF723FE00287FF472AF8A
:103300003348FDF71DFEAB699968B1EB090EDEF19C
:10331000000151EB0E010A20FEF712FE00287FF497
:1033200061AF6420FDF764FBAB699968B1EB0A07F4
:10333000794279410B20FEF703FE00287FF452AF5B
:10334000202383F31188FDF75BFEFDF751FA00237C
:1033500083F31188AB699968B1EB09067142714139
:103360000C20FEF7EDFD00287FF43CAF6420FDF754
:103370003FFBAB699968B1EB0902514251410D2005
:10338000FEF7DEFD00287FF42DAFFDF761FEAB698F
:1033900099680B1B594259410E20FEF7D1FD0028B8
:1033A0007FF420AF05B0BDE8F046FEF739BE00BFA0
:1033B000D0090020905E0008446100082C10002015
:1033C0006131000848610008413100081C080020F4
:1033D0000C0800204061000894600008AFF30080F2
:1033E000F8B52B4D2B4CAB6920469E68FDF7B8FD18
:1033F00001460120FEF7A4FD00B1F8BD2046FDF70F
:10340000AFFD80F00101C9B20220FEF799FD00284E
:10341000F3D1202383F31188FDF7F2FD002383F31A
:1034200011882168081B414241410320FEF788FDB5
:103430000028E2D1A168D1F1010138BF00210420A8
:10344000FEF77EFD0028D8D1AB6999688A1B5142EE
:1034500051410520FEF774FD0028CED12046FDF72E
:103460006FFDFDF7F5FD21680B1B59425941062000
:10347000FEF766FD0028C0D1A168D1F101014FF02F
:10348000070038BF0021BDE8F840FEF759BD00BF76
:10349000D00900200C080020AFF30080AFF30080BB
:1034A000F0B52F4B2F4F9B692F4D9E682F4B3868DF
:1034B0002F4C83B0721C00934FF498712B46FDF78C
:1034C00017FA7B682B492060B21C009118464FF414
:1034D00098712B46FDF70CFABB6827496060F21C17
:1034E000009118464FF498712B46FDF701FAFB68DE
:1034F0002249A060321D009118464FF498712B4666
:10350000FDF7F6F93B691E49E060721D009118460F
:103510004FF498712B46FDF7EBF92023206183F3DC
:103520001188184C2046FDF7E3FD2046FDF7E0FD2D
:103530002046FDF7DDFD2046FDF7DAFD2046FDF7CC
:10354000D7FDFDF755F9002383F31188FEF768FDD9
:103550000D49012003B0BDE8F040FEF709BD00BFF2
:10356000D0090020905E00089135000850610008E5
:103570002C1000204061000894600008446100089D
:10358000486100082C0800204C610008AFF300805F
:1035900010B504460648FDF7D3FC0648FDF708FEC3
:1035A0002078FEF7BDFCFDF7F3FC002010BD00BF46
:1035B0000C0800202C080020AFF30080AFF300803F
:1035C00008B50448FDF774FD0348BDE80840FDF761
:1035D00047BC00BF2C0800200C080020AFF300807F
:1035E00008B50448FDF764FD0348BDE80840FDF751
:1035F00037BC00BF2C0800200C080020AFF300806F
:1036000008B50548FDF754FD0448FDF729FC0448BA
:10361000BDE80840FDF724BC2C0800200C08002061
:103620001C080020AFF30080AFF30080AFF30080F0
:10363000F0B5244B244F9B69244D9E68244B386879
:10364000244C83B0721C00934FF498712B46FDF705
:103650004FF97B6820492060B21C009118464FF456
:1036600098712B46FDF744F9BB681C496060F21C59
:10367000009118464FF498712B46FDF739F9FB6815
:103680001749A060321D009118464FF498712B46DF
:10369000FDF72EF93B691349E060721D0091184651
:1036A0004FF498712B46FDF723F920610E48FDF782
:1036B00047FDFEF7B5FC0D49012003B0BDE8F04021
:1036C000FEF756BCD0090020905E00089135000836
:1036D000506100082C100020406100089460000830
:1036E00044610008486100082C0800204C61000873
:1036F000F0B51B4B1B4E9B6930689D681A4B1B4CE9
:103700001B4F83B06A1C00934FF49871194BFDF75F
:10371000EFF8736818492060AA1C009118464FF40E
:103720009871164BFDF7E4F8B168154B6060EA1C20
:1037300000930846134B4FF49871FDF7D9F8A06039
:103740003846FDF7BDFC3846FDF7BAFCFEF768FCCD
:103750000D49012003B0BDE8F040FEF709BC00BFF1
:10376000D0090020905E0008486100082C1000205D
:103770002C0800209137000894600008913500085B
:1037800044610008C12D0008D0620008AFF300803A
:1037900010B504460948FDF7D3FB0948FDF7D0FBF7
:1037A0004FF0FF310748FDF73BFD2078FEF7B8FBEF
:1037B000FDF7EEFBFDF7ECFB002010BD1C08002020
:1037C0000C0800202C080020AFF30080AFF300802D
:1037D00010B5184A184B916918688A68174B82B05F
:1037E000013200914FF49871FDF782F8144B186084
:1037F000FDF7DEFE446B2146FDF7FAFEE0B2FEF770
:103800008FFBFDF7D5FE446B2146FDF7F1FEE0B2DC
:10381000FEF786FBFDF7CCFE446B2146FDF7E8FE84
:10382000E0B2FEF77DFB0749012002B0BDE8104081
:10383000FEF79EBBD0090020905E000851380008BA
:103840002C100020D0620008AFF30080AFF300809E
:1038500010B541210446FDF78BFE20464221FDF7BD
:1038600087FE20464321FDF783FE002010BD00BFE8
:1038700070B5634D696AB1F1050EDEF1000182B0E9
:1038800051EB0E010120FEF75BFBF8B94224214603
:103890005B484FF0FF32FDF713FFD0F1010138BF55
:1038A000002102200134FEF74BFB78B9462CEED103
:1038B000412153484FF0FF32FDF752FFD0F1010193
:1038C00038BF00210320FEF73BFB08B102B070BDFA
:1038D00058214B480122FDF7F3FEB0F1FF3671424B
:1038E00071410420FEF72CFB0028EFD1202383F345
:1038F000118858214248FDF7F3FE0023014683F367
:103900001188B1F1FF34614261410520FEF718FBD7
:103910000028DBD1582101223948FDF721FFB0F101
:10392000FF32514251410620FEF70AFB0028CDD15B
:10393000202383F3118858213148FDF721FF00230C
:10394000014683F31188B1F1FF33594259410720F1
:10395000FEF7F6FA0028B9D1202383F31188696AAB
:10396000D1F101014FF0080038BF0021FEF7E8FA5D
:10397000034618B1002383F31188A7E783F3118866
:10398000202383F31188A969B1F1050CDCF1000152
:103990004FF0090051EB0C01FEF7D2FA0346002864
:1039A000E8D183F31188202383F31188E968AB6899
:1039B000B1EB030EDEF100014FF00A0051EB0E01F6
:1039C000FEF7BEFA00230028D5D183F3118805261F
:1039D00005E09DF80400FEF7A3FA013E12D0084C62
:1039E00001A920464FF0FF32FDF702FFD0F101019F
:1039F00038BF00210B20FEF7A3FA0028E9D065E7C5
:103A0000340800200C20C949FEF7B2FA00287FF4E0
:103A10005DAF472120464FF0FF32FDF751FED0F158
:103A2000010138BF00210D20FEF78AFA00287FF43B
:103A30004DAF01A920464FF0FF32FDF7D9FED0F17E
:103A4000010138BF00210E20FEF77AFA00287FF42A
:103A50003DAF2168A368CE1A714271410F20FEF775
:103A60006FFA00287FF432AF2168E368CA1A514226
:103A700051411020FEF764FA00287FF427AF01A916
:103A800020460122FDF7B4FEB0F1FF3359425941FF
:103A90001120FEF755FA00287FF418AF202383F396
:103AA000118801A92046FDF7B3FE0023014683F3E8
:103AB0001188B1F1FF3CDCF1000151EB0C01122047
:103AC000FEF73EFA00287FF401AF202383F311882C
:103AD000696AB1F1050EDEF100014FF0130051EB00
:103AE0000E01FEF72DFA002300287FF444AF83F384
:103AF0001188202383F31188A969D1F101014FF0C6
:103B0000140038BF0021FEF71BFA034600287FF49B
:103B100031AF83F31188202383F31188E968AB6800
:103B2000CE1A71424FF015007141FEF709FA0346B3
:103B300000287FF41FAF83F31188202383F31188BB
:103B400041217B48FDF7CCFDD0F1010138BF0021B8
:103B50001620FEF7F5F900287FF4B8AE422174482C
:103B6000FDF7BEFDD0F1010138BF00211720FEF79F
:103B7000E7F900287FF4AAAE43216D48FDF7B0FDB8
:103B8000D0F1010138BF00211820FEF7D9F9002833
:103B90007FF49CAE44216648FDF7A2FDD0F10101FF
:103BA00038BF00211920FEF7CBF9044600287FF426
:103BB0008DAE45215E48FDF793FD2346014683F314
:103BC0001188D1F1010138BF00211A20FEF7B8F9A0
:103BD00000287FF47BAEE968AB68CC1A6142614192
:103BE0001B20FEF7ADF900287FF470AE05242023DA
:103BF00083F311884E4801A9FDF70AFE0023014610
:103C000083F31188D1F1010138BF00211C20FEF798
:103C100097F900287FF45AAE9DF80400FEF780F96A
:103C2000013CE4D11D204149FEF7A2F900287FF4B0
:103C30004DAE202383F31188696A4A1F51424FF029
:103C40001E005141FEF77CF9034600287FF492AE36
:103C500083F31188202383F31188A969D1F101012D
:103C60004FF01F0038BF0021FEF76AF90346002815
:103C70007FF480AE83F31188E968AB68CB1A5942B0
:103C800059412020FEF75CF900287FF41FAE202365
:103C900083F3118845212648FDF772FDD0F101011B
:103CA00038BF00212120FEF74BF900287FF40EAE2B
:103CB00044211F48FDF764FDD0F1010138BF002108
:103CC0002220FEF73DF900287FF400AE432118487A
:103CD000FDF756FDD0F1010138BF00212320FEF78A
:103CE0002FF900287FF4F2AD42211148FDF748FD7D
:103CF000D0F1010138BF00212420FEF721F900286E
:103D00007FF4E4AD41210A48FDF73AFD0023014666
:103D100083F31188D1F1010138BF00212520FEF77E
:103D20000FF900287FF4D2AD04E000BF4C61000819
:103D300034080020E968AB68B1EB030CDCF100014A
:103D400051EB0C012620FEF7FBF800287FF4BEADF6
:103D50000524202383F31188494801A9FDF758FD64
:103D60000023014683F31188D1F1010138BF0021FE
:103D70002720FEF7E5F800287FF4A8AD9DF80400A1
:103D8000FEF7CEF8013CE4D128203E49FEF7F0F8DA
:103D900000287FF49BAD202383F31188696AB1F179
:103DA000050EDEF100014FF0290051EB0E01FEF788
:103DB000C7F8034600287FF4DDAD83F31188202384
:103DC00083F31188A969D1F101014FF02A0038BFAE
:103DD0000021FEF7B5F8034600287FF4CBAD83F34E
:103DE0001188E968AB68CE1A714271412B20FEF749
:103DF000A7F800287FF46AAD2148FDF721FC2023B5
:103E000083F31188696A4C1F61424FF02C006141B5
:103E1000FEF796F8034600287FF4ACAD83F31188D3
:103E2000202383F31188A969D1F101014FF02D00FE
:103E300038BF0021FEF784F8034600287FF49AADCE
:103E400083F31188202383F311882968AB68CA1A89
:103E500051424FF02E005141FEF772F80346002800
:103E60007FF488AD83F31188202383F311882968B8
:103E7000EB68CB1A594259412F20FEF761F879E5DA
:103E8000340800204C610008AFF30080AFF30080DD
:103E9000024803490522FDF7BBBB00BF34080020E0
:103EA000180A0020AFF30080AFF30080AFF300806A
:103EB00010B51D4C88B02046694601222460FDF7EC
:103EC000BFF9204604A90222FDF7BAF92168091BAF
:103ED00018BF01210120FEF733F808B108B010BD6A
:103EE00069462046FDF7C4F92168091B18BF012166
:103EF0000220FEF725F80028F0D104A92046FDF79E
:103F0000B7F921680B1B594259410320FEF718F8F5
:103F10000028E3D105480721FDF72AFA04490420C7
:103F2000FEF726F8DAE700BF5C08002030650008DD
:103F3000D0620008AFF30080AFF30080AFF30080E1
:103F40004320FDF7EDBF00BFAFF30080AFF300806B
:103F50004220FDF7E5BF00BFAFF30080AFF3008064
:103F60004120FDF7DDBF00BFAFF30080AFF300805D
:103F70004FF0FF30FDF794B9AFF30080AFF300804E
:103F80004FF0FF30FDF78CB9AFF30080AFF3008046
:103F90004FF0FF30FDF784B9AFF30080AFF300803E
:103FA0002DE9F04205208CB0FDF78AF94FF0FF3083
:103FB000FDF7F6F9B0F10109D9F1000151EB090162
:103FC0000120FDF7BDFF10B10CB0BDE8F0824FF04D
:103FD000FF30FDF7E5F9B0F1040CDCF1000151EB25
:103FE0000C010220FDF7ACFF0028EDD14FF0FF30AF
:103FF000FDF756F9D0F1010138BF00210320FDF78C
:104000009FFF0028E0D1734D734F744EFEF750F8B8
:10401000AB6973499A6809680093013A03910846AD
:10402000704BFC684FF49871FCF762FC30604FF005
:10403000FF30FDF7B5F904F13201814604F1370292
:104040000420FDF7BDFF0028BED1B9F1010EDEF15D
:10405000000151EB0E010520FDF772FF0028B3D1DE
:104060004FF0FF30FDF71CF9D0F1010138BF0021FE
:104070000620FDF765FF0028A6D1FDF7D1FF05203A
:10408000FDF71EF94FF0FF30FDF7AAF9441F61421A
:1040900061410720FDF754FF002895D14FF0FF3014
:1040A000FDF7FEF8D0F1010138BF00210820FDF72F
:1040B00047FF002888D1FDF7FBFFA969494B8A68B3
:1040C00003980091013A4FF49871FC68FCF710FCDA
:1040D00030604FF0FF30FDF783F904F13201814683
:1040E00004F137020920FDF76BFF00287FF46CAF65
:1040F000B9F10100414241410A20FDF721FF0028AA
:104100007FF462AF4FF0FF30FDF7CAF8D0F1010144
:1041100038BF00210B20FDF713FF00287FF454AFB8
:10412000DFF8D090304CFDF77BFF484604A9012210
:10413000C9F800902460FDF783F808A904222046FE
:10414000FDF77EF8FDF7B4FFAB6928499A6803983C
:104150000091013A4FF49871254BFD68FCF7C8FBBC
:1041600030600520FDF75CF905F1320105F13702F9
:104170000C20FDF725FF00287FF426AF4FF0FF301D
:10418000FDF78EF8D0F1010138BF00210D20FDF7B9
:10419000D7FE00287FF418AFFDF742FF484604A978
:1041A000FDF766F8204608A9FDF762F8D9F8001077
:1041B000B1EB0902514251410E20FDF7C1FE00282A
:1041C0007FF402AF21680B1B594259410F20FDF7C4
:1041D000B7FEF9E6D0090020C00900202C1000200D
:1041E000905E000831420008600800204861000825
:1041F000014200085C080020AFF30080AFF30080AC
:1042000008B500210548FDF7A3F83220FCF7F0FBC4
:1042100003480021FDF79CF8002008BD5C08002041
:1042200060080020AFF30080AFF30080AFF30080A0
:1042300010B504463220FCF7DBFB20460121FDF7D8
:1042400077F8002010BD00BFAFF30080AFF300800F
:1042500008B500214FF0FF30FDF702F9D0F1010160
:1042600038BF00210120FDF76BFE00B108BD0146FB
:104270004FF0FF30FDF724F9D0F1010138BF0021E4
:104280000220FDF75DFE0028F0D101464FF0FF301F
:10429000FDF746F9D0F1010138BF00210320FDF7F9
:1042A0004FFE0028E2D10A214FF0FF30FDF7D8F889
:1042B000D0F1010138BF00210420FDF741FE0028A4
:1042C000D4D10A214FF0FF30FDF7FAF8D0F1010107
:1042D00038BF00210520FDF733FE0028C6D10A2192
:1042E0004FF0FF30FDF71CF9D0F1010138BF00217C
:1042F0000620BDE80840FDF723BE00BFAFF30080F5
:1043000070B582B0FDF76CFC01A90020FDF728FD17
:1043100010210020FDF794FC011C044618BF012168
:104320000120FDF70DFE054608B102B070BD204624
:10433000FDF7C6FC6FF0FF012846FDF781FCD0F1C8
:10434000010138BF00210220FDF7FAFD0028ECD161
:1043500001A97B48FDF704FD10217948FDF770FCA9
:10436000102105467648FDF76BFC10210446744881
:10437000FDF766FC06462846FDF7A2FC2046FDF741
:104380009FFC3046FDF79CFC69466D48FDF7E8FC54
:10439000421E514251410320FDF7D2FD0028C4D1F5
:1043A00010216748FDF74CFC102104466448FDF7D6
:1043B00047FC102105466248FDF742FCFDF780FCF2
:1043C0002846FDF77DFC2046FDF77AFC69465C48EF
:1043D000FDF7C6FC431E594259410420FDF7B0FDCC
:1043E0000028A2D111215648FDF72AFC10210446CD
:1043F0005348FDF725FC05462046FDF761FC69465C
:104400004F48FDF7ADFCB0F1020CDCF1000151EBBF
:104410000C010520FDF794FD002886D110214848A5
:10442000FDF70EFC694604464548FDF799FC012856
:1044300000F0838069464248FDF792FCB0F1020E1D
:10444000DEF1000151EB0E010620FDF779FD002899
:104450007FF46BAF2846FDF733FC2046FDF730FCB8
:1044600069463748FDF77CFC461E714271410720C2
:10447000FDF766FD00287FF458AF10213048FDF7A6
:10448000DFFB102105462E48FDF7DAFB04462846DF
:10449000FDF716FC69462A48FDF762FC851E694255
:1044A00069410820FDF74CFD00287FF43EAF202134
:1044B0002348FDF7C5FBFDF703FC2046FDF700FC94
:1044C00069461F48FDF74CFC013841424141092033
:1044D000FDF736FD00287FF428AF69461848FDF740
:1044E0003FFC00991648FDF7ABFB694604461448AB
:1044F000FDF736FCD0F1010138BF00210A20FDF79D
:104500001FFD00287FF411AF2046FDF7D9FB694657
:104510000B48FDF725FC421E514251410B20FDF78F
:104520000FFD00287FF401AF9DE80A00CB1A594225
:1045300059410C20FDF704FDF7E6014684E700BF72
:1045400058100020AFF30080AFF30080AFF300807D
:10455000024803494FF4BE62FDF762BB58100020C9
:10456000180A0020AFF30080AFF30080AFF30080A3
:1045700000207047AFF30080AFF30080AFF30080FE
:1045800002484FF498710022FDF70ABC640800202D
:1045900038B52C4B2C481D6805222946FDF708FC30
:1045A00005242948FDF714FC011C18BF0121012036
:1045B000FDF7C6FCA0BB013CF3D12348FDF708FC86
:1045C000D0F1010138BF00210220FDF7B9FC38BB52
:1045D0001C4C1D48294604F11005FDF711FCAC42A6
:1045E00006D054F8041F1848FDF70AFCAC42F8D175
:1045F00005241548FDF7ECFB011C18BF0121032021
:10460000FDF79EFC60B9013CF3D10F48FDF7E0FBDC
:10461000D0F1010138BF00210420FDF791FC00B169
:1046200038BD10210848094AFDF7BAFB0648FDF7D6
:10463000CFFBD0F1010138BF00210520BDE8384093
:10464000FDF77EBC905E00086408002071450008FC
:1046500070B5334B33489B69334C9D6884B003A9D4
:10466000FDF77EFB314B00936A1E314B2D484FF412
:104670009871FCF77DFA2F4B2060AA1E00934FF42F
:1046800098712B4B2748FCF773FA02A96060254804
:10469000FDF766FB02992348FDF7D2FA264B0093FB
:1046A0004FF498710646EA1E214B1E48FCF760FA4B
:1046B000A0603046FDF704FB216821B1616811B1AB
:1046C000A16819B300210120FDF73AFC08B104B03C
:1046D00070BDFDF7A5FC02201849FDF749FC002834
:1046E000F5D102A90F48FDF73BFB421E5142514153
:1046F0000320FDF725FC0028E9D10299039BCB1A82
:10470000594259410420FDF71BFCE0E7E368002B08
:10471000D9D12169D1F1010138BF0021D3E700BF10
:10472000D0090020881000202C10002048610008CB
:1047300041470008446100089460000810660008C2
:1047400008B50078FDF7ECFB002008BDAFF3008052
:10475000024803494FF4BE62FDF762BA8810002098
:10476000180A0020AFF30080AFF30080AFF30080A1
:10477000024803494FF4BE62FDF752BA8810002088
:10478000180A0020AFF30080AFF30080AFF3008081
:10479000324B9B6970B5324C9D6804F1100654F899
:1047A000041F3048FDF72CFBB442F8D12E4A2F4BA2
:1047B0002C482F4C691EFCF7FBF9A91E20602A4AE1
:1047C0002C4B2848FCF7F4F9E91E6060264A2A4B76
:1047D0002448FCF7EDF9291FA060234A274B214804
:1047E000FCF7E6F9691FE0601F4A1E48244BFCF7FE
:1047F000DFF92168206149B1616839B1A16829B147
:10480000E16819B1D0F1010138BF00210120FDF7A5
:1048100097FB00B170BDFDF703FC02201949FDF7BD
:10482000A7FB0028F6D104240E48FDF7D1FA011C9D
:1048300018BF01210320FDF783FB0028EAD1013CCA
:10484000F2D10848FDF7C4FAD0F1010138BF0021C8
:104850000420BDE87040FDF773BB00BFD009002005
:104860008C5E00087810002041470008486100086D
:104870002C1000204461000894600008406100088A
:104880005061000814660008AFF30080AFF30080A9
:1048900002484FF498710022FDF782BA7810002088
:1048A00038B50546FCF7A4F9002403461846AB4288
:1048B00008BF44F00104FCF7ABF903460028F5D12A
:1048C000204638BDAFF30080AFF30080AFF3008027
:1048D00010B5494B49499B6949489A68494B82B090
:1048E000013A00914FF49871FCF742F90446012017
:1048F000A17FB1EB000CDCF1000151EB0C01FDF7E5
:104900001FFB08B102B010BD2046FCF7F9F8A17FEB
:104910000220B1EB000EDEF1000151EB0E01FDF7BC
:104920000FFB0028EED12046FCF7FAF8A17F4A1EC3
:10493000514251410320FDF703FB0028E2D12046FC
:10494000FFF7AEFF01460420FDF7FAFA0028D9D19F
:104950002046FFF7A5FF01460520FDF7F1FA0028E4
:10496000D0D12046FCF7DCF8A17FD1F1010138BF9E
:1049700000210620FDF7E4FA0028C3D1217FD1F100
:10498000010138BF00210720FDF7DAFA0028B9D16C
:104990002046FFF785FF01460820FDF7D1FA0028E1
:1049A000B0D12046FFF77CFF01460920FDF7C8FA89
:1049B0000028A7D13220FCF71BF8217FB1F10E03AC
:1049C000594259410A20FDF7BBFA00289AD12046E6
:1049D000FFF766FF01460B20FDF7B2FA002891D1E0
:1049E0002046FFF75DFF80F00101C9B20C2002B044
:1049F000BDE81040FDF7A4BAD009002048610008C6
:104A00008810002041470008AFF30080AFF300801A
:104A1000704700BFAFF30080AFF30080AFF30080BA
:104A200008B5C8210248FCF77BFF002008BD00BF85
:104A300094080020AFF30080AFF30080AFF3008054
:104A400000B5064B06481968064B83B00022009259
:104A50000422FCF715FF03B05DF804FB905E00082C
:104A600094080020114A0008AFF30080AFF30080E3
:104A700008B50021C8220248FCF7E2FF002008BD6B
:104A800070080020AFF30080AFF30080AFF3008028
:104A900000B5064B06481968064B83B00022009209
:104AA0000422FCF7A5FF03B05DF804FB905E00084C
:104AB00070080020114A0008AFF30080AFF30080B7
:104AC00070B5202382B083F31188944DA968D1F189
:104AD00001014FF0010038BF0021FDF731FA064611
:104AE000F8B9034683F31188202383F31188412406
:104AF000214601348948E4B2FCF7EAFE452CF7D19F
:104B0000002383F31188202383F311886A69AB693A
:104B100082499A4200F0FC8031460220FDF710FAEB
:104B200020B1002383F3118802B070BD034683F3E4
:104B30001188202383F3118800217848FCF7C8FEF0
:104B4000043014BF002101210320FDF7F9F90028EA
:104B5000E7D1034683F3118804244FF0FF316F48F7
:104B6000FCF7DEFEC0B2FDF7DBF9013CF5D12023F6
:104B700083F31188A968D1F1010138BF0021042015
:104B8000FDF7DEF90028CCD1034683F31188052018
:104B90006349FDF7EDF90028C6D1202383F311887E
:104BA0004124214601345D48E4B2FCF791FE452CD6
:104BB000F7D1002383F311885A4E584871680822B0
:104BC000FCF7D6FE041F614261410620FDF7B8F9EB
:104BD0000028A9D1202383F31188A968D1F101010C
:104BE00038BF00210720FDF7ABF9002899D1034613
:104BF00083F31188202383F3118841242146013453
:104C00004648E4B2FCF764FE452CF7D1002383F359
:104C100011887468414821460222FCF7A9FE023837
:104C2000414241410820FDF78BF900287FF47CAF19
:104C30002146034602223948FCF79AFE821E514261
:104C400051410920FDF77CF900287FF46DAF202346
:104C500083F31188A968D1F101014FF00A0038BF30
:104C60000021FDF76DF9034600287FF45AAF83F366
:104C70001188202383F3118800212848FCF728FE9F
:104C80002648FCF70DFE002383F31188202383F3CD
:104C90001188A968D1F101014FF00B0038BF002144
:104CA000FDF74EF9034600287FF43BAF83F31188EC
:104CB0001D4B30689A691D4B9268002100910132AA
:104CC0004FF49871FBF714FE194A2023106083F308
:104CD0001188A968D1F101014FF00C0038BF002103
:104CE000FDF72EF9034600287FF41BAF83F31188EC
:104CF000FDF796F90A210948FCF712FEB0F1FF33DF
:104D0000594259410D2002B0BDE87040FDF718B975
:104D10008E68003618BF0126FEE600BF940800200A
:104D200014660008905E0008D0090020214A00089F
:104D30002C100020AFF30080AFF30080AFF30080B1
:104D400070B5202382B083F311888B4D6A69AB69FB
:104D50009A4200F0F68000210120FDF7F1F80028CA
:104D60003BD1034683F31188412421460134824814
:104D70004FF0FF32E4B2FCF763FE452CF5D120235F
:104D800083F31188A968D1F101014FF0020038BF07
:104D90000021FDF7D5F80646F8B9034683F31188DC
:104DA0000424202383F311887348FCF779FE002341
:104DB00083F31188C0B2FDF7B3F8013CF1D1202391
:104DC00083F311886A69AB696B499A4200F0BE802F
:104DD00031460320FDF7B4F820B1002383F3118896
:104DE00002B070BD034683F3118804206349FDF7C8
:104DF000BFF80028F4D1202383F311885E48FCF724
:104E00004FFE033014BF002101210520FDF798F863
:104E10000028E2D1034683F31188594C5648616853
:104E200008220023FCF764FEB0F1040CDCF1000161
:104E300051EB0C010620FDF783F80028D0D1202388
:104E400083F31188A968D1F1010138BF002107203F
:104E5000FDF776F80028C0D1034683F31188494B4B
:104E600020689A69484B92680021009101324FF402
:104E70009871FBF73DFD454A2023106083F31188AC
:104E80002969EA68AB688A1AD11AB1F1040EDEF119
:104E9000000151EB0E010820FDF752F803460028EF
:104EA0009BD183F31188FDF7BBF8202383F311888E
:104EB0003148FCF7ADFD002383F31188202383F3F1
:104EC00011882969EA68AB68891ACE1A7142714162
:104ED0000920FDF735F8034600287FF47EAF83F301
:104EE000118864682448002321460222FCF700FE52
:104EF0000238414241410A20FDF722F803460028CA
:104F00007FF46EAF214602221B48FCF7F1FD821EA2
:104F1000514251410B20FDF713F800287FF460AF98
:104F2000202383F31188A968D1F101014FF00C000F
:104F300038BF0021FDF704F8002360B183F3118826
:104F40004EE7A968003118BF012105E78E680036D9
:104F500018BF01263CE783F3118800210A22064886
:104F6000FCF76EFDB0F1FF33594259410D2002B0FC
:104F7000BDE87040FCF7E4BF70080020146600082C
:104F8000905E0008D0090020714A00082C10002013
:104F9000704700BFAFF30080AFF30080AFF3008035
:104FA000704700BFAFF30080AFF30080AFF3008025
:104FB00010B52F482F4CFCF78BFF4FF4CA70FCF74D
:104FC0004FFF2046FCF794FF2B48FCF781FF482059
:104FD000FCF746FF2046FCF78BFF2848FCF778FFDC
:104FE0001420FCF73DFF2046FCF782FF2448FCF725
:104FF0006FFF0C20FCF734FF2046FCF779FF2148B7
:10500000FCF766FF0420FCF72BFF2046FCF770FF3F
:105010001D48FCF75DFF1020FCF722FF2046FCF73F
:1050200067FF1A48FCF754FF1020FCF719FF2046D1
:10503000FCF75EFF1648FCF74BFF0820FCF710FF5B
:105040002046FCF755FF1348FCF742FF2420FCF7ED
:1050500007FF2046FCF74CFF0F48FCF739FF2820DC
:10506000FCF7FEFE2046BDE81040FCF741BF00BF44
:10507000B0670008C0670008C8670008D867000864
:10508000E8670008F8670008086800081868000862
:10509000286800083868000848680008AFF30080F6
:1050A00010B5FCF785FA446B2146FCF7A1FA002CF9
:1050B000F7D1204610BD00BFAFF30080AFF30080F2
:1050C0002DE9F041144B154A9B69D2F800809E6887
:1050D000134F82B0FCF7ECFF4FF47A70FCF7F8FF47
:1050E0000024013625460F4B009540464FF4987139
:1050F0003246FBF7FDFB3B780134002BF3D00A4826
:10510000FCF7E6FE2046FCF7ABFE084802B0BDE81F
:10511000F041FCF7EDBE00BFD0090020905E000812
:105120000D100020914F00085868000868680008BA
:1051300070B50546FCF7BCFF4FF47A70FCF7C8FF6A
:10514000074E002428460121FCF712FA3378013477
:10515000002BF7D028460021FCF70AFA204670BD44
:105160000D100020AFF30080AFF30080AFF300809C
:1051700010B5134B134A9B6910689A68124B82B0A2
:105180000021013A00914FF49871FBF7B1FB0F4BEE
:105190001860FFF7CDFF0446FCF742FF0C48FCF710
:1051A00097FE2046FCF75CFE0A48FCF791FE600083
:1051B000FCF756FE084802B0BDE81040FCF798BE68
:1051C000D0090020905E0008A15000082C1000209B
:1051D000586800087468000880680008AFF3008011
:1051E00010B5134B134A9B6910689A68124B82B032
:1051F0000021013200914FF49871FBF779FB0F4BBE
:105200001860FFF795FF0446FCF70AFF0C48FCF70F
:105210005FFE2046FCF724FE0A48FCF759FE6000BA
:10522000FCF71EFE084802B0BDE81040FCF760BE67
:10523000D0090020905E0008A15000082C1000202A
:10524000586800087468000880680008AFF30080A0
:105250002DE9F0412C4F2D4EBB6930689A682C4BDC
:105260002C4CDFF8C08082B00025013200954FF44D
:105270009871FBF73DFBBA69736892682060023A47
:10528000009518464FF498714346FBF731FBBA6915
:10529000B36892686060033A009518464FF49871BD
:1052A0004346FBF725FBBA69F3689268A060043AAD
:1052B000009518464FF498714346FBF719FBBA69FD
:1052C00033699268E060053A4FF49871184600958A
:1052D0004346FBF70DFB20612068FFF729FF0446DA
:1052E000FCF79EFE0C48FCF7F3FD2046FCF7B8FDEA
:1052F0000A48FCF7EDFD6000FCF7B2FD084802B07B
:10530000BDE8F041FCF7F4BDD0090020905E000834
:10531000A15000082C10002058680008746800088C
:1053200080680008914F0008AFF30080AFF3008061
:10533000084A10B52023946983F311880220FBF7F3
:10534000A7F9636A002BF9D0002383F311880020AA
:1053500010BD00BFD0090020AFF30080AFF3008084
:1053600070B5254B254A9B6910689A68244B254ED9
:1053700082B0002501324FF498710095FBF7B8FA1E
:10538000214B04461860FCF793FE4FF47A70FCF74B
:105390009FFE202383F3118800212046FBF7B8F9F4
:1053A00020460021FBF7B4F920460021FBF7B0F9B5
:1053B00020460021FBF7ACF9002383F311883378F2
:1053C0000435002BE5D0202383F311884FF0FF3103
:1053D0002046FBF79DF9002383F31188FCF720FE9C
:1053E0000A48FCF775FD6800FCF73AFD084802B072
:1053F000BDE87040FCF77CBDD0090020905E00083D
:10540000315300080D1000202C10002058680008AF
:1054100080680008AFF30080AFF30080AFF3008036
:105420002DE9F041154B164A9B69D2F800809E6821
:10543000144F82B0FCF73CFE4FF47A70FCF748FE44
:105440000024013E2546104B00954FF498713246DA
:105450004046FBF74DFAFBF733FB3B780134002B5A
:10546000F1D00A48FCF734FD2046FCF7F9FC084867
:1054700002B0BDE8F041FCF73BBD00BFD009002001
:10548000905E00080D100020914F00085868000839
:1054900068680008AFF30080AFF30080AFF30080CE
:1054A0002DE9F041DFF80081374FD8F8183038681F
:1054B0009A68364B364E374D82B0002405324FF491
:1054C00098710094FBF714FAD8F818207B6892685A
:1054D0003060043218464FF498712C4B0094FBF75F
:1054E00007FAD8F81820BB68926870600332184633
:1054F0004FF49871254B0094FBF7FAF9D8F818206F
:10550000FB689268B060023218464FF498711F4BE6
:105510000094FBF7EDF9D8F818203B699268F06029
:10552000013218464FF49871184B0094FBF7E0F9DC
:105530003061FCF7BDFD4FF47A70FCF7C9FD1648E9
:105540000021FBF79DFB2B780134002BF7D0FCF7F3
:1055500057FD00211048FBF793FBFCF761FD0F4856
:10556000FCF7B6FC2046FCF77BFC0D48FCF7B0FCD2
:1055700004EB44004000FCF773FC0A4802B0BDE8AD
:10558000F041FCF7B5BC00BF905E0008B1550008C3
:105590002C1000200D100020001100205868000879
:1055A0008C68000880680008D0090020AFF30080F4
:1055B00010B5074CA3695B7F5A0706D40548FBF773
:1055C0008FFBA3695B7F5B07F8D5002010BD00BF90
:1055D000D009002000110020AFF30080AFF300805D
:1055E00001480021FBF72CBB00110020AFF3008025
:1055F00001480121FBF724BB00110020AFF300801C
:105600002DE9F04184B004ACDFF8CC802D4F2E4E54
:105610002E4D002344F8043DFCF74AFDD8F818301D
:1056200038689A6800943346013A4FF49871FBF752
:105630005FF9D8F818207B6892682860013A0094D6
:1056400018464FF498713346FBF752F9D8F81820F2
:10565000BB6892686860013A009418464FF49871EC
:105660003346FBF745F9D8F81820FB689268A86024
:10567000013A009418464FF498713346FBF738F915
:10568000D8F818203B699268E860013A4FF49871A5
:10569000009418463346FBF72BF928614FF47A70D3
:1056A000FBF7A6F9FCF7ACFCFCF7BAFC0848FCF7E2
:1056B0000FFC0398FCF7D4FB0648FCF719FC04B078
:1056C000BDE8F081905E0008E15600082C10002033
:1056D0005868000880680008D0090020AFF30080F7
:1056E00038B5094D0446FBF7ABF9FBF7A9F9FBF711
:1056F000A7F9FBF7A5F92368AA6904332360537F50
:105700005B07F0D5002038BDD0090020AFF3008042
:1057100030B583B000242346234824490094102246
:10572000FCF7AEF8FCF7C4FC4FF47A70204DFCF7A0
:10573000CFFC202383F3118800211B48FCF7C8F815
:1057400001211948FCF7C4F802211748FCF7C0F8FA
:1057500003211548FCF7BCF8002383F311884FF0B0
:10576000FF311148FCF7DCF84FF0FF310E48FCF731
:10577000D7F84FF0FF310C48FCF7D2F80A484FF049
:10578000FF31FCF7CDF82B780134002BD1D009483C
:10579000FCF79EFBA000FCF763FB074803B0BDE8E5
:1057A0003040FCF7A5BB00BFBC100020E01000207B
:1057B0000D10002058680008A0680008AFF30080B2
:1057C00038B5FCF775FC4FF47A70FCF781FC154D89
:1057D0000024202383F311881348144A0121002355
:1057E000FAF7BEFE114A124842F210710023FAF78E
:1057F000B7FE0D48FAF7D4FE0D48FAF7D1FE0023A4
:1058000083F311882B780134002BE2D00948FCF790
:105810005FFB6000FCF724FB0748BDE83840FCF75D
:1058200067BB00BF0D100020A8100020A14F00088A
:105830000C11002058680008AC680008AFF3008025
:1058400038B5FCF735FC4FF47A70FCF741FC144D89
:1058500000241448FBF744FA1248FBF781FA114878
:10586000FBF73EFA0F48FBF77BFA0E48FBF738FAD6
:105870000C48FBF775FA0B48FBF732FA0948FBF7BF
:105880006FFA2B780134002BE3D00748FCF720FB9C
:10589000A000FCF7E5FA0548BDE83840FCF728BB56
:1058A0000D1000200011002058680008B86800089A
:1058B00038B5FCF7FDFB4FF47A70FCF709FC124D8C
:1058C00000241248FBF73CFBFBF762FB0F48FBF799
:1058D00037FBFBF75DFB0D48FBF732FBFBF758FB93
:1058E0000A48FBF72DFBFBF753FB2B780134002B09
:1058F000E7D00748FCF7ECFAA000FCF7B1FA05483E
:10590000BDE83840FCF7F4BA0D100020F01000207C
:1059100058680008C8680008AFF30080AFF3008043
:105920000148FBF79DBA00BFF0100020AFF30080E4
:1059300008B500F095F8044800F042F900F048F886
:10594000BDE8084000F05CBA106B0008AFF30080BF
:105950000C30FCF70DB800BFAFF30080AFF3008050
:105960000C304FF0FF33FCF703B800BFAFF30080FB
:105970003030FCF7BDB800BFAFF30080AFF300805C
:1059800030304FF0FF33FCF7B3B800BFAFF3008007
:105990000C30FBF7C5BF00BFAFF30080AFF3008052
:1059A0000C304FF0FF31FBF7BBBF00BFAFF30080FF
:1059B0003030FCF745B800BFAFF30080AFF3008094
:1059C00030304FF0FF32FCF73BB800BFAFF3008040
:1059D00000F0F6B9AFF30080AFF30080AFF30080C2
:1059E00070B50E4B044682B040F8043B012600948B
:1059F0000B461546606004F1540104F10C00267258
:105A00001022FBF73DFF00942B4604F1300004F117
:105A100064011022FBF7ECFF02B070BDF06A0008D1
:105A200038B5436904460D463BB1294604F10C00E4
:105A3000FBF74EFF00280BDB38BD04300421FBF7D9
:105A400067FC294604F10C00FBF742FF0028F3DA5B
:105A5000201D8021BDE83840FBF75ABCAFF3008021
:105A6000254B26491A69DFF8A8C025482DE9F00121
:105A700000224FF0FF361E61224D1A610727D3F82E
:105A80000C80DE60DA60C1F804C08A600F60E968EB
:105A90001D4C41F08071E960216841F001012160F5
:105AA000D96941F08051D961016841F48071016088
:105AB000196A01F44071B1F5007F03D04FF48031D1
:105AC00019621A620C4B1A6A120407D41A6A42F459
:105AD00000721A621A6A42F400421A62064A0B4BBA
