:020000040800F2
:1000000000040020510200085103000851030008B9
:100010005103000851030008510300085103000870
:100020005103000851030008510300088103000830
:10003000510300085103000851030008410400085F
:100040005103000851030008510300085103000840
:100050005103000851030008510300085103000830
:100060005103000851030008510300085103000820
:100070005103000851030008510300085103000810
:100080005103000851030008510300085103000800
:1000900051030008510300085103000851030008F0
:1000A00051030008510300085103000851030008E0
:1000B00051030008510300085103000851030008D0
:1000C00051030008510300085103000851030008C0
:1000D00051030008510300085103000851030008B0
:1000E00051030008510300085103000851030008A0
:1000F0005103000851030008510300085103000890
:10010000510300085103000851030008510300087F
:10011000510300085103000851030008510300086F
:10012000510300085103000851030008510300085F
:10013000510300085103000851030008510300084F
:10014000510300085103000851030008510300083F
:10015000510300085103000851030008510300082F
:100160005103000851030008F176000811770008D8
:10017000510300085103000851030008510300080F
:080180005103000851030008BF
:1001900030B583B006F08CFB00F0D2F91C48054660
:1001A00006F05EFC1B49284606F082FC40F2DC505B
:1001B00000F066FE00241848184906F0F9FD07F023
:1001C000F7FE00941648174B4FF49871402200F048
:1001D000BFFD4CB194F820300E2B13D04FF47A7041
:1001E00000F04EFE002CF5D1D5F854321B681B7878
:1001F000042BEFD10C484FF40B61402207F0F8FEBE
:100200000446EBE7204600F01BFF0024E6E700BFB2
:10021000481B002010A400086419002060A10008F9
:10022000081A00202185000870A30008AFF30080A1
:10023000704700BFAFF30080AFF30080AFF30080E2
:10024000FEE700BFAFF30080AFF30080AFF30080A4
:1002500072B6304880F30988022383F31488BFF311
:100260006F8F2D4B2D4A93420BD2D943114421F06D
:10027000030119444FF05532043B43F8042F8B42DD
:10028000FBD1274B83420CD226491A1D891A21F033
:10029000030119444FF05532043B43F8042F8B42BD
:1002A000FBD107F0CDFD2049204B99420BD2C8432A
:1002B000184420F003001E4C04300023E258CA50BA
:1002C00004338342FAD11B4B1B4A93420AD2D943CF
:1002D000114421F0030119440022043B43F8042F88
:1002E0008B42FBD1154D164CFFF7A2FFAC4204D256
:1002F00054F8043B9847AC42FAD3124D124CFFF726
:1003000047FFAC4204D254F8043B9847AC42FAD3BE
:10031000FFF796FF000800200000002000040020E6
:10032000000400200308002000080020E00C00204A
:1003300038A50008E00C0020C41D0020880100083A
:10034000880100088801000888010008AFF30080D8
:10035000FEE700BFAFF30080AFF30080AFF3008093
:1003600072B6FEE7AFF30080AFF30080AFF300801A
:1003700000F076F900F054FC00F08AF900DF00BFCD
:10038000EFF30983203383F30988002383F3118873
:10039000704700BFAFF30080AFF30080AFF3008081
:1003A00008B5094B094A002199600720DA6010213D
:1003B00000F09EF80A20202100F09AF80B208021FE
:1003C000BDE8084000F094B800ED00E00003FA0535
:1003D000202383F31188164B5B6813F400631AD053
:1003E000EFF30983A3F1200282F3098811494FF04A
:1003F00080708A6943F8040C92F8230009689268B7
:10040000896858B1914294BF0022012262B10A4A20
:1004100043F8082C704783F311887047914234BF2A
:1004200000220122002AF2D1044A43F8082C704726
:1004300000ED00E014120020710300087C030008A6
:1004400008B500F07DF9202383F3118800F040F90E
:1004500000F0B6F800F054F9002383F3118800F09F
:100460008FF9BDE80840FFF7B3BF00BFAFF30080CE
:100470002DE9F04FC1F80CD0D0F80CD0BDE8F08FCA
:1004800008B500F005F9002383F311882846A0473A
:1004900000F066FD08BD00BFAFF30080AFF3008041
:1004A00020F0030202F1604202F56142F0B4430918
:1004B00000F00304D2F80053E400FF269B00A6409E
:1004C00003F1604325EA060503F561430127A140D6
:1004D00000F01F0007FA00F045EA0104C2F80043EB
:1004E000C3F88001F0BC1860704700BFAFF3008014
:1004F00020F0030303F1604303F56D4300F00300B4
:1005000010B4C0009A69FF24844022EA04028140AA
:100510000A439A615DF8044B704700BFAFF3008057
:10052000024B034A9B699A61FEE700BF1412002048
:10053000D0880008AFF30080AFF30080AFF30080F5
:1005400000B583B0FFF72CFF00F00AFA00F0A0F925
:1005500002F03EF902F094F900F062F940210F48F0
:1005600000F06EFB01210E4A0E4B80F82010C26194
:10057000986100F05DF8002383F3118862B6094B9F
:10058000094A9B6909489A6100230093C02101220E
:10059000074B00F0DDFB03B05DF804FBE00C00202E
:1005A0000004002014120020A08A0008300D002052
:1005B00021050008AFF30080AFF30080AFF30080A7
:1005C000F8B500F0FDF8174B9A6992F8233013B193
:1005D000013B82F82330516A134B01315162DA68D2
:1005E0001C6801329C42DA601AD0A768013FA760FC
:1005F000B7B91E462268E568E76053601A6000F0EC
:100600007FF8002383F311882069A847202383F310
:10061000118800F05DF83468034BA268002AE9D025
:10062000F8BD00BF1412002004120020AFF30080B8
:10063000054B1B6813B9054B1B6823B1044B054AD6
:100640001A60FFF78DBE7047F00D0020FC110020EE
:1006500000120020F0880008AFF30080AFF30080A4
:10066000074B1B6810B5074C0BB9236823B1064B29
:10067000064A1A60FFF774FE0123236010BD00BF15
:10068000F00D0020FC11002000120020F888000866
:10069000094B1B6810B5094C2BB92368002B02DDF0
:1006A0000023236010BD064B064A1A60FFF758FE70
:1006B0000023236010BD00BFF00D0020FC110020BE
:1006C0000012002000890008AFF30080AFF3008023
:1006D000074B1B68002B10B5064C01DD236823B1C6
:1006E000054B064A1A60FFF73BFE0123236010BD4D
:1006F000F00D0020FC1100200012002008890008E5
:10070000094B1B68002B10B5084C05DD2368002B36
:1007100002DD0023236010BD054B064A1A60FFF777
:100720001FFE0023236010BDF00D0020FC110020EF
:100730000012002010890008AFF30080AFF30080A2
:1007400010B5202383F31188094C2368002B02DBAA
:10075000084A12682AB1084B084A1A60FFF700FEDF
:10076000236801332360002383F3118810BD00BF89
:10077000F00D0020FC110020001200201889000854
:1007800010B5202383F31188094C2368002B02DD68
:10079000084A12682AB1084B084A1A60FFF7E0FDC0
:1007A0002368013B2360002383F3118810BD00BF41
:1007B000F00D0020FC11002000120020208900080C
:1007C000064B1B68002B04DB054B1B68002B00DD70
:1007D0007047044B044A1A60FFF7C2BDF00D0020B9
:1007E000FC1100200012002028890008AFF30080CF
:1007F000064B1B6823B9064B1B68002B00DD7047B6
:10080000044B054A1A60FFF7ABBD00BFF00D002096
:10081000FC1100200012002030890008AFF3008096
:10082000034A1346402143F8081B5360704700BF3A
:10083000F40D0020AFF30080AFF30080AFF3008031
:100840000C4A0D495368896910B40C4CE4681C606B
:100850005960816A996090F820101973103302F57D
:1008600081618B4228BF02F1080353605DF8044B9D
:10087000704700BFF40D0020141200200412002065
:10088000014B1860FFF76CBD00120020AFF3008031
:10089000044B4FF0FF3100225B601B609960DA600F
:1008A000704700BF04120020AFF30080AFF3008058
:1008B000F8B505460C4616461F46FFF781FFCDB139
:1008C000C6B1BCB10D492F610B68EE609A689442C5
:1008D00004D91B68A41A9A68A242FAD35A686A60BB
:1008E0008B422B605D601560AC6002D09A68141B6F
:1008F0009C60F8BD0248FFF7C3FFE3E70412002045
:1009000040890008AFF30080AFF30080AFF30080B0
:1009100010B50446FFF754FF84B1E36893B1236830
:100920000A4A934203D09968A2680A449A606268AE
:100930001360236800215A60E16010BD0448FFF78E
:100940009FFFEAE70348FFF79BFFE8E70412002058
:100950005089000860890008AFF30080AFF3008081
:10096000034B00225B601B605B611B619A607047F8
:1009700014120020AFF30080AFF30080AFF30080CB
:1009800010B50446FFF71CFF94F820308BB10E2BF6
:100990000FD00022A168094B84F820201B689A68B8
:1009A0008A42FBD25A686260236020465C60146011
:1009B00010BD0348FFF764FFEBE700BF14120020EF
:1009C00080890008AFF30080AFF30080AFF30080B0
:1009D00010B52023044683F31188FFF779FE94F8BD
:1009E00020300D2B11D8DFE803F016101007100B84
:1009F000101010101010100BA36A9A6801329A6040
:100A000094E80C001A60226853604FF0FF33A36231
:100A10002046FFF7B5FFFFF773FE002383F311882D
:100A200010BD00BFAFF30080AFF30080AFF30080D4
:100A300070B5114C0646FFF7DBFE2368A5691A68FE
:100A400085F820601420012185F823005460284691
:100A500083F820102260A361FFF7F2FEEB69ADF18D
:100A60002402934202D90548FFF70AFFA0692946EC
:100A7000BDE87040FFF7FCBC141200209489000808
:100A800070B50C4686B00646FFF7B2FE631C12D066
:100A90000D4D0E4AAB69214601A8FFF709FF30460C
:100AA000FFF7C6FF049B13B101A8FFF731FFAB6945
:100AB000986A06B070BD044D3046FFF7B9FFAB69C8
:100AC000986A06B070BD00BF14120020D10900085A
:100AD00070B5164D04460E46FFF78AFEA869A36856
:100AE0008268A662934213D9FFF74AFF01230646A4
:100AF00084F82030AC61FFF7A3FEF369ADF1240266
:100B000093420AD820463146BDE87040FFF7B0BC9A
:100B10002046BDE87040FFF733BF0548FFF7B0FE41
:100B200020463146BDE87040FFF7A2BC14120020F9
:100B300094890008AFF30080AFF30080AFF300802A
:100B400070B5104C2368A5691A682260142101262B
:100B50005460284683F8206085F82310A361FFF7CE
:100B60000FFF2846FFF76CFEEB69ADF124029342BC
:100B700002D90548FFF784FEA0692946BDE8704008
:100B8000FFF776BC1412002094890008AFF30080B0
:100B900070B5154E3268B5691368AC6833600120D2
:100BA00000215E6082F820001346B26185F82010B3
:100BB00000E01B689A68A242FBD85A686A602B6002
:100BC00028465D601560FFF73BFEEB69ADF124023E
:100BD000934202D90548FFF753FEB0692946BDE8A4
:100BE0007040FFF745BC00BF141200209489000834
:100BF00008B5FFF7FDFD064B1A689B6992689B6874
:100C00009A4200D808BDBDE80840FFF7C1BF00BF49
:100C100014120020AFF30080AFF30080AFF3008028
:100C2000044B9B6993F823300BB1FFF7B1BFFFF77B
:100C300087BF00BF14120020AFF30080AFF3008025
:100C40002DE9F007144C416465694561002200F10B
:100C500030064FF0020A4FF014094FF0010800F17E
:100C60004C0700F12C0C0461816080F820A06061C9
:100C700080F8239080F8228080F821200264C263EB
:100C8000426282612861C76146630663C0F82CC076
:100C9000BDE8F007704700BF14120020AFF30080DA
:100CA000884203D200F8012B8842FBD1704700BF75
:100CB0002DE9F84F04460D4617469846FFF780FD8C
:100CC0000CB1AF2D36D81E48FFF7DAFD1D4EA5F149
:100CD000240160187269E06044F801800A9941605B
:100CE00000254FF0020A4FF014094FF0010C16498D
:100CF000016204F1300304F12C0B04F14C0884F878
:100D000020A084F8215084F8239084F822C0A760A2
:100D100026616261676474612564E5636562A5614B
:100D200020461461C4F82CB063632363C4F81C80AC
:100D3000BDE8F88F7F2FC6D8B8F1000FC6D1C2E743
:100D4000B08900081412002081040008AFF300806D
:100D50002DE9F04F83B080460C9F894693469A4612
:100D600000F14C050446FF2604F8016BA542FBD1B7
:100D700008EB0904A54204D2552605F8016BA542EB
:100D8000FBD1202383F31188FFF76AFC53465A46B0
:100D9000494600974046FFF78BFF00210446FFF7C6
:100DA00097FEFFF775FC002383F31188204603B0FC
:100DB000BDE8F08FAFF30080AFF30080AFF30080A9
:100DC0007F2838B5044617D8202383F31188FFF70E
:100DD00047FC0B4B9B695D6C9A68954201D094422D
:100DE00000D99C605C64FFF703FFFFF751FC002310
:100DF00083F31188284638BD0248FFF741FDE3E739
:100E000014120020C4890008AFF30080AFF3008003
:100E100010B52023044683F31188FFF721FC94F8D2
:100E20002030022B02D00748FFF72AFD2046002180
:100E3000FFF74EFEFFF72CFC002383F311882046BA
:100E400010BD00BFDC890008AFF30080AFF3008065
:100E500010B52023044683F31188FFF701FC94F8B2
:100E6000213043F0040384F82130FFF711FC002304
:100E700083F3118810BD00BFAFF30080AFF3008093
:100E800010B5044610B90948FFF7FAFC202383F394
:100E90001188FFF7E5FB21460620FFF7F1FDFFF77C
:100EA000F7FB002383F3118810BD00BFF089000811
:100EB00010B52023044683F31188FFF7D1FB064BBE
:100EC000D968611A02D00620FFF7DAFDFFF7E0FBD0
:100ED000002383F3118810BD04120020AFF30080BB
:100EE00008B5202383F31188FFF7BAFB074B1A6874
:100EF0009B6992689B689A4201D3FFF721FEFFF736
:100F0000C7FB002383F3118808BD00BF1412002023
:100F100038B5104B9C692546A06255F82C0FA842A5
:100F200006D00368E362FFF72BFDE06AA842F8D120
:100F300094F821309B0704D1636922691A61226900
:100F400053610E20FFF774FD0348BDE83840FFF7FA
:100F500097BC00BF14120020008A0008AFF3008085
:100F600010B52023044683F31188FFF779FB204650
:100F7000BDE81040FFF7CCBFAFF30080AFF30080B7
:100F800038B5044648B3202383F31188154DFFF785
:100F900067FBAB69A3421CD094F82230ABB194F844
:100FA00020300E2B06D0AB69E26A1A600720E3629C
:100FB000FFF73EFDA56AFFF76BFB002383F3118863
:100FC000204600F03DF8284638BD0748FFF758FC9A
:100FD000E5E70648FFF754FCDEE70548FFF750FC5D
:100FE000D1E700BF14120020348A0008248A0008C8
:100FF000148A0008AFF30080AFF30080AFF30080E5
:1010000010B52023044683F31188FFF729FB94F8D9
:101010002230FF2B09D0013384F82230FFF738FB50
:10102000002383F31188204610BD0348FFF728FCF6
:1010300094F82230EFE700BF508A0008AFF3008039
:1010400038B50446202383F31188FFF709FB94F891
:101050002230BBB1013BDDB284F82250FFF718FB10
:10106000002383F311881DB994F820300E2B00D093
:1010700038BD94F8213003F00303012B08D0022B74
:1010800010D038BD0D48FFF7FBFB94F82230E1E7A4
:10109000636922691A61226920465361BDE83840BC
:1010A00001F05EBC636922691A612269A06C536118
:1010B0002146BDE8384001F033BD00BF648A000816
:1010C0002DE9F04182B090461F460D4601F008FC24
:1010D000044620B300F14C063146FF22FFF7E0FD45
:1010E000304661195522FFF7DBFD202383F3118879
:1010F000FFF7B6FA089B0093424629463B46204636
:10110000FFF7D6FD012380F8213000210446FFF7C8
:10111000DFFCFFF7BDFA002383F31188204602B0FD
:10112000BDE8F081AFF30080AFF30080AFF3008043
:101130002DE9F043044683B088461746994670B3BC
:10114000204601F0BDFC054630B300F14C063146A7
:10115000FF22FFF7A5FD6168304629445522FFF7BD
:101160009FFD202383F31188FFF77AFA6168CDF899
:10117000009042463B462846FFF79AFD022380F83E
:101180002130846400210546FFF7A2FCFFF780FAB6
:10119000002383F31188284603B0BDE8F08302489A
:1011A000FFF76EFBCCE700BF788A0008AFF3008042
:1011B00010B5202383F31188FFF752FA064B1C6900
:1011C00094F82230013384F82230FFF761FA0023CB
:1011D00083F31188204610BD14120020AFF3008065
:1011E00038B50546202383F31188FFF739FA2C69B7
:1011F0000D4B9C4216D094F82230FF2B0CD00133BB
:1012000084F82230FFF744FA002383F3118828463C
:10121000FFF716FF204638BD0448FFF731FB94F86E
:101220002230ECE70024EDE714120020C08A000809
:1012300038B504460D4628B1002903DB64602460FC
:10124000A56038BD0348FFF71BFB64602460A56000
:1012500038BD00BFE08A0008AFF30080AFF3008024
:1012600070B504460E46FFF7ABFAFCB1002E1DDB4D
:10127000A5682368002D16DBA34203D00D48FFF7B5
:10128000FFFAA5680135002DA6600BDC6FF00106A2
:101290006068436863601C60FFF772FB0135012DD5
:1012A0008662F5D170BDA342ECD1E7E70248FFF7B3
:1012B000E7FADDE7008B0008F08A0008AFF3008052
:1012C00038B505460C46202383F31188FFF7C8F98B
:1012D00028462146FFF7C4FFFFF78AFCFFF7D8F93D
:1012E000002383F3118838BDAFF30080AFF3008093
:1012F00038B50446FFF77CFA1CB3A3682268002BBC
:101300000BDBA24203D01148FFF7BAFAA368013BF6
:10131000002BA36007DB002038BDA242F3D0013BC5
:10132000002BA360F7DA0A4DAB699C6262685A60D1
:101330001C60032063601360FFF77AFBAB69986A57
:1013400038BD0448FFF79CFAD7E700BF248B00089C
:1013500014120020148B0008AFF30080AFF300805C
:1013600010B52023044683F31188FFF779F920464E
:10137000FFF7BEFF0446FFF78BF9002383F31188C4
:10138000204610BDAFF30080AFF30080AFF30080C4
:1013900038B504460D46FFF72BFA24B3A36822683C
:1013A000002B0BDBA24203D01348FFF769FAA368B6
:1013B0005A1E002AA26007DB002038BDA242F3D0EB
:1013C0005A1E002AA260F7DA8DB10C4B9B699C6211
:1013D00062685A601C602946636003201360BDE8A0
:1013E0003840FFF74DBB0648FFF74AFAD6E7A3603F
:1013F0004FF0FF3038BD00BF508B000814120020A2
:10140000388B0008AFF30080AFF30080AFF30080AB
:1014100038B505460C46202383F31188FFF720F9E1
:1014200021462846FFF7B4FF0446FFF731F90023B1
:1014300083F31188204638BDAFF30080AFF30080FE
:1014400010B5044640B3A368002B236814DBA34205
:1014500002D01348FFF714FA202383F31188FFF713
:10146000FFF8A3680133002BA36008DDFFF710F934
:10147000002383F3118810BDA342EDD1E9E7206872
:101480000368236000215C60FFF722FBFFF700F98F
:10149000002383F3118810BD0248FFF7F1F9D2E76A
:1014A000788B0008688B0008AFF30080AFF30080F2
:1014B00010B50446FFF784F9FCB1A3682268002B3D
:1014C0000ADBA24203D00F48FFF7DAF9A368013321
:1014D000002BA36006DD10BDA242F4D00133002B27
:1014E000A360F8DC23681A682260002154609962C6
:1014F0001846BDE81040FFF743BA0348FFF7C0F9AC
:10150000DBE700BFA08B00088C8B0008AFF30080E6
:1015100070B505460C46FFF753F915B3002C20DDD6
:10152000AB68002B2B6819DBAB4202D00F48FFF7EA
:10153000A7F9002C11DD002601E0013C0DD0AB68BD
:101540000133002BAB60F8DC286803682B605D601A
:10155000FFF716FA013C8662F1D170BDAB42E8D1CB
:10156000E4E70348FFF78CF9DAE700BFCC8B00080B
:10157000B48B0008AFF30080AFF30080AFF30080BE
:1015800038B505460C46002835D0002933D0AB6865
:10159000002B2B6826DBAB4202D02448FFF770F902
:1015A000A368002B236823DBA34202D02048FFF767
:1015B00067F9202383F31188FFF752F8AB680133F2
:1015C000002BAB6028DDA368013B002BA36016DB7A
:1015D000FFF70EFB0024FFF75BF8002383F311886D
:1015E000204638BDAB42D8D0A368002B2368DBDA95
:1015F000A342DED1DAE70F48FFF742F9C7E70E4A08
:101600006368956903202C606B6065601D60AC6247
:10161000FFF70EFAAC6ADEE7286803682B605D60AE
:10162000FFF7AEF900238362CDE700BFF88B000817
:10163000108C0008E48B000814120020AFF3008027
:1016400010B5044620B1002364602460A36010BD7F
:101650000148FFF715F9F6E7308C0008AFF300807A
:101660003B4B70B505469C69FFF7C2F8002D6BD067
:10167000A868002836D0A2688368934207D290F801
:1016800020308260042B46D0052B30D0FBB12B4696
:1016900003E09968A268914202D31B689D42F8D189
:1016A0005A686260236004205C601460A562FFF7E2
:1016B000BFF9AB68A34202D02648FFF7E1F8236CDC
:1016C000AB4213D02448BDE87040FFF7D9B890E88A
:1016D0000C00012180F820101A6002685360FFF7A7
:1016E0004FF9D4E7236CEB60AC60256470BD90E8E3
:1016F0000A001960866A01684B60334602E0996807
:10170000914202D31B689E42F9D15A68426003603D
:1017100058601060BBE790E80A001960866A0168AB
:101720004B60334602E09968914202D31B689E42A7
:10173000F9D15A684260036058601060B068A268CE
:10174000836893429BD3A2E70448FFF799F88FE799
:1017500014120020508C0008648C0008408C000893
:1017600010B52023044683F31188FEF779FF204645
:10177000FFF776FFFEF78CFF002383F3118810BD7F
:1017800010B50446FFF734F85CB1A3680BB1002034
:1017900010BD064B9B69A3601A6CE26001201C64BB
:1017A00010BD0348FFF76CF8EFE700BF14120020EC
:1017B000788C0008AFF30080AFF30080AFF30080B7
:1017C00010B52023044683F31188FEF749FF204615
:1017D000FFF7D6FF0446FEF75BFF002383F3118873
:1017E000204610BDAFF30080AFF30080AFF3008060
:1017F0001E4A70B52023956983F31188FEF730FFE8
:101800002C6C002C2DD0A368AB4203D01848FFF7F6
:1018100037F82C6C2668E3682B64A6421ED0696CEE
:101820004BB11A689A4203D09268914238BF114670
:10183000DB68002BF5D13368326CA9603046236039
:1018400000215C60A660E2603464FFF741F9FEF7B6
:101850001FFF002383F31188204670BD0023A3607F
:10186000F5E70448FFF70CF82C6CCCE714120020C5
:10187000A08C00088C8C0008AFF30080AFF30080D0
:101880001A4B70B59D69FEF7B3FF2C6C002C28D065
:10189000A368AB4203D01648FEF7F2FF2C6C266813
:1018A000E3682B64A64218D0696C4BB11A689A425F
:1018B00003D09268914238BF1146DB68002BF5D106
:1018C0003368326CA960304623605C60A660E260D9
:1018D0003464FFF755F8204670BD0023A36020460E
:1018E00070BD0448FEF7CCFF2C6CD1E71412002029
:1018F000C88C0008B48C0008AFF30080AFF3008000
:10190000154A70B52023946983F31188FEF7A8FE69
:10191000236CD3B100260BE01168156C19601046DA
:101920004B609A60DD601364FFF72AF8236C43B1C3
:101930001A68D96821649A42EED19E60236C002B0C
:10194000F6D1636CA360FFF753F9FEF7A1FE002305
:1019500083F3118870BD00BF14120020AFF3008024
:1019600010B5044610B16460246010BD0248FEF753
:1019700087FF6460246010BDE08C0008AFF3008036
:1019800010B5044698B1202383F31188FEF768FE52
:101990002068A04205D00368236000215C60FFF747
:1019A00097F8FEF775FE002383F3118810BD0248F7
:1019B000FEF766FFE7E700BFF08C0008AFF300809A
:1019C00010B50446FEF7FCFE54B12068A04206D0D4
:1019D000036823605C60FEF7D3FF0023836210BDC1
:1019E0000148FEF74DFFF0E7048D0008AFF30080DB
:1019F00038B50446FEF7E4FE74B12068A0420AD070
:101A00006FF00105036823605C60FEF7B9FF856233
:101A10002068A042F6D138BD0148FEF731FFECE75F
:101A2000188D0008AFF30080AFF30080AFF30080A3
:101A300010B52023044683F31188FEF711FE2046DB
:101A4000FFF7D6FFFFF7D4F8FEF722FE002383F35B
:101A5000118810BDAFF30080AFF30080AFF30080BA
:101A6000154B70B505469C69FEF7C2FEE5B1236CC7
:101A7000F3B1FFF705FFA56206462B4603E0996820
:101A8000A268914202D31B689D42F8D15A686260F5
:101A9000236005205C601460FEF7CAFFA46A30462C
:101AA000FFF7DEFD204670BD0448FEF7E9FEDEE7E5
:101AB0000348FEF7E5FEDCE714120020308D000835
:101AC000408D0008AFF30080AFF30080AFF30080DB
:101AD00010B52023044683F31188FEF7C1FD20468C
:101AE000FFF7BEFF0446FEF7D3FD002383F3118802
:101AF000204610BDAFF30080AFF30080AFF300804D
:101B00002DE9F04106468846FEF772FE36B3B8F17D
:101B1000000F23D0154CA3691B6C1BB3FFF7B0FE5D
:101B2000A56907463346AE6203E09C68AA68944202
:101B300002D31B689E42F8D15A686A602B60414606
:101B40005D6005201560FEF79BFF431C044602D034
:101B50003846FFF785FD2046BDE8F0810448FEF7D2
:101B60008FFED7E70348FEF78BFED7E7141200205D
:101B7000548D00086C8D0008AFF30080AFF3008037
:101B800038B505460C46202383F31188FEF768FD1F
:101B900021462846FFF7B4FF0446FEF779FD0023EF
:101BA00083F31188204638BDAFF30080AFF3008087
:101BB000F8B505460C461746A0B199B1202383F32A
:101BC0001188FEF74DFD094A2B68926923600026B3
:101BD0002C606260A760E660FEF75AFD334683F32F
:101BE0001188F8BD0248FEF74BFEE7E7141200200B
:101BF000908D0008AFF30080AFF30080AFF300805A
:101C000038B504460D46D8B1D1B1202383F31188ED
:101C1000FEF726FD224602E09D4209D01A461368CF
:101C2000A342F9D1FEF734FD002383F3118838BDB8
:101C30002B681360FEF72CFD002383F3118838BD59
:101C40000148FEF71DFEE0E7A88D0008AFF3008015
:101C500010B52023044683F31188FEF701FD074BDE
:101C60009B69D86B20EA0402DA630440FEF710FD9A
:101C7000002383F31188204610BD00BF14120020FA
:101C800010B52023044683F31188FEF7E9FC064BC8
:101C90009B69DA6B1443DC63FEF7FAFC002383F3E1
:101CA0001188204610BD00BF14120020AFF3008041
:101CB00038B504460D46FEF783FDC4B1E26B94F8D7
:101CC000203045EA0201082BE1630CD0092B00D03B
:101CD00038BDA36A19408B42FAD12046FEF750FE68
:101CE0000023836238BDA36A1942F6D138BD024889
:101CF000FEF7C6FDE2E700BFBC8D0008AFF3008031
:101D000070B505460E46FEF75BFD65B12C68A54231
:101D100008D0201D0BC83343E360FFF7C9FF2468D8
:101D2000A542F6D170BD0248FEF7AAFDEEE700BF5E
:101D3000D08D0008AFF30080AFF30080AFF30080D8
:101D400038B504460D4680B1202383F31188FEF791
:101D500087FC20462946FFF7ABFFFEF749FFFEF759
:101D600097FC002383F3118838BD0248FEF788FDF5
:101D7000EAE700BFE88D0008AFF30080AFF3008012
:101D800038B505460C46202383F31188FEF768FC1E
:101D900028462146FFF7B4FFFEF72AFFFEF778FC3E
:101DA000002383F3118838BDAFF30080AFF30080C8
:101DB0002DE9F84381460D46D8B195B10026344649
:101DC0004FF0010808FA04F72F4206D059F8063000
:101DD0004BB1204625EA0705984701340436002D0B
:101DE000F0D1BDE8F8830548FEF74AFD59F8063002
:101DF000EFE70348FEF744FDDFE700BF0C8E000865
:101E0000F88D0008AFF30080AFF30080AFF30080DF
:101E100038B50F4B04469D69202383F31188FEF7E4
:101E20001FFCEB6B14EA030206D1AC620820FEF73C
:101E3000FFFDEB6B04EA03025442144023EA04035F
:101E4000EB63FEF725FC002383F31188204638BDA1
:101E500014120020AFF30080AFF30080AFF30080D6
:101E60000E4B70B59D690446202383F31188FEF75D
:101E7000F7FBEB6B14EA030606D1AC620820FEF711
:101E8000D7FDEB6B04EA030623EA0603EB63FEF7D8
:101E9000FFFB002383F31188304670BD141200202D
:101EA00038B50E4B04469D69202383F31188FEF755
:101EB000D7FBEB6B04EA0302A24204D0AC62092018
:101EC000FEF7B6FDEB6B23EA0403EB63FEF7E0FBE2
:101ED000002383F31188204638BD00BF1412002070
:101EE000F8B5194B04469D690F46202383F31188EA
:101EF000FEF7B6FBEA6B14EA02060AD1AFB1AC6298
:101F000039460820FEF7BCFD002815DBEA6B04EA21
:101F1000020673421E4022EA0602EA63FEF7B8FB9D
:101F2000002383F311883046F8BDFEF7B1FB3B4632
:101F300083F311880020F8BDFEF7AAFB334683F334
:101F400011880020F8BD00BF14120020AFF30080FC
:101F5000F8B5184B04469D690F46202383F311887A
:101F6000FEF77EFBEA6B14EA02060AD19FB1AC626F
:101F700039460820FEF784FD002813DBEA6B04EAEB
:101F8000020622EA0602EA63FEF782FB002383F3DD
:101F900011883046F8BDFEF77BFB3B4683F3118882
:101FA0000020F8BDFEF774FB334683F31188002050
:101FB000F8BD00BF14120020AFF30080AFF3008023
:101FC000174B70B59D6904460E46202383F3118894
:101FD000FEF746FBEA6B04EA0203A34208D08EB187
:101FE000AC6231460920FEF74BFD002811DBEA6B9D
:101FF00022EA0402EA63FEF74BFB002383F3118815
:10200000204670BDFEF744FB334683F31188002061
:1020100070BDFEF73DFB002383F31188002070BDE7
:1020200014120020AFF30080AFF30080AFF3008004
:10203000154B70B505460E469C6900B3202383F30B
:102040001188FEF70DFB05F1300295F82010A26211
:102050006B6BA6630C2984E80C006C631C600AD0CF
:102060000A20FEF7E5FCA46AFEF712FB002383F3C7
:102070001188204670BD2846FEF782FCF0E7034831
:10208000FEF7FEFBDAE700BF14120020208E0008E6
:1020900038B5202383F311880E4DFEF7E1FAAA69C3
:1020A000134653F8304F9C420CD0216811630B2229
:1020B0004B6084F82020FEF7EBFA002383F31188AD
:1020C000204638BD0C20FEF7B3FCAA69146B02F160
:1020D0003003EAE714120020AFF30080AFF3008072
:1020E00038B504460D46202383F31188FEF7B8FA6D
:1020F00094F820300B2B02D00648FEF7C1FB204697
:102100002946FEF7E5FCFEF7C3FA002383F31188A6
:1021100038BD00BF308E0008AFF30080AFF3008001
:1021200070B504460D461646A0B199B1002A11DDDE
:1021300005EB8603314604F11C00E560A5602560CF
:102140006360FFF775F804F110000021BDE87040EE
:10215000FFF76EB80148FEF793FBE9E7508E0008E1
:1021600010B50446D8B1202383F31188FEF778FA1E
:1021700023686168E360C91AA36004F11C00891038
:10218000FFF76EF804F110000021FFF769F8FEF781
:102190002FFDFEF77DFA002383F3118810BD02485E
:1021A000FEF76EFBDFE700BF608E0008AFF3008034
:1021B00070B504460E461546FEF71AFBC4B1294613
:1021C00004F11C00FFF7E4F8054678B9A2686168DD
:1021D000131D8B42A36028BF2368166004F1100012
:1021E00028BFA360FFF764F9FEF702FD284670BD23
:1021F0000148FEF745FBE2E7708E0008AFF3008070
:1022000070B5202306460D46144683F31188FEF769
:1022100027FA224629463046FFF7CAFF0446FEF752
:1022200037FA002383F31188204670BDAFF3008096
:1022300038B504460D46FEF7C3FAA4B1636A002B15
:1022400015DDA0686168021D013B8A42636228BFF8
:102250002368A260056004F1100028BFA360FFF7A7
:1022600027F9002038BD0348FEF70AFBE6E74FF0E8
:10227000FF3038BD808E0008AFF30080AFF30080E0
:1022800070B504460E461546FEF7B2FACCB12946A3
:1022900004F11C00FFF77CF8054660B9E36822688A
:1022A000043B9342E36008D31E6004F11000FFF783
:1022B000FFF8FEF79DFC284670BD6368043BE360B1
:1022C000F2E70248FEF7DCFAE1E700BF908E000873
:1022D00070B5202306460D46144683F31188FEF799
:1022E000BFF9224629463046FFF7CAFF0446FEF7EB
:1022F000CFF9002383F31188204670BDAFF300802F
:1023000038B504460D46FEF75BFAA4B1626A002AAE
:1023100015DDE3682168043B013A8B426262E360A9
:1023200002D26368043BE36004F110001D60FFF714
:10233000BFF8002038BD0348FEF7A2FAE6E74FF0E9
:10234000FF3038BDA48E0008AFF30080AFF30080EB
:1023500070B504460E461546FEF74AFAD4B1CEB122
:10236000294604F11000FFF713F8054680B9E36829
:102370006268196804339342E36028BF23683160C0
:1023800004F11C0028BFE360FFF792F8FEF730FC71
:10239000284670BD0148FEF773FAE1E7B88E0008E1
:1023A00070B5202306460D46144683F31188FEF7C8
:1023B00057F9224629463046FFF7CAFF0446FEF782
:1023C00067F9002383F31188204670BDAFF30080C6
:1023D00038B504460D46FEF7F3F9B4B1ADB1A369C3
:1023E000002B16DD5A1EE368A26162681968043387
:1023F0009342E36028BF2368296004F11C0028BFD2
:10240000E360FFF755F8002038BD0348FEF738FABF
:10241000E5E74FF0FF3038BDC88E0008AFF300800D
:1024200010B4024661B1094B9B69986244680D2063
:1024300083E81400536023605DF8044BFEF720BB73
:102440004FF0FF305DF8044B704700BF14120020BE
:1024500030B4029C046200250A4485600261406039
:10246000006041618161C160C36130BC704700BFE1
:1024700038B50446FEF7A4F92068E36863610022DA
:10248000A042A260A3610AD06FF001050368236037
:102490005C60FEF775FA85622068A042F6D138BD0F
:1024A00038B504460D46FEF78BF9A269636993427D
:1024B000A2681BD00132591CA26061611D70626963
:1024C00023699A420BD22068A0420DD00368236092
:1024D0005C60FEF755FA00238362184638BD206819
:1024E000E3686361A042F1D1002038BD002AE1D049
:1024F0006FF0030038BD00BFAFF30080AFF3008082
:10250000F8B504460E46202383F31188FEF7A8F899
:10251000E36933B12046984703E0FFF781FF071EC8
:1025200018DBA56820463146002DF6D0A269216946
:10253000531C8B4205F1FF35A361A56028BFE368FA
:10254000177828BFA361FEF7A3F8002383F311884F
:102550003846F8BDFEF79CF82B4683F311883846C1
:10256000F8BD00BFAFF30080AFF30080AFF3008091
:102570002DE9F047044615460F461E46D0F81C804C
:10258000002A3DD0202383F31188FEF769F807EB7A
:10259000050A4FF000090137B8F1000F05D02046B9
:1025A000C04702E0FFF73CFF10BBA568204631465C
:1025B000002DF7D0A369013D5A1CA261A5601B78CC
:1025C00007F8013C2369A2699A4224BFE368A3612A
:1025D000FEF75EF8002383F31188574509F10109DE
:1025E0000BD0202383F31188FEF73AF80137D3E7A5
:1025F000FEF74EF82B4683F311884846BDE8F08776
:102600000148FEF73DF9BDE7E08E0008AFF300801A
:1026100030B4029C04628D180561406000608260E5
:1026200041618161C160C36130BC7047AFF300801C
:1026300038B50446FEF7C4F8E36822692068636190
:10264000D21AA042A361A2600AD06FF0010503680C
:1026500023605C60FEF794F985622068A042F6D1A1
:1026600038BD00BFAFF30080AFF30080AFF3008050
:102670002DE9F041202304468846164683F311884D
:10268000FDF7EEFF03E0FFF7CBFE071E1DDBA5689D
:1026900020463146002DF6D06369013D5A1C626127
:1026A000A56083F80080236962699A4224BFE368C9
:1026B0006361E3690BB120469847FDF7E9FF00230A
:1026C00083F311880020BDE8F081FDF7E1FF2B4680
:1026D00083F311883846BDE8F08100BFAFF3008076
:1026E00038B50446FEF76CF86269A3699A42A2689D
:1026F00016D02169501C5A1CA060A2618A421D7824
:102700000BD22068A04206D0036823605C60FEF70D
:1027100037F900238362284638BDE368A361F0E7F8
:10272000002AE6D06FF0020038BD00BFAFF3008092
:102730002DE9F84F044617460E469B46D0F81CA0DC
:10274000002A3AD0202383F31188FDF789FF4FF048
:102750000009A56806F1010820466A1EFDB16369FB
:10276000A2605A1C626132781A70236962699A42C7
:1027700024BFE3686361BAF1000F00D0D047FDF7D2
:1027800087FF002383F31188013F09F1010911D06C
:10279000202383F31188FDF763FF4646D9E72046DF
:1027A0005946FFF73DFE0028D3D0FDF771FF2B46B9
:1027B00083F311884846BDE8F88F0248FEF760F8B9
:1027C000C0E700BFF48E0008AFF30080AFF30080D5
:1027D0000548064A0649074B20F0070022F0070289
:1027E00008601A60704700BFCB1D002000A00020C9
:1027F0003412002030120020AFF30080AFF30080CD
:1028000010B50446FDF7DCFF074A0849136809685C
:10281000E01D20F00700C91A884203D81844106050
:10282000184610BD002010BD3412002030120020C8
:1028300010B52023044683F31188FDF711FF2046CD
:10284000FFF7DEFF0446FDF723FF002383F3118823
:10285000204610BDAFF30080AFF30080AFF30080DF
:10286000024A034B10681B68C01A704730120020E0
:1028700034120020AFF30080AFF30080AFF300808C
:10288000044B054A1A6003F1100000229A60DA60D6
:10289000FEF7D6BE3812002031280008AFF30080C2
:1028A00070B516464A070C46054601D1730702D09B
:1028B0000748FDF7E5FF0023083EAC602B60EB60A6
:1028C00084E8480005F11000BDE87040FEF7B8BE8E
:1028D000108F0008AFF30080AFF30080AFF30080EB
:1028E000F8B51E4E002818BF0646073106F1100045
:1028F00021F0070506F10804FEF732FF03E05A68ED
:10290000954211D91C462368002BF8D1FEF770FFC1
:1029100033680BB305F108009847E8B106604560DD
:1029200000F108042046F8BD05F10801914208D9DC
:102930001A6822601C4644F8086BFEF759FF2046CF
:10294000F8BD6FF00700401B5F180244186858502C
:102950007A6027605D60EDE70024E3E7381200202D
:10296000F8B50746002857D057F8086C06F1100054
:10297000FEF7F6FE08363446A7F10805AC4204D847
:102980006368083323449D420BD3B4420ED0AC425B
:102990000CD32468AC42F8D86368083323449D42C2
:1029A000F3D21F48FDF76CFFB442F0D123681BB18E
:1029B0009D4201D31C46E1E757F8042C47F8083C38
:1029C000256002F1080357F8080CE918814209D084
:1029D000636803F108022244954211D0BDE8F84033
:1029E000FEF706BF4968EB5847F8083C5318083310
:1029F00047F8043C636803F1080222449542EDD194
:102A000057F8041C57F8082C22600B440833636005
:102A1000BDE8F840FEF7ECBE0248FDF731FFA3E742
:102A2000308F0008208F0008AFF30080AFF30080E4
:102A300038B50E4C002818BF044604F110000D46AE
:102A4000FEF78EFEA3686BB10022144658681B681F
:102A500001340244002BF9D105B12A60FEF7C8FE0B
:102A6000204638BD1A461C46F6E700BF3812002043
:102A700070B504460D46164608B1032902D803482E
:102A8000FDF7FEFE002384E8680070BD508F00084B
:102A900010B50446FDF794FE4CB1206810B10368F0
:102AA000236010BDA3680BB16068984710BD024851
:102AB000FDF7E6FEF1E700BF608F0008AFF300808E
:102AC00010B52023044683F31188FDF7C9FD204685
:102AD000FFF7DEFF0446FDF7DBFD002383F31188DB
:102AE000204610BDAFF30080AFF30080AFF300804D
:102AF00038B504460D46FDF763FE24B11DB12368C9
:102B00002B60256038BD0348FDF7BAFE23682B60B3
:102B1000256038BD748F0008AFF30080AFF30080EC
:102B200038B505460C46202383F31188FDF798FD40
:102B300028462146FFF7DCFFFDF7AAFD002383F3BB
:102B4000118838BDAFF30080AFF30080AFF3008091
:102B500070B506460D46144628B142B90948BDE88D
:102B60007040FDF78DBE0748FDF78AFE44B1294647
:102B70003046FFF7D5FF7368013C1D44F7D170BDA7
:102B800070BD00BF848F0008AFF30080AFF30080FA
:102B9000014B01221A7070474D180020AFF30080DE
:102BA00070B5084E4C243068064D03682D219B6893
:102BB0009847013CF7D128680349036802221B6843
:102BC000984770BD8018002094A10008AFF30080E2
:102BD00070B584B018B30DF10105154E2B46A6FB58
:102BE0000012D20802EB8201A0EB41013031C9B2E0
:102BF00003F8011C1C4610460133002AEFD16B4636
:102C00009C420AD90B4E02E014F8021C013C3068C9
:102C100003689B689847AC42F6D104B070BD054B81
:102C20001868036830219B68984704B070BD00BFE6
:102C3000CDCCCCCC80180020AFF30080AFF3008067
:102C400038B5017849B1054D0446286803689B688A
:102C5000984714F8011F0029F7D138BD80180020CB
:102C600038B50178084D044639B1286803689B6877
:102C7000984714F8011F0029F7D128680349036811
:102C800002221B68984738BD8018002094A10008D4
:102C900010B52023044683F31188FDF7E1FC054BB2
:102CA0001A68147001321A60FDF7F2FC002383F3F6
:102CB000118810BD50180020AFF30080AFF30080E2
:102CC00010B451B9074C0849084A01232370106019
:102CD0000B7018465DF8044B7047002318465DF8EA
:102CE000044B70474C18002054180020481800204E
:102CF000F0B40E4E0E4F35683B4605E013F8014B1D
:102D000011F8012B944207D1AB42F7D30B781BB9D2
:102D100037601846F0BC7047064C0749074A012344
:102D2000237010600B701846F0BC704750180020DC
:102D3000841800204C180020541800204818002047
:102D40000B4BDB68521A591A914210B40AD3094C42
:102D500009490A4A0123237010600B7018465DF878
:102D6000044B7047002318465DF8044B704700BFC2
:102D7000041200204C18002054180020481800208D
:102D800038B5064C04F1140554F8043F18460BB14D
:102D9000FEF75EF8AC42F7D138BD00BF68180020DE
:102DA00070B5074C002604F1140554F8043B18468E
:102DB0001BB1FEF7E5F844F8046CAC42F5D170BDE8
:102DC0006C180020AFF30080AFF30080AFF30080F9
:102DD000124A134B30B494694FF47A7101FB00F03E
:102DE000626A411EA3FB0151501C00EB91118A4203
:102DF000636A0DD29A4204D90023002BF7D130BC6C
:102E00007047994294BF00230123002BEFD1F6E7CE
:102E10009A42F6D80123002BE9D1F0E714120020E2
:102E2000D34D6210AFF30080AFF30080AFF30080AA
:102E300008B50120FEF724F8014BD86808BD00BF93
:102E400004120020AFF30080AFF30080AFF30080E6
:102E50000F4B002210B51A700446202383F311880B
:102E6000FDF7FEFB4FF47A7101FB04F1094B0A48B0
:102E70000A4A0139A3FB0141890901310023FDF709
:102E800017FDFDF705FC002383F3118810BD00BF7B
:102E90004D180020D34D621058180020912B0008C7
:102EA0002DE9F04F9E4C9F4D206085B09E48FFF766
:102EB000D7FE9E48FFF7D4FE9D48FFF7D1FE2A219A
:102EC000206803689B68984715F8011F0029F7D10F
:102ED0009848994DFFF7C4FE2A21206803689B6833
:102EE000984715F8011F0029F7D19448944DFFF732
:102EF000B7FE2A21206803689B68984715F8011FD0
:102F00000029F7D18F48904DFFF7AAFE2A212068AB
:102F100003689B68984715F8011F0029F7D18B4873
:102F20008B4DFFF79DFE2A21206803689B68984718
:102F300015F8011F0029F7D18648874DFFF790FE4D
:102F40002A21206803689B68984715F8011F00290B
:102F5000F7D18248824DFFF783FE2A21206803685B
:102F60009B68984715F8011F0029F7D17D487E4DD1
:102F7000FFF776FE2A21206803689B68984715F8BA
:102F8000011F0029F7D1794A794801910392FFF78F
:102F900067FE6548DFF888B1764FFFF761FE764B34
:102FA000019902911970029B013302934FF00008BE
:102FB00057F8043B002B00F08680704DFFF7F0FDC2
:102FC0002D21206803689B68984715F8011F002988
:102FD000F7D102986A4DFFF7FBFDDBF800000368AC
:102FE0002E219B6808F1010898474046FFF7F0FD45
:102FF0002021206803689B68984715F8011F002965
:10300000F7D157F8043C1D68297839B12068036866
:103010009B68984715F8011F0029F7D159485A4D68
:103020005A4EDFF89491FFF71BFEC820FDF728FFEA
:10303000574A57F804ACC6F8009000231360536059
:103040009360D3601361DAF804202B7002B19047CB
:10305000DAF80C309847DAF8083003B19847FFF7F0
:103060009FFE2B78002B4FD04A4D2D2120680368FE
:103070009B68984715F8011F0029F7D1464B474D2B
:103080001868FFF7A5FD2021206803689B68984712
:1030900015F8011F0029F7D133684B450BD9404D76
:1030A000206815F8011C03689B68984733689D42A7
:1030B00005F10105F4D33B48FFF7D2FD57F8043B77
:1030C000002B7FF47AAF039A52F8047F0392002F0B
:1030D0007FF469AFFFF764FD334D1348FFF7C0FD80
:1030E0004621206803689B68984715F8011F00294E
:1030F000F7D1214A13785BB92C48FFF7B1FD1E4B7D
:10310000187805B0BDE8F08F2948FFF7A9FD4FE713
:103110002848FFF7A5FD184B187805B0BDE8F08FDB
:1031200080180020E08F00082CA00008C08F000845
:10313000DC8F00083C9000084C900008609000086C
:10314000789000088C900008D4900008E89000085F
:10315000F4900008089100081491000828910008D4
:1031600040910008549100086C910008C09100083B
:10317000809100083092000854180020F48F000855
:10318000A8910008148D00084C1800205018002049
:103190006C1800200490000848180020AC9100082A
:1031A000851800201C900008B09100082C900008A1
:1031B000209000083490000884180020AFF30080AD
:1031C000F0B5274F274EBB69274D9A68274B3068CB
:1031D000274C83B0053A00934FF498712B46FDF7C6
:1031E000B7FDBB6923499A68736820600091043A6F
:1031F00018464FF498712B46FDF7AAFDBA69B368DB
:1032000092681D4960600091033A18464FF4987126
:103210002B46FDF79DFDBA69F36892681749A060D7
:103220000091023A18464FF498712B46FDF790FD35
:10323000BA69336992681249E060013A0091184610
:103240004FF498712B46FDF783FD2061FFF7A8FD31
:103250000C49012003B0BDE8F040FFF749BD00BFB5
:1032600014120020A08F000891320008609200081C
:103270006C1800209CA2000850920008549200088C
:10328000589200085C920008AFF30080AFF3008012
:1032900008B50078FFF7FCFC002008BDAFF3008004
:1032A000F0B52D4F2D4EBB692D4D9A682D4B706892
:1032B0002D4C83B0043A00934FF498712B46FDF7E0
:1032C00047FDBB6929499A68336860600091053AF7
:1032D00018464FF498712B46FDF73AFDBA693369E9
:1032E0009268234920600091013A18464FF4987182
:1032F0002B46FDF72DFDBA69F36892681D492061E0
:103300000091023A18464FF498712B46FDF720FDC4
:103310002023E06083F31188FDF7A2F9BB69B06850
:103320009A68154B0093033A2B464FF49871FDF7BA
:10333000BFFCA060FDF7ACF9002383F31188A068FF
:10334000FDF766FDFFF72CFD0C49012003B0BDE839
:10335000F040FFF7CDBC00BF14120020A08F000882
:10336000913200089CA200086C18002060920008AE
:103370005892000854920008509200085C9200088D
:10338000F8B5514EB3699C68651C2846FDF718FDD9
:10339000B0EB040CDCF10001074651EB0C010120FD
:1033A000FFF78EFC00B1F8BDB3699968B5EB010E6B
:1033B000DEF1000151EB0E010220FFF781FC002835
:1033C000F1D13846FDF7FCFC281A41424141032067
:1033D000FFF776FC0028E6D1B36999680A1B5142D1
:1033E00051410420FFF76CFC0028DCD1202383F33B
:1033F0001188FDF735F9B3699A6802329A60FDF7D2
:1034000047F9002383F31188B3699968A71CCB1B84
:10341000594259410520FFF753FC0028C3D12846E3
:10342000FDF7CEFCB0EB040CDCF1000151EB0C011C
:103430000620FFF745FC0028B5D1B3699968B7EBC2
:10344000010EDEF1000151EB0E010720FFF738FC01
:103450000028A8D1B369596C6F1A794279410820C4
:10346000FFF72EFC00289ED1E71C3846FDF7A8FC8C
:10347000281A414241410920FFF722FC002892D13D
:10348000B36999687A1A514251410A20FFF718FC32
:10349000002888D1B369596C7B1A594259410B20D5
:1034A000FFF70EFC00287FF47EAF202383F3118802
:1034B000FDF7D6F8B3699C605C64FDF7E9F800237A
:1034C00083F311886FE700BF14120020AFF3008070
:1034D00038B51C4DFFF7ACFCEC686420FDF7D0FC60
:1034E00004F1640104F165020120FFF729FC00B139
:1034F00038BDEC686420FDF7C3FC04F1640104F1FD
:1035000065020220FFF71CFC0028F1D1EC684FF4A3
:103510007A70FDF7B5FC04F57A7104F2E932032004
:10352000FFF70EFC0028E3D1EC6804F1640528469F
:10353000FDF7BEFC294604F165020420BDE83840D1
:10354000FFF7FEBB04120020AFF30080AFF3008052
:103550002DE9F041434D444EAB69D6F800809A689E
:10356000424F434B434C82B005324FF49871009761
:103570004046FDF7EDFBAA69736892683E492060FA
:103580000132184600913A4B4FF49871FDF7E0FB79
:10359000AA69B3689268394960600332184600919D
:1035A000334B4FF49871FDF7D3FBAA69F368926827
:1035B0003349A0600432184600912D4B4FF49871A6
:1035C000FDF7C6FBAA69336992682E49E0600232B2
:1035D00018460091264B4FF49871FDF7B9FB206116
:1035E0002948FDF72DFF2848FDF72AFF2648FDF75B
:1035F00027FF2548FDF724FF2348FDF721FFFFF7AC
:10360000CFFB01202149FFF773FB10B102B0BDE8E9
:10361000F081AA69164B92680097053240464FF434
:103620009871FDF795FB2023206083F31188FDF747
:1036300017F815480221FDF76BFFFDF7D9FAFDF7E2
:1036400027F8002383F31188FFF7AAFB0E4B996834
:103650004B1E59424FF00200594102B0BDE8F04103
:10366000FFF72EBB14120020A08F0008589200080C
:10367000B13600086C1800205492000850920008DF
:103680009CA2000860920008000800205C920008DC
:1036900010B5044C2046FDF763FE2046FDF7D0FE32
:1036A000002010BD00080020AFF30080AFF30080C1
:1036B00010B504460348FDF753FE2078FFF7E8FAFB
:1036C000002010BD00080020AFF30080AFF30080A1
:1036D00001480021FDF7ACBD00080020AFF30080D9
:1036E00001480021FDF7A4BD00080020AFF30080D1
:1036F00001480021FDF79CBD00080020AFF30080C9
:1037000008B53220FDF7BCFB202383F31188FCF7BA
:10371000A7FF0648FDF7CCFEFDF76AFAFCF7B8FFF5
:10372000002383F31188002008BD00BF000800209B
:1037300010B52023044683F31188FCF791FFA3689A
:10374000002B08DDFDF754FAFCF7A2FF002383F3FA
:103750001188002010BD2046FDF7AAFEF2E700BF49
:1037600000B587B003A80021FDF762FD03A8002182
:10377000FDF7A6FD05990029CCBF002101210120FC
:10378000FFF79EFA10B107B05DF804FB334B344AE3
:103790009B6910689A68334B03A90091013A4FF472
:1037A0009871FDF7D5FA304B186003A8FDF7D8FDE6
:1037B00005990029CCBF002101210220FFF780FAE2
:1037C0000028E0D1202383F31188FCF749FF059BF3
:1037D000002B3ADDFDF70CFAFCF75AFF002383F3C8
:1037E000118805990029D4BF002101210320FFF78A
:1037F00067FA0028C7D105994A1E51425141042059
:10380000FFF75EFA0028BED1202383F31188FCF76E
:1038100027FF059B002B1CDDFDF7EAF9FCF738FFBD
:10382000002383F3118805990029D4BF00210121C9
:103830000320FFF745FA0028A5D105994B1E5942F0
:1038400059410520FFF73CFA9DE703A8FDF730FE3C
:10385000C0E703A8FDF72CFEDEE700BF141200202E
:10386000A08F0008313700086C180020AFF30080EB
:1038700070B54B4C82B000212046FDF7C9FDB0F178
:10388000FF3EDEF1000151EB0E010120FFF718FAB7
:1038900008B102B070BD21680E1B71427141022057
:1038A000FFF70EFA0028F4D1A168D1F1010138BF69
:1038B00000210320FFF704FA0028EAD1394B3A4AE5
:1038C0009B6911689A68394B0090013A08464FF499
:1038D0009871FDF73DFA364B4FF4FA7118602046A7
:1038E000FDF796FD0546FFF75BFAD5F1010138BFFC
:1038F00000210420FFF7E4F90028CAD121680D1B3C
:10390000694269410520FFF7DBF90028C1D1A168B0
:10391000D1F1010138BF00210620FFF7D1F90028BD
:10392000B7D1FFF785FA234BDE6841252846FFF71C
:10393000AFF94FF4FA711A48FDF76AFDB0F1FF32A2
:10394000514251410720FFF7BBF90028A1D121685E
:103950000B1B594259410820FFF7B2F9002898D1B2
:10396000A168D1F101014FF0090038BF0021FFF734
:10397000A7F90135EDB200288BD1462DD6D10A200A
:103980000D49FFF7B5F9002883D10B2006F6C411C5
:1039900006F6C91202B0BDE87040FFF7D1B900BF0A
:1039A0000008002014120020A08F00080137000832
:1039B0006C180020041200205C920008AFF3008015
:1039C00010B5214B214A9B6910689A68204B214C05
:1039D00082B00021013200914FF49871FDF7B8F9DF
:1039E0001D4B214618602046FDF7CAFD21680A1BC1
:1039F000514251410120FFF763F908B102B010BDF7
:103A0000A168D1F1010138BF00210220FFF758F968
:103A10000028F3D121462046FDF7B2FD21680B1B9B
:103A2000594259410320FFF74BF90028E6D1A1681C
:103A3000D1F101014FF0040038BF002102B0BDE810
:103A40001040FFF73DB900BF14120020A08F0008FE
:103A500091360008000800206C180020AFF30080A9
:103A6000F0B52A4F2A4EBB692A489C682A4D83B07C
:103A7000FDF776FE294B0093621C4FF49871284B9A
:103A80003068FDF765F9736826492860A21C18465E
:103A90000091234B4FF49871FDF75AF9B36822490E
:103AA0006860E21C184600911D4B4FF49871FDF7B9
:103AB0004FF9F3681D49A860221D18460091184B64
:103AC0004FF49871FDF744F933691949E860621DB4
:103AD00018460091124B4FF49871FDF739F928619F
:103AE000FDF786FEFFF75CF9BB6999680B1B59422D
:103AF00059410120FFF7E4F808B103B0F0BD0D49CA
:103B0000022003B0BDE8F040FFF7F2B81412002025
:103B1000A08F00080C0800206C180020609200089C
:103B2000413B00089CA200085092000854920008F3
:103B3000589200085C920008AFF30080AFF3008059
:103B400010B504460448FDF70BFE2078FFF7A0F8F7
:103B5000FDF74EFE002010BD0C080020AFF30080E2
:103B600010B504460448FDF7FBFD2078FFF790F8F8
:103B7000FDF73EFE002010BD1C080020AFF30080C2
:103B80000148FDF75DBD00BF0C080020AFF30080C9
:103B90000148FDF755BD00BF0C080020AFF30080C1
:103BA00008B50448FDF74CFD0348BDE80840FDF7A3
:103BB00047BD00BF0C0800201C080020AFF30080A8
:103BC00008B50448FDF73CFD0348BDE80840FDF793
:103BD00037BD00BF0C0800201C080020AFF3008098
:103BE0000148FDF72DBD00BF0C080020AFF3008099
:103BF0002DE9F041204E214F214C82B0FFF718F9FA
:103C0000B36920499A68D1F80C801F4B38680025A9
:103C1000013A4FF498710095FDF79AF8B2697B6804
:103C200092682060023A18464FF49871174B00953D
:103C3000FDF78EF8B269BB68926860604FF49871C6
:103C4000033A18460095124BFDF782F8A060FFF783
:103C5000A7F801200F49FFF74BF810B102B0BDE8FB
:103C6000F081022008F1640108F1690202B0BDE8A8
:103C7000F041FFF765B800BF14120020A08F0008C4
:103C80006C18002004120020F13D0008D13D00080E
:103C9000813D0008E0930008AFF30080AFF300809F
:103CA0002DE9F0412C4E2D4F2D4C82B0FFF7C0F87E
:103CB000B3692C499A68D1F80C802B4B38680025E1
:103CC000053A4FF498710095FDF742F8B2697B68A8
:103CD00092682060043A18464FF49871234B00957F
:103CE000FDF736F8B269BB6892686060033A18461F
:103CF0004FF498711E4B0095FDF72AF8B269FB68E6
:103D00009268A060023A18464FF49871194B0095DA
:103D1000FDF71EF8B2693B699268E0604FF4987154
:103D2000013A18460095144BFDF712F82061FFF791
:103D300037F801201149FEF7DBFF10B102B0BDE8F2
:103D4000F081022008F16E0108F1730202B0BDE8B3
:103D5000F041FEF7F5BF00BF14120020A08F00084D
:103D60006C18002004120020B13D0008A13E00089C
:103D7000713E0008513E0008213E00085C92000898
:103D800008B50848FDF7ECFC2820FFF721F8FDF7FF
:103D90002FFD0A20FFF71CF84320FEF779FF0020D3
:103DA00008BD00BF0C080020AFF30080AFF3008017
:103DB00008B50648FDF7D4FC1E20FFF709F8FDF70B
:103DC00017FD4520FEF764FF002008BD0C08002009
:103DD00008B51420FDF754F82820FEF7F9FF42201B
:103DE000FEF756FF002008BDAFF30080AFF3008060
:103DF00008B52820FDF744F80648FDF7B1FC0A2075
:103E0000FEF7E6FFFDF7F4FC4120FEF741FF00203E
:103E100008BD00BF0C080020AFF30080AFF30080A6
:103E200008B53220FDF72CF80648FDF799FC0A206A
:103E3000FEF7CEFFFDF7DCFC4120FEF729FF002056
:103E400008BD00BF1C080020AFF30080AFF3008066
:103E500008B52820FDF714F81420FEF7B9FF42201A
:103E6000FEF716FF002008BDAFF30080AFF300801F
:103E700008B51420FDF704F80648FDF771FC0A2088
:103E8000FEF7A6FFFDF7B4FC4320FEF701FF00207C
:103E900008BD00BF1C080020AFF30080AFF3008016
:103EA00008B50A20FCF7ECFF0B48FDF759FC14207D
:103EB000FEF78EFF0948FDF753FC0A20FEF788FF46
:103EC000FDF796FC0A20FEF783FFFDF791FC4420E6
:103ED000FEF7DEFE002008BD1C0800200C080020B4
:103EE00008B59620FCF7CCFF0348FDF739FCFDF739
:103EF0007FFC002008BD00BF0C080020AFF300804D
:103F000008B53220FCF7BCFF0348FDF729FCFDF79C
:103F10006FFC002008BD00BF1C080020AFF300802C
:103F20002DE9F0468C4D8D4EAB6932689C688C4B08
:103F30008C4F85B004F10109039200934A464FF477
:103F40009871894B0398FCF703FF7668874B3860BC
:103F500004F1020A4FF49871524600933046844BA4
:103F6000FCF7F6FE78608348FDF7FAFBAB699968C9
:103F7000B1EB040CDCF1000151EB0C010120FEF768
:103F80009FFE10B105B0BDE8F0866420FCF778FF15
:103F9000AB699968B1EB090EDEF1000151EB0E013E
:103FA0000220FEF78DFE0028ECD17348FDF7D8FB08
:103FB000AB699968B1EB0902514251410320FEF708
:103FC0007FFE0028DED16420FCF75AFFAB699968B8
:103FD000B1EB0A03594259410420FEF771FE002853
:103FE000D0D1FDF705FCAB699968B1EB090CDCF1A8
:103FF000000151EB0C010520FEF762FE0028C1D143
:104000006420FCF73DFFAB699968B1EB090EDEF166
:10401000000151EB0E010620FEF752FE0028B1D13F
:10402000FDF76EFCAB6999680A1B514251410720AC
:10403000FEF746FE0028A5D1FEF7B2FE4F4B0093D7
:104040004FF498714A46484B0398FCF781FE4C4B5D
:1040500038604FF4987100935246454B3046FCF758
:1040600077FE78604348FDF77BFBAB6999680B1BD3
:10407000594259410820FEF723FE002882D16420CE
:10408000FCF7FEFEAB699968B1EB090CDCF10001AD
:1040900051EB0C010920FEF713FE00287FF472AFEC
:1040A0003548FDF75DFBAB699968B1EB090EDEF1B0
:1040B000000151EB0E010A20FEF702FE00287FF4FA
:1040C00061AF6420FCF7DCFEAB699968B1EB0A07CD
:1040D000794279410B20FEF7F3FD00287FF452AFBF
:1040E000202383F31188FCF7BBFAFDF7C9FBFCF72B
:1040F0007FFDFCF7CDFA002383F31188AB69996843
:10410000B1EB0906714271410C20FEF7D9FD002880
:104110007FF438AF6420FCF7B3FEAB699968B1EB6C
:104120000902514251410D20FEF7CAFD00287FF4DB
:1041300029AFFDF7E5FBAB6999680B1B5942594163
:104140000E20FEF7BDFD00287FF41CAF05B0BDE8D2
:10415000F046FEF725BE00BF14120020A08F000815
:10416000549200086C180020013F00085892000883
:10417000E13E00081C0800200C0800209CA200085A
:1041800050920008AFF30080AFF30080AFF30080DF
:10419000F8B52D4D2D4CAB6920469E68FDF710FB00
:1041A00001460120FEF78CFD00B1F8BD2046FDF769
:1041B00007FB80F00101C9B20220FEF781FD002853
:1041C000F3D1202383F31188FCF74AFAFDF758FB5B
:1041D000FCF75EFA002383F311882168081B414233
:1041E00041410320FEF76CFD0028DED1A168D1F12A
:1041F000010138BF00210420FEF762FD0028D4D160
:10420000AB6999688A1B514251410520FEF758FD60
:104210000028CAD12046FDF7A3FAFDF771FB2168FB
:104220000B1B594259410620FEF74AFD0028BCD11C
:10423000A168D1F101014FF0070038BF0021BDE8AE
:10424000F840FEF73DBD00BF141200200C0800200E
:10425000F0B5314B314F9B69314D9E68314B386819
:10426000314C83B0721C00934FF498712B46FCF7CD
:104270006FFD7B682D492060B21C009118464FF4F9
:1042800098712B46FCF764FDBB6829496060F21CFD
:10429000009118464FF498712B46FCF759FDFB68C6
:1042A0002449A060321D009118464FF498712B46A6
:1042B000FCF74EFD3B692049E060721D00911846F5
:1042C0004FF498712B46FCF743FD2023206183F3C4
:1042D00011881A4CFCF7C4F92046FDF771FB204603
:1042E000FDF76EFB2046FDF76BFB2046FDF768FBF4
:1042F0002046FDF765FBFCF77BFCFCF7C9F90023C2
:1043000083F31188FEF74CFD0D49012003B0BDE891
:10431000F040FEF7EDBC00BF14120020A08F000893
:1043200051430008609200086C1800209CA200080D
:104330005092000854920008589200082C0800205F
:104340005C920008AFF30080AFF30080AFF3008011
:1043500010B504460648FDF703FA0648FDF7B8FB1A
:104360002078FEF795FCFDF743FA002010BD00BF52
:104370000C0800202C080020AFF30080AFF3008071
:1043800008B50448FDF7ECFA0348BDE80840FDF71E
:1043900057B900BF2C0800200C080020AFF30080A4
:1043A00008B50448FDF7DCFA0348BDE80840FDF70E
:1043B00047B900BF2C0800200C080020AFF3008094
:1043C00008B50548FDF7CCFA0448FDF739F904486B
:1043D000BDE80840FDF734B92C0800200C08002087
:1043E0001C080020AFF30080AFF30080AFF3008023
:1043F000F0B5244B244F9B69244D9E68244B3868AC
:10440000244C83B0721C00934FF498712B46FCF738
:104410009FFC7B6820492060B21C009118464FF435
:1044200098712B46FCF794FCBB681C496060F21C39
:10443000009118464FF498712B46FCF789FCFB68F5
:104440001749A060321D009118464FF498712B4611
:10445000FCF77EFC3B691349E060721D0091184631
:104460004FF498712B46FCF773FC20610E48FDF762
:10447000DFFAFEF795FC0D49012003B0BDE8F040DE
:10448000FEF736BC14120020A08F0008514300082C
:10449000609200086C1800209CA20008509200084E
:1044A00054920008589200082C0800205C920008E2
:1044B000F0B51B4B1B4E9B6930689D681A4B1B4C1B
:1044C0001B4F83B06A1C00934FF49871194BFCF793
:1044D0003FFC736818492060AA1C009118464FF4ED
:1044E0009871164BFCF734FCB168154B6060EA1C00
:1044F00000930846134B4FF49871FCF729FCA06019
:104500003846FDF73DFA3846FDF73AFAFEF748FC23
:104510000D49012003B0BDE8F040FEF7E9BB00BF44
:1045200014120020A08F0008589200086C18002078
:104530002C08002051450008509200085143000803
:1045400054920008613B0008E0930008AFF300803C
:1045500010B504460948FDF703F90948FDF700F9CD
:104560004FF0FF310748FDF70BFB2078FEF790FB7B
:10457000FDF73EF9FDF73CF9002010BD1C080020B6
:104580000C0800202C080020AFF30080AFF300805F
:1045900010B5184A184B916918688A68174B82B091
:1045A000013200914FF49871FCF7D2FB144B186064
:1045B000FDF76EFD846B2146FDF792FDE0B2FEF73C
:1045C00067FBFDF765FD846B2146FDF789FDE0B2D1
:1045D000FEF75EFBFDF75CFD846B2146FDF780FD79
:1045E000E0B2FEF755FB0749012002B0BDE81040DC
:1045F000FEF77EBB14120020A08F000811460008B1
:104600006C180020E0930008AFF30080AFF3008047
:1046100010B541210446FDF70BFD20464221FDF770
:1046200007FD20464321FDF703FD002010BD00BF1C
:1046300070B5174D696AB1F1050EDEF1000182B067
:1046400051EB0E010120FEF73BFBF8B94224214655
:104650000F484FF0FF32FDF7D3FDD0F1010138BF15
:10466000002102200134FEF72BFB78B9462CEED155
:10467000412107484FF0FF32FDF72AFED0F101013A
:1046800038BF00210320FEF71BFB18B102B070BD3C
:10469000340800205821CD480122FDF7B1FDB0F1CA
:1046A000FF36714271410420FEF70AFB0028EDD16C
:1046B000202383F31188FBF7D3FF5821C348FDF76C
:1046C000B7FD0446FBF7E4FF002383F31188B4F140
:1046D000FF34614261410520FEF7F2FA0028D5D18E
:1046E00058210122B948FDF7F3FDB0F1FF325142E4
:1046F00051410620FEF7E4FA0028C7D1202383F3B6
:104700001188FBF7ADFF5821B048FDF7F9FD0446CD
:10471000FBF7BEFF002383F31188B4F1FF33594246
:1047200059410720FEF7CCFA0028AFD1202383F3AC
:104730001188FBF795FF696AD1F101014FF008007C
:1047400038BF0021FEF7BCFA0446002840F0CA82B8
:10475000FBF79EFF234683F31188202383F3118800
:10476000FBF77EFFA969B1F1050CDCF100014FF008
:10477000090051EB0C01FEF7A3FA0446002840F0B3
:10478000B182FBF785FF234683F31188202383F34F
:104790001188FBF765FFE968AB68B1EB030EDEF14A
:1047A000000151EB0E010A20FEF78AFA002840F0C2
:1047B0009982FBF76DFF002383F311880526834C54
:1047C00001A920464FF0FF32FDF7EAFDD0F10101CB
:1047D00038BF00210B20FEF773FA00287FF456AF94
:1047E0009DF80400FEF754FA013EE8D10C20784908
:1047F000FEF77EFA00287FF449AF472120464FF0AC
:10480000FF32FDF7FDFCD0F1010138BF00210D2082
:10481000FEF756FA00287FF439AF01A920464FF081
:10482000FF32FDF7BDFDD0F1010138BF00210E20A0
:10483000FEF746FA00287FF429AF2168A368CE1A54
:10484000714271410F20FEF73BFA00287FF41EAF42
:104850002168E368CA1A514251411020FEF730FA2C
:1048600000287FF413AF01A920460122FDF798FD2F
:10487000B0F1FF33594259411120FEF721FA0028C7
:104880007FF404AF202383F31188FBF7E9FE01A92D
:104890002046FDF79DFD0446FBF7FAFE002383F357
:1048A0001188B4F1FF3CDCF1000151EB0C01122046
:1048B000FEF706FA00287FF4E9AE202383F311887F
:1048C000FBF7CEFE696AB1F1050EDEF1000151EB96
:1048D0000E011320FEF7F4F9002840F00382FBF7E5
:1048E000D7FE002383F31188202383F31188FBF77D
:1048F000B7FEA969D1F101014FF0140038BF0021C2
:10490000FEF7DEF90446002840F0EC81FBF7C0FE1C
:10491000234683F31188202383F31188FBF7A0FE3D
:10492000E968AB68CE1A71424FF015007141FEF78D
:10493000C7F90446002840F0D581FBF7A9FE2346BD
:1049400083F31188202383F31188FBF789FE41212B
:104950001E48FDF76DFCD0F1010138BF0021162083
:10496000FEF7AEF900287FF491AE42211748FDF71B
:104970005FFCD0F1010138BF00211720FEF7A0F93C
:1049800000287FF483AE43211048FDF751FCD0F19D
:10499000010138BF00211820FEF792F900287FF4AA
:1049A00075AE44210948FDF743FCD0F1010138BF41
:1049B00000211920FEF784F9044600287FF466AE32
:1049C00045210248FDF734FC04E000BF3408002014
:1049D0005C9200080646FBF75BFE234683F31188D2
:1049E000D6F1010138BF00211A20FEF769F900282D
:1049F0007FF44CAEE968AB68CC1A614261411B2080
:104A0000FEF75EF900287FF441AE0524202383F3EE
:104A10001188FBF725FE01A9B548FDF7D9FC06462C
:104A2000FBF736FE002383F31188D6F1010138BF6E
:104A300000211C20FEF744F900287FF427AE9DF8E2
:104A40000400FEF725F9013CE0D11D20A949FEF73D
:104A50004FF900287FF41AAE202383F31188FBF767
:104A6000FFFD696A4A1F51424FF01E005141FEF797
:104A700027F90446002840F03581FBF709FE23465C
:104A800083F31188202383F31188FBF7E9FDA969DB
:104A9000D1F101014FF01F0038BF0021FEF710F9DE
:104AA0000446002840F01E81FBF7F2FD234683F305
:104AB0001188E968AB68CB1A594259412020FEF7AA
:104AC000FFF800287FF4E2AD202383F31188FBF781
:104AD000C7FD45218648FDF713FCD0F1010138BF21
:104AE00000212120FEF7ECF800287FF4CFAD44210F
:104AF0007F48FDF705FCD0F1010138BF00212220DD
:104B0000FEF7DEF800287FF4C1AD43217848FDF7B9
:104B1000F7FBD0F1010138BF00212320FEF7D0F8C8
:104B200000287FF4B3AD42217148FDF7E9FBD0F1D5
:104B3000010138BF00212420FEF7C2F800287FF4CD
:104B4000A5AD41216A48FDF7DBFB0446FBF7A0FD5C
:104B5000002383F31188D4F1010138BF00212520FF
:104B6000FEF7AEF800287FF491ADE968AB68B1EBD1
:104B7000030CDCF1000151EB0C012620FEF7A0F83C
:104B800000287FF483AD0524202383F31188FBF7ED
:104B900067FD01A95648FDF71BFC0646FBF778FDAB
:104BA000002383F31188D6F1010138BF00212720AB
:104BB000FEF786F800287FF469AD9DF80400FEF743
:104BC00067F8013CE0D128204A49FEF791F8002817
:104BD0007FF45CAD202383F31188FBF741FD696A04
:104BE000B1F1050EDEF100014FF0290051EB0E018D
:104BF000FEF766F80446002874D1FBF749FD23460A
:104C000083F31188202383F31188FBF729FDA96919
:104C1000D1F101014FF02A0038BF0021FEF750F812
:104C2000044600285ED1FBF733FD234683F3118849
:104C3000E968AB68CE1A714271412B20FEF740F84B
:104C400000287FF423AD2A48FDF78AFA202383F356
:104C50001188FBF705FD696A4C1F614261412C20F8
:104C6000FEF72EF8044600283CD1FBF711FD234641
:104C700083F31188202383F31188FBF7F1FCA969E2
:104C8000D1F101014FF02D0038BF0021FEF718F8D7
:104C9000044638BBFBF7FCFC234683F31188202332
:104CA00083F31188FBF7DCFC2968AB68CA1A514210
:104CB0004FF02E005141FEF703F8044690B9FBF780
:104CC000E7FC234683F31188202383F31188FBF745
:104CD000C7FC2968EB68CB1A59424FF02F005941A5
:104CE000FDF7EEFFFBF7D4FC002383F31188CDE43E
:104CF000340800205C920008AFF30080AFF300801E
:104D0000024803490522FDF70BBA00BF3408002012
:104D100058120020AFF30080AFF30080AFF30080A3
:104D200010B51D4C88B02046694601222460FCF76E
:104D30003FFF204604A90222FCF73AFF2168091B25
:104D400018BF01210120FDF7BBFF08B108B010BD5D
:104D500069462046FCF754FF2168091B18BF012152
:104D60000220FDF7ADFF0028F0D104A92046FCF792
:104D700047FF21680B1B594259410320FDF7A0FF53
:104D80000028E3D105480721FDF712F80449042063
:104D9000FDF7AEFFDAE700BF5C0800204096000890
:104DA000E0930008AFF30080AFF30080AFF3008022
:104DB0004320FDF76DBF00BFAFF30080AFF300806D
:104DC0004220FDF765BF00BFAFF30080AFF3008066
:104DD0004120FDF75DBF00BFAFF30080AFF300805F
:104DE0004FF0FF30FCF734BFAFF30080AFF300802B
:104DF0004FF0FF30FCF72CBFAFF30080AFF3008023
:104E00004FF0FF30FCF724BFAFF30080AFF300801A
:104E10002DE9F04205208CB0FCF732FF4FF0FF3057
:104E2000FCF7F6FFB0F10109D9F1000151EB0901DE
:104E30000120FDF745FF10B10CB0BDE8F0824FF046
:104E4000FF30FCF7E5FFB0F1040CDCF1000151EBA1
:104E50000C010220FDF734FF0028EDD14FF0FF30A8
:104E6000FCF7F6FED0F1010138BF00210320FDF769
:104E700027FF0028E0D1734D734F744EFDF7D8FF24
:104E8000AB6973499A6809680093013A039108462F
:104E9000704BFC684FF49871FBF75AFF30604FF08D
:104EA000FF30FCF7B5FF04F13201814604F137020F
:104EB0000420FDF745FF0028BED1B9F1010EDEF157
:104EC000000151EB0E010520FDF7FAFE0028B3D1D9
:104ED0004FF0FF30FCF7BCFED0F1010138BF0021DC
:104EE0000620FDF7EDFE0028A6D1FDF759FF0520AD
:104EF000FCF7C6FE4FF0FF30FCF7B2FF441F6142E3
:104F000061410720FDF7DCFE002895D14FF0FF300E
:104F1000FCF79EFED0F1010138BF00210820FDF70B
:104F2000CFFE002888D1FDF783FFA969494B8A6825
:104F300003980091013A4FF49871FC68FBF708FF61
:104F400030604FF0FF30FCF78BFF04F132018146F7
:104F500004F137020920FDF7F3FE00287FF46CAF5F
:104F6000B9F10100414241410A20FDF7A9FE0028A4
:104F70007FF462AF4FF0FF30FCF76AFED0F1010121
:104F800038BF00210B20FDF79BFE00287FF454AFB3
:104F9000DFF8D090304CFDF703FF484604A901220A
:104FA000C9F800902460FCF703FE08A904222046FB
:104FB000FCF7FEFDFDF73CFFAB6928499A680398B2
:104FC0000091013A4FF49871254BFD68FBF7C0FE44
:104FD00030600520FCF764FF05F1320105F137026E
:104FE0000C20FDF7ADFE00287FF426AF4FF0FF3018
:104FF000FCF72EFED0F1010138BF00210D20FDF796
:105000005FFE00287FF418AFFDF7CAFE484604A9EA
:10501000FCF7F6FD204608A9FCF7F2FDD9F80010D0
:10502000B1EB0902514251410E20FDF749FE002823
:105030007FF402AF21680B1B594259410F20FDF745
:105040003FFEF9E614120020041200206C18002024
:10505000A08F0008A15000086008002058920008A6
:10506000715000085C080020AFF30080AFF30080AF
:1050700008B500210548FCF783FE3220FBF700FF4E
:1050800003480021FCF77CFE002008BD5C080020DE
:1050900060080020AFF30080AFF30080AFF3008022
:1050A00010B504463220FBF7EBFE20460121FCF749
:1050B00047FE002010BD00BFAFF30080AFF30080BB
:1050C00008B500214FF0FF30FCF70AFFD0F10101D5
:1050D00038BF00210120FDF7F3FD00B108BD0146F6
:1050E0004FF0FF30FCF734FFD0F1010138BF002151
:1050F0000220FDF7E5FD0028F0D101464FF0FF301A
:10510000FCF75EFFD0F1010138BF00210320FDF75D
:10511000D7FD0028E2D10A214FF0FF30FCF7E0FE76
:10512000D0F1010138BF00210420FDF7C9FD00289E
:10513000D4D10A214FF0FF30FCF70AFFD0F1010172
:1051400038BF00210520FDF7BBFD0028C6D10A218C
:105150004FF0FF30FCF734FFD0F1010138BF0021E0
:105160000620BDE80840FDF7ABBD00BFAFF30080EF
:1051700070B582B0FDF774FB01A90020FDF758FC63
:1051800010210020FDF7ACFB011C044618BF0121D3
:105190000120FDF795FD054608B102B070BD20461F
:1051A000FDF7DEFB6FF0FF012846FDF799FBD0F11C
:1051B000010138BF00210220FDF782FD0028ECD15B
:1051C00001A97B48FDF734FC10217948FDF788FBE5
:1051D000102105467648FDF783FB102104467448EC
:1051E000FDF77EFB06462846FDF7BAFB2046FDF795
:1051F000B7FB3046FDF7B4FB69466D48FDF718FC78
:10520000421E514251410320FDF75AFD0028C4D1EE
:1052100010216748FDF764FB102104466448FDF740
:105220005FFB102105466248FDF75AFBFDF798FB2E
:105230002846FDF795FB2046FDF792FB69465C4842
:10524000FDF7F6FB431E594259410420FDF738FD96
:105250000028A2D111215648FDF742FB1021044637
:105260005348FDF73DFB05462046FDF779FB6946AF
:105270004F48FDF7DDFBB0F1020CDCF1000151EB12
:105280000C010520FDF71CFD002886D1102148489F
:10529000FDF726FB694604464548FDF7C9FB012892
:1052A00000F0838069464248FDF7C2FBB0F1020E70
:1052B000DEF1000151EB0E010620FDF701FD002893
:1052C0007FF46BAF2846FDF74BFB2046FDF748FB0C
:1052D00069463748FDF7ACFB461E71427141072015
:1052E000FDF7EEFC00287FF458AF10213048FDF7A1
:1052F000F7FA102105462E48FDF7F2FA0446284633
:10530000FDF72EFB69462A48FDF792FB851E694290
:1053100069410820FDF7D4FC00287FF43EAF20212E
:105320002348FDF7DDFAFDF71BFB2046FDF718FBD0
:1053300069461F48FDF77CFB013841424141092085
:10534000FDF7BEFC00287FF428AF69461848FDF73A
:105350006FFB00991648FDF7C3FA694604461448E6
:10536000FDF766FBD0F1010138BF00210A20FDF7EF
:10537000A7FC00287FF411AF2046FDF7F1FA69463B
:105380000B48FDF755FB421E514251410B20FDF7E2
:1053900097FC00287FF401AF9DE80A00CB1A594220
:1053A00059410C20FDF78CFCF7E6014684E700BF6D
:1053B00098180020AFF30080AFF30080AFF30080B7
:1053C000024803494FF4BE62FDF76ABA98180020FC
:1053D00058120020AFF30080AFF30080AFF30080DD
:1053E00000207047AFF30080AFF30080AFF3008080
:1053F00002484FF498710022FDF73ABB6408002080
:1054000038B52C4B2C481D6805222946FDF7A0FB1A
:1054100005242948FDF754FB011C18BF0121012078
:10542000FDF74EFCA0BB013CF3D12348FDF748FB40
:10543000D0F1010138BF00210220FDF741FC38BB4B
:105440001C4C1D48294604F11005FDF769FBAC42D0
:1054500006D054F8041F1848FDF762FBAC42F8D19F
:1054600005241548FDF72CFB011C18BF0121032062
:10547000FDF726FC60B9013CF3D10F48FDF720FB96
:10548000D0F1010138BF00210420FDF719FC00B163
:1054900038BD10210848094AFDF7EAFA0648FDF729
:1054A0000FFBD0F1010138BF00210520BDE83840D5
:1054B000FDF706BCA08F000864080020E153000837
:1054C00070B5334B33489B69334C9D6884B003A956
:1054D000FDF7AEFA314B00936A1E314B2D484FF465
:1054E0009871FBF7EDFD2F4B2060AA1E00934FF43F
:1054F00098712B4B2748FBF7E3FD02A96060254814
:10550000FDF796FA02992348FDF7EAF9264B009336
:105510004FF498710646EA1E214B1E48FBF7D0FD5A
:10552000A0603046FDF71CFA216821B1616811B115
:10553000A16819B300210120FDF7C2FB08B104B036
:1055400070BDFDF72DFC02201849FDF7D1FB0028A6
:10555000F5D102A90F48FDF76BFA421E51425141A5
:105560000320FDF7ADFB0028E9D10299039BCB1A7C
:10557000594259410420FDF7A3FBE0E7E368002B03
:10558000D9D12169D1F1010138BF0021D3E700BF92
:1055900014120020C81800206C180020589200082F
:1055A000B155000854920008509200082097000856
:1055B00008B50078FDF76CFB002008BDAFF3008054
:1055C000024803494FF4BE62FDF76AB9C8180020CB
:1055D00058120020AFF30080AFF30080AFF30080DB
:1055E000024803494FF4BE62FDF75AB9C8180020BB
:1055F00058120020AFF30080AFF30080AFF30080BB
:10560000324B9B6970B5324C9D6804F1100654F81A
:10561000041F3048FDF784FAB442F8D12E4A2F4BCC
:105620002C482F4C691EFBF783FDA91E20602A4AD7
:105630002C4B2848FBF77CFDE91E6060264A2A4B6C
:105640002448FBF775FD291FA060234A274B2148FA
:10565000FBF76EFD691FE0601F4A1E48244BFBF7F5
:1056600067FD2168206149B1616839B1A16829B13C
:10567000E16819B1D0F1010138BF00210120FDF727
:105680001FFB00B170BDFDF78BFB02201949FDF730
:105690002FFB0028F6D104240E48FDF711FA011C57
:1056A00018BF01210320FDF70BFB0028EAD1013CC4
:1056B000F2D10848FDF704FAD0F1010138BF00210A
:1056C0000420BDE87040FDF7FBBA00BF14120020B3
:1056D0009C8F0008B8180020B155000858920008A7
:1056E0006C18002054920008509200089CA20008F8
:1056F0006092000824970008AFF30080AFF30080A9
:1057000002484FF498710022FDF7B2B9B818002092
:1057100038B50546FBF74CFD002403461846AB425E
:1057200008BF44F00104FBF75BFD03460028F5D1F8
:10573000204638BDAFF30080AFF30080AFF30080A8
:1057400010B54C4B4C499B694C489A684C4B82B005
:10575000013A00914FF49871FBF7B2FC0446012026
:1057600094F82210B1EB000CDCF1000151EB0C01BC
:10577000FDF7A6FA08B102B010BD2046FBF740FCC9
:1057800094F822100220B1EB000EDEF1000151EB83
:105790000E01FDF795FA0028EDD12046FBF750FCED
:1057A00094F822104A1E514251410320FDF788FA15
:1057B0000028E0D12046FFF7ABFF01460420FDF7AB
:1057C0007FFA0028D7D12046FFF7A2FF0146052027
:1057D000FDF776FA0028CED12046FBF731FC94F88D
:1057E0002210D1F1010138BF00210620FDF768FA2F
:1057F0000028C0D194F82010D1F1010138BF002158
:105800000720FDF75DFA0028B5D12046FFF780FF9D
:1058100001460820FDF754FA0028ACD12046FFF7D6
:1058200077FF01460920FDF74BFA0028A3D132206B
:10583000FBF726FB94F82010B1F10E0359425941B1
:105840000A20FDF73DFA002895D12046FFF760FFBA
:1058500001460B20FDF734FA00288CD12046FFF7D3
:1058600057FF80F00101C9B20C2002B0BDE8104022
:10587000FDF726BA1412002058920008C81800201C
:10588000B1550008AFF30080AFF30080AFF30080A4
:10589000704700BFAFF30080AFF30080AFF300802C
:1058A00008B5C8210248FCF72BFE002008BD00BF48
:1058B00094080020AFF30080AFF30080AFF30080C6
:1058C00000B5064B06481968064B83B000220092CB
:1058D0000422FCF7BDFD03B05DF804FBA08F0008B7
:1058E0009408002091580008AFF30080AFF30080C7
:1058F00008B50021C8220248FCF7BAFE002008BD06
:1059000070080020AFF30080AFF30080AFF3008099
:1059100000B5064B06481968064B83B0002200927A
:105920000422FCF775FE03B05DF804FBA08F0008AD
:105930007008002091580008AFF30080AFF300809A
:1059400070B5202382B083F31188B34DFAF788FE37
:10595000A968D1F101014FF0010038BF0021FDF726
:10596000AFF90646002840F04B81FAF791FE334626
:1059700083F31188202383F31188FAF771FE412401
:1059800021460134A448E4B2FCF78AFD452CF7D146
:10599000FAF77EFE002383F31188202383F3118816
:1059A000FAF75EFE6A69AB699B499A4200F02F8163
:1059B00031460220FDF784F90446002840F020819A
:1059C000FAF766FE234683F31188202383F31188B8
:1059D000FAF746FE00219048FCF762FD043014BF40
:1059E000002101210320FDF76BF90446002840F057
:1059F0000781FAF74DFE234683F3118804244FF004
:105A0000FF318548FCF77CFDC0B2FDF741F9013C50
:105A1000F5D1202383F31188FAF722FEA968D1F18A
:105A200001014FF0040038BF0021FDF749F9044699
:105A3000002840F0E580FAF72BFE234683F3118817
:105A400005207649FDF754F9002840F0DE80202338
:105A500083F31188FAF704FE4124214601346E488D
:105A6000E4B2FCF71DFD452CF7D1FAF711FE002337
:105A700083F311886A4E684871680822FCF778FD44
:105A8000041F614261410620FDF71AF9002840F029
:105A9000BC80202383F31188FAF7E2FDA968D1F1D5
:105AA00001014FF0070038BF0021FDF709F9044656
:105AB000002840F0A580FAF7EBFD234683F3118818
:105AC000202383F31188FAF7CBFD412421460134CA
:105AD0005148E4B2FCF7E4FC452CF7D1FAF7D8FDC5
